{
  "abi": [
    {
      "inputs": [
        {
          "internalType": "address",
          "name": "_tokenStockAddress",
          "type": "address"
        },
        {
          "internalType": "address",
          "name": "_tokenPaymentAddress",
          "type": "address"
        }
      ],
      "stateMutability": "nonpayable",
      "type": "constructor"
    },
    {
      "anonymous": false,
      "inputs": [
        {
          "indexed": true,
          "internalType": "address",
          "name": "_promisor",
          "type": "address"
        },
        {
          "indexed": true,
          "internalType": "address",
          "name": "_recipient",
          "type": "address"
        },
        {
          "indexed": false,
          "internalType": "address",
          "name": "escrow",
          "type": "address"
        },
        {
          "indexed": false,
          "internalType": "uint256",
          "name": "_partitionUid",
          "type": "uint256"
        },
        {
          "indexed": false,
          "internalType": "uint256",
          "name": "_priceExercise",
          "type": "uint256"
        },
        {
          "indexed": false,
          "internalType": "uint256",
          "name": "_priceOption",
          "type": "uint256"
        },
        {
          "indexed": false,
          "internalType": "uint256",
          "name": "_expirationDate",
          "type": "uint256"
        }
      ],
      "name": "StartOption",
      "type": "event"
    },
    {
      "inputs": [],
      "name": "isOrigin",
      "outputs": [
        {
          "internalType": "address",
          "name": "",
          "type": "address"
        }
      ],
      "stateMutability": "nonpayable",
      "type": "function"
    },
    {
      "inputs": [
        {
          "internalType": "uint256",
          "name": "",
          "type": "uint256"
        }
      ],
      "name": "options",
      "outputs": [
        {
          "internalType": "address",
          "name": "promisor",
          "type": "address"
        },
        {
          "internalType": "address",
          "name": "recipient",
          "type": "address"
        },
        {
          "internalType": "uint256",
          "name": "priceOption",
          "type": "uint256"
        },
        {
          "internalType": "uint256",
          "name": "priceExercise",
          "type": "uint256"
        },
        {
          "internalType": "uint256",
          "name": "expirationDate",
          "type": "uint256"
        },
        {
          "internalType": "enum clauseOption.optionStates",
          "name": "status",
          "type": "uint8"
        }
      ],
      "stateMutability": "view",
      "type": "function"
    },
    {
      "inputs": [
        {
          "internalType": "uint256",
          "name": "partitionUid",
          "type": "uint256"
        }
      ],
      "name": "recipientAccept",
      "outputs": [
        {
          "internalType": "bool",
          "name": "",
          "type": "bool"
        }
      ],
      "stateMutability": "nonpayable",
      "type": "function"
    },
    {
      "inputs": [
        {
          "internalType": "uint256",
          "name": "partitionUid",
          "type": "uint256"
        }
      ],
      "name": "recipientDeny",
      "outputs": [
        {
          "internalType": "bool",
          "name": "",
          "type": "bool"
        }
      ],
      "stateMutability": "nonpayable",
      "type": "function"
    },
    {
      "inputs": [
        {
          "internalType": "address",
          "name": "recipient",
          "type": "address"
        },
        {
          "internalType": "uint256",
          "name": "partitionUid",
          "type": "uint256"
        },
        {
          "internalType": "uint256",
          "name": "priceExercise",
          "type": "uint256"
        },
        {
          "internalType": "uint256",
          "name": "priceOption",
          "type": "uint256"
        },
        {
          "internalType": "uint256",
          "name": "duration",
          "type": "uint256"
        }
      ],
      "name": "startOption",
      "outputs": [
        {
          "internalType": "bool",
          "name": "",
          "type": "bool"
        }
      ],
      "stateMutability": "nonpayable",
      "type": "function"
    },
    {
      "inputs": [
        {
          "internalType": "uint256",
          "name": "partitionUid",
          "type": "uint256"
        }
      ],
      "name": "stopOption",
      "outputs": [
        {
          "internalType": "bool",
          "name": "",
          "type": "bool"
        }
      ],
      "stateMutability": "nonpayable",
      "type": "function"
    },
    {
      "inputs": [],
      "name": "tokenPayment",
      "outputs": [
        {
          "internalType": "contract IERC20",
          "name": "",
          "type": "address"
        }
      ],
      "stateMutability": "view",
      "type": "function"
    },
    {
      "inputs": [],
      "name": "tokenStock",
      "outputs": [
        {
          "internalType": "contract IERC1400",
          "name": "",
          "type": "address"
        }
      ],
      "stateMutability": "view",
      "type": "function"
    }
  ],
  "bytecode": "608060405234801561001057600080fd5b5060405161109d38038061109d8339818101604052604081101561003357600080fd5b5080516020909101516001600160a01b03821661004f57600080fd5b6001600160a01b03811661006257600080fd5b600180546001600160a01b039384166001600160a01b031991821617909155600280549290931691161790556110008061009d6000396000f3fe608060405234801561001057600080fd5b50600436106100885760003560e01c8063807327f01161005b578063807327f01461018c578063a4f3a7c7146101a9578063b40643a9146101cd578063c55c0583146101d557610088565b806306fdb3631461008d57806330a6ef72146100be5780633d0d6aab146100db578063409e220514610119575b600080fd5b6100aa600480360360208110156100a357600080fd5b50356101dd565b604080519115158252519081900360200190f35b6100aa600480360360208110156100d457600080fd5b50356102c2565b6100aa600480360360a08110156100f157600080fd5b506001600160a01b0381351690602081013590604081013590606081013590608001356105ee565b6101366004803603602081101561012f57600080fd5b5035610bdb565b60405180876001600160a01b03168152602001866001600160a01b0316815260200185815260200184815260200183815260200182600281111561017657fe5b8152602001965050505050505060405180910390f35b6100aa600480360360208110156101a257600080fd5b5035610c20565b6101b1610d94565b604080516001600160a01b039092168252519081900360200190f35b6101b1610da3565b6101b1610e1a565b6000818152602081905260408120546001600160a01b0316331461020057600080fd5b600082815260208190526040902060040154421161021d57600080fd5b60015460408051637e622d0560e11b81526004810185905290516001600160a01b039092169163fcc45a0a916024808201926020929091908290030181600087803b15801561026b57600080fd5b505af115801561027f573d6000803e3d6000fd5b505050506040513d602081101561029557600080fd5b50516102a057600080fd5b506000908152602081905260409020600501805460ff19166002179055600190565b6000818152602081905260408120600101546001600160a01b031633146102e857600080fd5b600082815260208181526040918290206003015460025483516370a0823160e01b8152336004820152935191936001600160a01b03909116926370a0823192602480840193829003018186803b15801561034157600080fd5b505afa158015610355573d6000803e3d6000fd5b505050506040513d602081101561036b57600080fd5b5051101561037857600080fd5b60008281526020819052604090206004015442111561039657600080fd5b600160008381526020819052604090206005015460ff1660028111156103b857fe5b146103c257600080fd5b600154604080516376c657c960e01b81526004810185905290516001600160a01b03909216916376c657c991602480820192602092909190829003018186803b15801561040e57600080fd5b505afa158015610422573d6000803e3d6000fd5b505050506040513d602081101561043857600080fd5b50516001146104785760405162461bcd60e51b8152600401808060200182810382526052815260200180610e9b6052913960600191505060405180910390fd5b600082815260208181526040918290206003810154600154915484516305ca3bfb60e31b81526001600160a01b0391821660048201523060248201526044810188905294519194921692632e51dfd89260648082019391829003018186803b1580156104e357600080fd5b505afa1580156104f7573d6000803e3d6000fd5b505050506040513d602081101561050d57600080fd5b5051101561051a57600080fd5b600154600083815260208190526040808220805460039091015482516321c08ad160e11b81526001600160a01b039283166004820152602481019190915260448101879052915193169263438115a29260648084019391929182900301818387803b15801561058857600080fd5b505af115801561059c573d6000803e3d6000fd5b50506001546040805163f90d771760e01b81526004810187905290516001600160a01b03909216935063f90d771792506024808201926020929091908290030181600087803b15801561026b57600080fd5b6000600160008681526020819052604090206005015460ff16600281111561061257fe5b141561064f5760405162461bcd60e51b8152600401808060200182810382526051815260200180610f1e6051913960600191505060405180910390fd5b600154604080516363857a7b60e01b815260048101889052905133926001600160a01b0316916363857a7b916024808301926020929190829003018186803b15801561069a57600080fd5b505afa1580156106ae573d6000803e3d6000fd5b505050506040513d60208110156106c457600080fd5b50516001600160a01b03161461070b5760405162461bcd60e51b815260040180806020018281038252602a815260200180610e2a602a913960400191505060405180910390fd5b600154604080516376c657c960e01b81526004810188905290516001600160a01b03909216916376c657c991602480820192602092909190829003018186803b15801561075757600080fd5b505afa15801561076b573d6000803e3d6000fd5b505050506040513d602081101561078157600080fd5b5051156107bf5760405162461bcd60e51b8152600401808060200182810382526047815260200180610e546047913960600191505060405180910390fd5b600084116107cc57600080fd5b600083116107d957600080fd5b600082116108185760405162461bcd60e51b8152600401808060200182810382526031815260200180610eed6031913960400191505060405180910390fd5b600254604080516370a0823160e01b81526001600160a01b03898116600483015291518688019392909216916370a0823191602480820192602092909190829003018186803b15801561086a57600080fd5b505afa15801561087e573d6000803e3d6000fd5b505050506040513d602081101561089457600080fd5b505110156108a157600080fd5b60025460408051636eb1769f60e11b81526001600160a01b03898116600483015230602483015291518693929092169163dd62ed3e91604480820192602092909190829003018186803b1580156108f757600080fd5b505afa15801561090b573d6000803e3d6000fd5b505050506040513d602081101561092157600080fd5b5051101561092e57600080fd5b60008581526020819052604090208054336001600160a01b0319918216178255600180830180549092166001600160a01b038a16179091556002820185905560038201869055620151808402420160048301556005909101805460ff191682800217905550600154604080516305ca3bfb60e31b815233600482015230602482015260448101889052905186926001600160a01b031691632e51dfd8916064808301926020929190829003018186803b1580156109ea57600080fd5b505afa1580156109fe573d6000803e3d6000fd5b505050506040513d6020811015610a1457600080fd5b50511015610a535760405162461bcd60e51b815260040180806020018281038252605c815260200180610f6f605c913960600191505060405180910390fd5b600154604080516368aa16ff60e01b81526001600160a01b03898116600483015260248201899052426201518087020160448301819052606483018990529251929316916368aa16ff916084808201926020929091908290030181600087803b158015610abf57600080fd5b505af1158015610ad3573d6000803e3d6000fd5b505050506040513d6020811015610ae957600080fd5b5050600254604080516323b872dd60e01b81526001600160a01b038a8116600483015233602483015260448201889052915191909216916323b872dd9160648083019260209291908290030181600087803b158015610b4757600080fd5b505af1158015610b5b573d6000803e3d6000fd5b505050506040513d6020811015610b7157600080fd5b50506040805130815260208101889052808201879052606081018690526080810183905290516001600160a01b0389169133917fd2b44aeb51c25f153082768c524fb7002726ea22630322ef25e116d2a0bdad819181900360a00190a35060019695505050505050565b6000602081905290815260409020805460018201546002830154600384015460048501546005909501546001600160a01b039485169593909416939192909160ff1686565b6000818152602081905260408120600101546001600160a01b03163314610c4657600080fd5b600082815260208190526040902060040154421115610c6457600080fd5b600160008381526020819052604090206005015460ff166002811115610c8657fe5b14610c9057600080fd5b600154604080516376c657c960e01b81526004810185905290516001600160a01b03909216916376c657c991602480820192602092909190829003018186803b158015610cdc57600080fd5b505afa158015610cf0573d6000803e3d6000fd5b505050506040513d6020811015610d0657600080fd5b5051600114610d465760405162461bcd60e51b8152600401808060200182810382526052815260200180610e9b6052913960600191505060405180910390fd5b6001546040805163f90d771760e01b81526004810185905290516001600160a01b039092169163f90d7717916024808201926020929091908290030181600087803b15801561026b57600080fd5b6002546001600160a01b031681565b6001546040805163ca1a35cf60e01b815290516000926001600160a01b03169163ca1a35cf91600480830192602092919082900301818787803b158015610de957600080fd5b505af1158015610dfd573d6000803e3d6000fd5b505050506040513d6020811015610e1357600080fd5b5051905090565b6001546001600160a01b03168156fe5365756c206c652070726f6d657474616e74207065757420696e697469657220756e65206f7074696f6e6c6120706172746974696f6e206369626c65206465206c276f7074696f6e20646f697420c383c2aa74726520616374697665202d205354415455535f41435449564520697320306c6120706172746974696f6e206369626c65206465206c276f7074696f6e20646f697420c383c2aa74726520656e2073c383c2a971756573747265202d205354415455535f434f4e46494e454420697320316c6120647572c383c2a965206427756e65206f7074696f6e206573742065787072696dc383c2a96520656e206a6f757273556e6520706172746974696f6e207065757420c383c2aa747265206c276f626a657420646520706c75736965757273206f7074696f6e73206d616973207061732073696d756c74616ec383c2a96d656e746c6520636f6e74726163742064652073c383c2a97175657374726520646f697420c383c2aa747265206175746f726973c383c2a920c383c2a0206d6f646966696572206c6520737461747573206465206c6120706172746974696f6ea2646970667358221220ffc627303eab3c596cf18c5e9cc67ccf915befb111d53f17a14e52a11c9d4b6064736f6c634300060c0033",
  "bytecodeSha1": "1fc5c9e32401559f5c5f7b398af5f093189c5575",
  "compiler": {
    "evm_version": "istanbul",
    "optimizer": {
      "enabled": true,
      "runs": 200
    },
    "version": "0.6.12"
  },
  "contractName": "clauseOption",
  "language": "Solidity",
  "natspec": {
    "kind": "dev",
    "methods": {},
    "version": 1
  },
  "opcodes": "PUSH1 0x80 PUSH1 0x40 MSTORE CALLVALUE DUP1 ISZERO PUSH2 0x10 JUMPI PUSH1 0x0 DUP1 REVERT JUMPDEST POP PUSH1 0x4 CALLDATASIZE LT PUSH2 0x88 JUMPI PUSH1 0x0 CALLDATALOAD PUSH1 0xE0 SHR DUP1 PUSH4 0x807327F0 GT PUSH2 0x5B JUMPI DUP1 PUSH4 0x807327F0 EQ PUSH2 0x18C JUMPI DUP1 PUSH4 0xA4F3A7C7 EQ PUSH2 0x1A9 JUMPI DUP1 PUSH4 0xB40643A9 EQ PUSH2 0x1CD JUMPI DUP1 PUSH4 0xC55C0583 EQ PUSH2 0x1D5 JUMPI PUSH2 0x88 JUMP JUMPDEST DUP1 PUSH4 0x6FDB363 EQ PUSH2 0x8D JUMPI DUP1 PUSH4 0x30A6EF72 EQ PUSH2 0xBE JUMPI DUP1 PUSH4 0x3D0D6AAB EQ PUSH2 0xDB JUMPI DUP1 PUSH4 0x409E2205 EQ PUSH2 0x119 JUMPI JUMPDEST PUSH1 0x0 DUP1 REVERT JUMPDEST PUSH2 0xAA PUSH1 0x4 DUP1 CALLDATASIZE SUB PUSH1 0x20 DUP2 LT ISZERO PUSH2 0xA3 JUMPI PUSH1 0x0 DUP1 REVERT JUMPDEST POP CALLDATALOAD PUSH2 0x1DD JUMP JUMPDEST PUSH1 0x40 DUP1 MLOAD SWAP2 ISZERO ISZERO DUP3 MSTORE MLOAD SWAP1 DUP2 SWAP1 SUB PUSH1 0x20 ADD SWAP1 RETURN JUMPDEST PUSH2 0xAA PUSH1 0x4 DUP1 CALLDATASIZE SUB PUSH1 0x20 DUP2 LT ISZERO PUSH2 0xD4 JUMPI PUSH1 0x0 DUP1 REVERT JUMPDEST POP CALLDATALOAD PUSH2 0x2C2 JUMP JUMPDEST PUSH2 0xAA PUSH1 0x4 DUP1 CALLDATASIZE SUB PUSH1 0xA0 DUP2 LT ISZERO PUSH2 0xF1 JUMPI PUSH1 0x0 DUP1 REVERT JUMPDEST POP PUSH1 0x1 PUSH1 0x1 PUSH1 0xA0 SHL SUB DUP2 CALLDATALOAD AND SWAP1 PUSH1 0x20 DUP2 ADD CALLDATALOAD SWAP1 PUSH1 0x40 DUP2 ADD CALLDATALOAD SWAP1 PUSH1 0x60 DUP2 ADD CALLDATALOAD SWAP1 PUSH1 0x80 ADD CALLDATALOAD PUSH2 0x5EE JUMP JUMPDEST PUSH2 0x136 PUSH1 0x4 DUP1 CALLDATASIZE SUB PUSH1 0x20 DUP2 LT ISZERO PUSH2 0x12F JUMPI PUSH1 0x0 DUP1 REVERT JUMPDEST POP CALLDATALOAD PUSH2 0xBDB JUMP JUMPDEST PUSH1 0x40 MLOAD DUP1 DUP8 PUSH1 0x1 PUSH1 0x1 PUSH1 0xA0 SHL SUB AND DUP2 MSTORE PUSH1 0x20 ADD DUP7 PUSH1 0x1 PUSH1 0x1 PUSH1 0xA0 SHL SUB AND DUP2 MSTORE PUSH1 0x20 ADD DUP6 DUP2 MSTORE PUSH1 0x20 ADD DUP5 DUP2 MSTORE PUSH1 0x20 ADD DUP4 DUP2 MSTORE PUSH1 0x20 ADD DUP3 PUSH1 0x2 DUP2 GT ISZERO PUSH2 0x176 JUMPI INVALID JUMPDEST DUP2 MSTORE PUSH1 0x20 ADD SWAP7 POP POP POP POP POP POP POP PUSH1 0x40 MLOAD DUP1 SWAP2 SUB SWAP1 RETURN JUMPDEST PUSH2 0xAA PUSH1 0x4 DUP1 CALLDATASIZE SUB PUSH1 0x20 DUP2 LT ISZERO PUSH2 0x1A2 JUMPI PUSH1 0x0 DUP1 REVERT JUMPDEST POP CALLDATALOAD PUSH2 0xC20 JUMP JUMPDEST PUSH2 0x1B1 PUSH2 0xD94 JUMP JUMPDEST PUSH1 0x40 DUP1 MLOAD PUSH1 0x1 PUSH1 0x1 PUSH1 0xA0 SHL SUB SWAP1 SWAP3 AND DUP3 MSTORE MLOAD SWAP1 DUP2 SWAP1 SUB PUSH1 0x20 ADD SWAP1 RETURN JUMPDEST PUSH2 0x1B1 PUSH2 0xDA3 JUMP JUMPDEST PUSH2 0x1B1 PUSH2 0xE1A JUMP JUMPDEST PUSH1 0x0 DUP2 DUP2 MSTORE PUSH1 0x20 DUP2 SWAP1 MSTORE PUSH1 0x40 DUP2 KECCAK256 SLOAD PUSH1 0x1 PUSH1 0x1 PUSH1 0xA0 SHL SUB AND CALLER EQ PUSH2 0x200 JUMPI PUSH1 0x0 DUP1 REVERT JUMPDEST PUSH1 0x0 DUP3 DUP2 MSTORE PUSH1 0x20 DUP2 SWAP1 MSTORE PUSH1 0x40 SWAP1 KECCAK256 PUSH1 0x4 ADD SLOAD TIMESTAMP GT PUSH2 0x21D JUMPI PUSH1 0x0 DUP1 REVERT JUMPDEST PUSH1 0x1 SLOAD PUSH1 0x40 DUP1 MLOAD PUSH4 0x7E622D05 PUSH1 0xE1 SHL DUP2 MSTORE PUSH1 0x4 DUP2 ADD DUP6 SWAP1 MSTORE SWAP1 MLOAD PUSH1 0x1 PUSH1 0x1 PUSH1 0xA0 SHL SUB SWAP1 SWAP3 AND SWAP2 PUSH4 0xFCC45A0A SWAP2 PUSH1 0x24 DUP1 DUP3 ADD SWAP3 PUSH1 0x20 SWAP3 SWAP1 SWAP2 SWAP1 DUP3 SWAP1 SUB ADD DUP2 PUSH1 0x0 DUP8 DUP1 EXTCODESIZE ISZERO DUP1 ISZERO PUSH2 0x26B JUMPI PUSH1 0x0 DUP1 REVERT JUMPDEST POP GAS CALL ISZERO DUP1 ISZERO PUSH2 0x27F JUMPI RETURNDATASIZE PUSH1 0x0 DUP1 RETURNDATACOPY RETURNDATASIZE PUSH1 0x0 REVERT JUMPDEST POP POP POP POP PUSH1 0x40 MLOAD RETURNDATASIZE PUSH1 0x20 DUP2 LT ISZERO PUSH2 0x295 JUMPI PUSH1 0x0 DUP1 REVERT JUMPDEST POP MLOAD PUSH2 0x2A0 JUMPI PUSH1 0x0 DUP1 REVERT JUMPDEST POP PUSH1 0x0 SWAP1 DUP2 MSTORE PUSH1 0x20 DUP2 SWAP1 MSTORE PUSH1 0x40 SWAP1 KECCAK256 PUSH1 0x5 ADD DUP1 SLOAD PUSH1 0xFF NOT AND PUSH1 0x2 OR SWAP1 SSTORE PUSH1 0x1 SWAP1 JUMP JUMPDEST PUSH1 0x0 DUP2 DUP2 MSTORE PUSH1 0x20 DUP2 SWAP1 MSTORE PUSH1 0x40 DUP2 KECCAK256 PUSH1 0x1 ADD SLOAD PUSH1 0x1 PUSH1 0x1 PUSH1 0xA0 SHL SUB AND CALLER EQ PUSH2 0x2E8 JUMPI PUSH1 0x0 DUP1 REVERT JUMPDEST PUSH1 0x0 DUP3 DUP2 MSTORE PUSH1 0x20 DUP2 DUP2 MSTORE PUSH1 0x40 SWAP2 DUP3 SWAP1 KECCAK256 PUSH1 0x3 ADD SLOAD PUSH1 0x2 SLOAD DUP4 MLOAD PUSH4 0x70A08231 PUSH1 0xE0 SHL DUP2 MSTORE CALLER PUSH1 0x4 DUP3 ADD MSTORE SWAP4 MLOAD SWAP2 SWAP4 PUSH1 0x1 PUSH1 0x1 PUSH1 0xA0 SHL SUB SWAP1 SWAP2 AND SWAP3 PUSH4 0x70A08231 SWAP3 PUSH1 0x24 DUP1 DUP5 ADD SWAP4 DUP3 SWAP1 SUB ADD DUP2 DUP7 DUP1 EXTCODESIZE ISZERO DUP1 ISZERO PUSH2 0x341 JUMPI PUSH1 0x0 DUP1 REVERT JUMPDEST POP GAS STATICCALL ISZERO DUP1 ISZERO PUSH2 0x355 JUMPI RETURNDATASIZE PUSH1 0x0 DUP1 RETURNDATACOPY RETURNDATASIZE PUSH1 0x0 REVERT JUMPDEST POP POP POP POP PUSH1 0x40 MLOAD RETURNDATASIZE PUSH1 0x20 DUP2 LT ISZERO PUSH2 0x36B JUMPI PUSH1 0x0 DUP1 REVERT JUMPDEST POP MLOAD LT ISZERO PUSH2 0x378 JUMPI PUSH1 0x0 DUP1 REVERT JUMPDEST PUSH1 0x0 DUP3 DUP2 MSTORE PUSH1 0x20 DUP2 SWAP1 MSTORE PUSH1 0x40 SWAP1 KECCAK256 PUSH1 0x4 ADD SLOAD TIMESTAMP GT ISZERO PUSH2 0x396 JUMPI PUSH1 0x0 DUP1 REVERT JUMPDEST PUSH1 0x1 PUSH1 0x0 DUP4 DUP2 MSTORE PUSH1 0x20 DUP2 SWAP1 MSTORE PUSH1 0x40 SWAP1 KECCAK256 PUSH1 0x5 ADD SLOAD PUSH1 0xFF AND PUSH1 0x2 DUP2 GT ISZERO PUSH2 0x3B8 JUMPI INVALID JUMPDEST EQ PUSH2 0x3C2 JUMPI PUSH1 0x0 DUP1 REVERT JUMPDEST PUSH1 0x1 SLOAD PUSH1 0x40 DUP1 MLOAD PUSH4 0x76C657C9 PUSH1 0xE0 SHL DUP2 MSTORE PUSH1 0x4 DUP2 ADD DUP6 SWAP1 MSTORE SWAP1 MLOAD PUSH1 0x1 PUSH1 0x1 PUSH1 0xA0 SHL SUB SWAP1 SWAP3 AND SWAP2 PUSH4 0x76C657C9 SWAP2 PUSH1 0x24 DUP1 DUP3 ADD SWAP3 PUSH1 0x20 SWAP3 SWAP1 SWAP2 SWAP1 DUP3 SWAP1 SUB ADD DUP2 DUP7 DUP1 EXTCODESIZE ISZERO DUP1 ISZERO PUSH2 0x40E JUMPI PUSH1 0x0 DUP1 REVERT JUMPDEST POP GAS STATICCALL ISZERO DUP1 ISZERO PUSH2 0x422 JUMPI RETURNDATASIZE PUSH1 0x0 DUP1 RETURNDATACOPY RETURNDATASIZE PUSH1 0x0 REVERT JUMPDEST POP POP POP POP PUSH1 0x40 MLOAD RETURNDATASIZE PUSH1 0x20 DUP2 LT ISZERO PUSH2 0x438 JUMPI PUSH1 0x0 DUP1 REVERT JUMPDEST POP MLOAD PUSH1 0x1 EQ PUSH2 0x478 JUMPI PUSH1 0x40 MLOAD PUSH3 0x461BCD PUSH1 0xE5 SHL DUP2 MSTORE PUSH1 0x4 ADD DUP1 DUP1 PUSH1 0x20 ADD DUP3 DUP2 SUB DUP3 MSTORE PUSH1 0x52 DUP2 MSTORE PUSH1 0x20 ADD DUP1 PUSH2 0xE9B PUSH1 0x52 SWAP2 CODECOPY PUSH1 0x60 ADD SWAP2 POP POP PUSH1 0x40 MLOAD DUP1 SWAP2 SUB SWAP1 REVERT JUMPDEST PUSH1 0x0 DUP3 DUP2 MSTORE PUSH1 0x20 DUP2 DUP2 MSTORE PUSH1 0x40 SWAP2 DUP3 SWAP1 KECCAK256 PUSH1 0x3 DUP2 ADD SLOAD PUSH1 0x1 SLOAD SWAP2 SLOAD DUP5 MLOAD PUSH4 0x5CA3BFB PUSH1 0xE3 SHL DUP2 MSTORE PUSH1 0x1 PUSH1 0x1 PUSH1 0xA0 SHL SUB SWAP2 DUP3 AND PUSH1 0x4 DUP3 ADD MSTORE ADDRESS PUSH1 0x24 DUP3 ADD MSTORE PUSH1 0x44 DUP2 ADD DUP9 SWAP1 MSTORE SWAP5 MLOAD SWAP2 SWAP5 SWAP3 AND SWAP3 PUSH4 0x2E51DFD8 SWAP3 PUSH1 0x64 DUP1 DUP3 ADD SWAP4 SWAP2 DUP3 SWAP1 SUB ADD DUP2 DUP7 DUP1 EXTCODESIZE ISZERO DUP1 ISZERO PUSH2 0x4E3 JUMPI PUSH1 0x0 DUP1 REVERT JUMPDEST POP GAS STATICCALL ISZERO DUP1 ISZERO PUSH2 0x4F7 JUMPI RETURNDATASIZE PUSH1 0x0 DUP1 RETURNDATACOPY RETURNDATASIZE PUSH1 0x0 REVERT JUMPDEST POP POP POP POP PUSH1 0x40 MLOAD RETURNDATASIZE PUSH1 0x20 DUP2 LT ISZERO PUSH2 0x50D JUMPI PUSH1 0x0 DUP1 REVERT JUMPDEST POP MLOAD LT ISZERO PUSH2 0x51A JUMPI PUSH1 0x0 DUP1 REVERT JUMPDEST PUSH1 0x1 SLOAD PUSH1 0x0 DUP4 DUP2 MSTORE PUSH1 0x20 DUP2 SWAP1 MSTORE PUSH1 0x40 DUP1 DUP3 KECCAK256 DUP1 SLOAD PUSH1 0x3 SWAP1 SWAP2 ADD SLOAD DUP3 MLOAD PUSH4 0x21C08AD1 PUSH1 0xE1 SHL DUP2 MSTORE PUSH1 0x1 PUSH1 0x1 PUSH1 0xA0 SHL SUB SWAP3 DUP4 AND PUSH1 0x4 DUP3 ADD MSTORE PUSH1 0x24 DUP2 ADD SWAP2 SWAP1 SWAP2 MSTORE PUSH1 0x44 DUP2 ADD DUP8 SWAP1 MSTORE SWAP2 MLOAD SWAP4 AND SWAP3 PUSH4 0x438115A2 SWAP3 PUSH1 0x64 DUP1 DUP5 ADD SWAP4 SWAP2 SWAP3 SWAP2 DUP3 SWAP1 SUB ADD DUP2 DUP4 DUP8 DUP1 EXTCODESIZE ISZERO DUP1 ISZERO PUSH2 0x588 JUMPI PUSH1 0x0 DUP1 REVERT JUMPDEST POP GAS CALL ISZERO DUP1 ISZERO PUSH2 0x59C JUMPI RETURNDATASIZE PUSH1 0x0 DUP1 RETURNDATACOPY RETURNDATASIZE PUSH1 0x0 REVERT JUMPDEST POP POP PUSH1 0x1 SLOAD PUSH1 0x40 DUP1 MLOAD PUSH4 0xF90D7717 PUSH1 0xE0 SHL DUP2 MSTORE PUSH1 0x4 DUP2 ADD DUP8 SWAP1 MSTORE SWAP1 MLOAD PUSH1 0x1 PUSH1 0x1 PUSH1 0xA0 SHL SUB SWAP1 SWAP3 AND SWAP4 POP PUSH4 0xF90D7717 SWAP3 POP PUSH1 0x24 DUP1 DUP3 ADD SWAP3 PUSH1 0x20 SWAP3 SWAP1 SWAP2 SWAP1 DUP3 SWAP1 SUB ADD DUP2 PUSH1 0x0 DUP8 DUP1 EXTCODESIZE ISZERO DUP1 ISZERO PUSH2 0x26B JUMPI PUSH1 0x0 DUP1 REVERT JUMPDEST PUSH1 0x0 PUSH1 0x1 PUSH1 0x0 DUP7 DUP2 MSTORE PUSH1 0x20 DUP2 SWAP1 MSTORE PUSH1 0x40 SWAP1 KECCAK256 PUSH1 0x5 ADD SLOAD PUSH1 0xFF AND PUSH1 0x2 DUP2 GT ISZERO PUSH2 0x612 JUMPI INVALID JUMPDEST EQ ISZERO PUSH2 0x64F JUMPI PUSH1 0x40 MLOAD PUSH3 0x461BCD PUSH1 0xE5 SHL DUP2 MSTORE PUSH1 0x4 ADD DUP1 DUP1 PUSH1 0x20 ADD DUP3 DUP2 SUB DUP3 MSTORE PUSH1 0x51 DUP2 MSTORE PUSH1 0x20 ADD DUP1 PUSH2 0xF1E PUSH1 0x51 SWAP2 CODECOPY PUSH1 0x60 ADD SWAP2 POP POP PUSH1 0x40 MLOAD DUP1 SWAP2 SUB SWAP1 REVERT JUMPDEST PUSH1 0x1 SLOAD PUSH1 0x40 DUP1 MLOAD PUSH4 0x63857A7B PUSH1 0xE0 SHL DUP2 MSTORE PUSH1 0x4 DUP2 ADD DUP9 SWAP1 MSTORE SWAP1 MLOAD CALLER SWAP3 PUSH1 0x1 PUSH1 0x1 PUSH1 0xA0 SHL SUB AND SWAP2 PUSH4 0x63857A7B SWAP2 PUSH1 0x24 DUP1 DUP4 ADD SWAP3 PUSH1 0x20 SWAP3 SWAP2 SWAP1 DUP3 SWAP1 SUB ADD DUP2 DUP7 DUP1 EXTCODESIZE ISZERO DUP1 ISZERO PUSH2 0x69A JUMPI PUSH1 0x0 DUP1 REVERT JUMPDEST POP GAS STATICCALL ISZERO DUP1 ISZERO PUSH2 0x6AE JUMPI RETURNDATASIZE PUSH1 0x0 DUP1 RETURNDATACOPY RETURNDATASIZE PUSH1 0x0 REVERT JUMPDEST POP POP POP POP PUSH1 0x40 MLOAD RETURNDATASIZE PUSH1 0x20 DUP2 LT ISZERO PUSH2 0x6C4 JUMPI PUSH1 0x0 DUP1 REVERT JUMPDEST POP MLOAD PUSH1 0x1 PUSH1 0x1 PUSH1 0xA0 SHL SUB AND EQ PUSH2 0x70B JUMPI PUSH1 0x40 MLOAD PUSH3 0x461BCD PUSH1 0xE5 SHL DUP2 MSTORE PUSH1 0x4 ADD DUP1 DUP1 PUSH1 0x20 ADD DUP3 DUP2 SUB DUP3 MSTORE PUSH1 0x2A DUP2 MSTORE PUSH1 0x20 ADD DUP1 PUSH2 0xE2A PUSH1 0x2A SWAP2 CODECOPY PUSH1 0x40 ADD SWAP2 POP POP PUSH1 0x40 MLOAD DUP1 SWAP2 SUB SWAP1 REVERT JUMPDEST PUSH1 0x1 SLOAD PUSH1 0x40 DUP1 MLOAD PUSH4 0x76C657C9 PUSH1 0xE0 SHL DUP2 MSTORE PUSH1 0x4 DUP2 ADD DUP9 SWAP1 MSTORE SWAP1 MLOAD PUSH1 0x1 PUSH1 0x1 PUSH1 0xA0 SHL SUB SWAP1 SWAP3 AND SWAP2 PUSH4 0x76C657C9 SWAP2 PUSH1 0x24 DUP1 DUP3 ADD SWAP3 PUSH1 0x20 SWAP3 SWAP1 SWAP2 SWAP1 DUP3 SWAP1 SUB ADD DUP2 DUP7 DUP1 EXTCODESIZE ISZERO DUP1 ISZERO PUSH2 0x757 JUMPI PUSH1 0x0 DUP1 REVERT JUMPDEST POP GAS STATICCALL ISZERO DUP1 ISZERO PUSH2 0x76B JUMPI RETURNDATASIZE PUSH1 0x0 DUP1 RETURNDATACOPY RETURNDATASIZE PUSH1 0x0 REVERT JUMPDEST POP POP POP POP PUSH1 0x40 MLOAD RETURNDATASIZE PUSH1 0x20 DUP2 LT ISZERO PUSH2 0x781 JUMPI PUSH1 0x0 DUP1 REVERT JUMPDEST POP MLOAD ISZERO PUSH2 0x7BF JUMPI PUSH1 0x40 MLOAD PUSH3 0x461BCD PUSH1 0xE5 SHL DUP2 MSTORE PUSH1 0x4 ADD DUP1 DUP1 PUSH1 0x20 ADD DUP3 DUP2 SUB DUP3 MSTORE PUSH1 0x47 DUP2 MSTORE PUSH1 0x20 ADD DUP1 PUSH2 0xE54 PUSH1 0x47 SWAP2 CODECOPY PUSH1 0x60 ADD SWAP2 POP POP PUSH1 0x40 MLOAD DUP1 SWAP2 SUB SWAP1 REVERT JUMPDEST PUSH1 0x0 DUP5 GT PUSH2 0x7CC JUMPI PUSH1 0x0 DUP1 REVERT JUMPDEST PUSH1 0x0 DUP4 GT PUSH2 0x7D9 JUMPI PUSH1 0x0 DUP1 REVERT JUMPDEST PUSH1 0x0 DUP3 GT PUSH2 0x818 JUMPI PUSH1 0x40 MLOAD PUSH3 0x461BCD PUSH1 0xE5 SHL DUP2 MSTORE PUSH1 0x4 ADD DUP1 DUP1 PUSH1 0x20 ADD DUP3 DUP2 SUB DUP3 MSTORE PUSH1 0x31 DUP2 MSTORE PUSH1 0x20 ADD DUP1 PUSH2 0xEED PUSH1 0x31 SWAP2 CODECOPY PUSH1 0x40 ADD SWAP2 POP POP PUSH1 0x40 MLOAD DUP1 SWAP2 SUB SWAP1 REVERT JUMPDEST PUSH1 0x2 SLOAD PUSH1 0x40 DUP1 MLOAD PUSH4 0x70A08231 PUSH1 0xE0 SHL DUP2 MSTORE PUSH1 0x1 PUSH1 0x1 PUSH1 0xA0 SHL SUB DUP10 DUP2 AND PUSH1 0x4 DUP4 ADD MSTORE SWAP2 MLOAD DUP7 DUP9 ADD SWAP4 SWAP3 SWAP1 SWAP3 AND SWAP2 PUSH4 0x70A08231 SWAP2 PUSH1 0x24 DUP1 DUP3 ADD SWAP3 PUSH1 0x20 SWAP3 SWAP1 SWAP2 SWAP1 DUP3 SWAP1 SUB ADD DUP2 DUP7 DUP1 EXTCODESIZE ISZERO DUP1 ISZERO PUSH2 0x86A JUMPI PUSH1 0x0 DUP1 REVERT JUMPDEST POP GAS STATICCALL ISZERO DUP1 ISZERO PUSH2 0x87E JUMPI RETURNDATASIZE PUSH1 0x0 DUP1 RETURNDATACOPY RETURNDATASIZE PUSH1 0x0 REVERT JUMPDEST POP POP POP POP PUSH1 0x40 MLOAD RETURNDATASIZE PUSH1 0x20 DUP2 LT ISZERO PUSH2 0x894 JUMPI PUSH1 0x0 DUP1 REVERT JUMPDEST POP MLOAD LT ISZERO PUSH2 0x8A1 JUMPI PUSH1 0x0 DUP1 REVERT JUMPDEST PUSH1 0x2 SLOAD PUSH1 0x40 DUP1 MLOAD PUSH4 0x6EB1769F PUSH1 0xE1 SHL DUP2 MSTORE PUSH1 0x1 PUSH1 0x1 PUSH1 0xA0 SHL SUB DUP10 DUP2 AND PUSH1 0x4 DUP4 ADD MSTORE ADDRESS PUSH1 0x24 DUP4 ADD MSTORE SWAP2 MLOAD DUP7 SWAP4 SWAP3 SWAP1 SWAP3 AND SWAP2 PUSH4 0xDD62ED3E SWAP2 PUSH1 0x44 DUP1 DUP3 ADD SWAP3 PUSH1 0x20 SWAP3 SWAP1 SWAP2 SWAP1 DUP3 SWAP1 SUB ADD DUP2 DUP7 DUP1 EXTCODESIZE ISZERO DUP1 ISZERO PUSH2 0x8F7 JUMPI PUSH1 0x0 DUP1 REVERT JUMPDEST POP GAS STATICCALL ISZERO DUP1 ISZERO PUSH2 0x90B JUMPI RETURNDATASIZE PUSH1 0x0 DUP1 RETURNDATACOPY RETURNDATASIZE PUSH1 0x0 REVERT JUMPDEST POP POP POP POP PUSH1 0x40 MLOAD RETURNDATASIZE PUSH1 0x20 DUP2 LT ISZERO PUSH2 0x921 JUMPI PUSH1 0x0 DUP1 REVERT JUMPDEST POP MLOAD LT ISZERO PUSH2 0x92E JUMPI PUSH1 0x0 DUP1 REVERT JUMPDEST PUSH1 0x0 DUP6 DUP2 MSTORE PUSH1 0x20 DUP2 SWAP1 MSTORE PUSH1 0x40 SWAP1 KECCAK256 DUP1 SLOAD CALLER PUSH1 0x1 PUSH1 0x1 PUSH1 0xA0 SHL SUB NOT SWAP2 DUP3 AND OR DUP3 SSTORE PUSH1 0x1 DUP1 DUP4 ADD DUP1 SLOAD SWAP1 SWAP3 AND PUSH1 0x1 PUSH1 0x1 PUSH1 0xA0 SHL SUB DUP11 AND OR SWAP1 SWAP2 SSTORE PUSH1 0x2 DUP3 ADD DUP6 SWAP1 SSTORE PUSH1 0x3 DUP3 ADD DUP7 SWAP1 SSTORE PUSH3 0x15180 DUP5 MUL TIMESTAMP ADD PUSH1 0x4 DUP4 ADD SSTORE PUSH1 0x5 SWAP1 SWAP2 ADD DUP1 SLOAD PUSH1 0xFF NOT AND DUP3 DUP1 MUL OR SWAP1 SSTORE POP PUSH1 0x1 SLOAD PUSH1 0x40 DUP1 MLOAD PUSH4 0x5CA3BFB PUSH1 0xE3 SHL DUP2 MSTORE CALLER PUSH1 0x4 DUP3 ADD MSTORE ADDRESS PUSH1 0x24 DUP3 ADD MSTORE PUSH1 0x44 DUP2 ADD DUP9 SWAP1 MSTORE SWAP1 MLOAD DUP7 SWAP3 PUSH1 0x1 PUSH1 0x1 PUSH1 0xA0 SHL SUB AND SWAP2 PUSH4 0x2E51DFD8 SWAP2 PUSH1 0x64 DUP1 DUP4 ADD SWAP3 PUSH1 0x20 SWAP3 SWAP2 SWAP1 DUP3 SWAP1 SUB ADD DUP2 DUP7 DUP1 EXTCODESIZE ISZERO DUP1 ISZERO PUSH2 0x9EA JUMPI PUSH1 0x0 DUP1 REVERT JUMPDEST POP GAS STATICCALL ISZERO DUP1 ISZERO PUSH2 0x9FE JUMPI RETURNDATASIZE PUSH1 0x0 DUP1 RETURNDATACOPY RETURNDATASIZE PUSH1 0x0 REVERT JUMPDEST POP POP POP POP PUSH1 0x40 MLOAD RETURNDATASIZE PUSH1 0x20 DUP2 LT ISZERO PUSH2 0xA14 JUMPI PUSH1 0x0 DUP1 REVERT JUMPDEST POP MLOAD LT ISZERO PUSH2 0xA53 JUMPI PUSH1 0x40 MLOAD PUSH3 0x461BCD PUSH1 0xE5 SHL DUP2 MSTORE PUSH1 0x4 ADD DUP1 DUP1 PUSH1 0x20 ADD DUP3 DUP2 SUB DUP3 MSTORE PUSH1 0x5C DUP2 MSTORE PUSH1 0x20 ADD DUP1 PUSH2 0xF6F PUSH1 0x5C SWAP2 CODECOPY PUSH1 0x60 ADD SWAP2 POP POP PUSH1 0x40 MLOAD DUP1 SWAP2 SUB SWAP1 REVERT JUMPDEST PUSH1 0x1 SLOAD PUSH1 0x40 DUP1 MLOAD PUSH4 0x68AA16FF PUSH1 0xE0 SHL DUP2 MSTORE PUSH1 0x1 PUSH1 0x1 PUSH1 0xA0 SHL SUB DUP10 DUP2 AND PUSH1 0x4 DUP4 ADD MSTORE PUSH1 0x24 DUP3 ADD DUP10 SWAP1 MSTORE TIMESTAMP PUSH3 0x15180 DUP8 MUL ADD PUSH1 0x44 DUP4 ADD DUP2 SWAP1 MSTORE PUSH1 0x64 DUP4 ADD DUP10 SWAP1 MSTORE SWAP3 MLOAD SWAP3 SWAP4 AND SWAP2 PUSH4 0x68AA16FF SWAP2 PUSH1 0x84 DUP1 DUP3 ADD SWAP3 PUSH1 0x20 SWAP3 SWAP1 SWAP2 SWAP1 DUP3 SWAP1 SUB ADD DUP2 PUSH1 0x0 DUP8 DUP1 EXTCODESIZE ISZERO DUP1 ISZERO PUSH2 0xABF JUMPI PUSH1 0x0 DUP1 REVERT JUMPDEST POP GAS CALL ISZERO DUP1 ISZERO PUSH2 0xAD3 JUMPI RETURNDATASIZE PUSH1 0x0 DUP1 RETURNDATACOPY RETURNDATASIZE PUSH1 0x0 REVERT JUMPDEST POP POP POP POP PUSH1 0x40 MLOAD RETURNDATASIZE PUSH1 0x20 DUP2 LT ISZERO PUSH2 0xAE9 JUMPI PUSH1 0x0 DUP1 REVERT JUMPDEST POP POP PUSH1 0x2 SLOAD PUSH1 0x40 DUP1 MLOAD PUSH4 0x23B872DD PUSH1 0xE0 SHL DUP2 MSTORE PUSH1 0x1 PUSH1 0x1 PUSH1 0xA0 SHL SUB DUP11 DUP2 AND PUSH1 0x4 DUP4 ADD MSTORE CALLER PUSH1 0x24 DUP4 ADD MSTORE PUSH1 0x44 DUP3 ADD DUP9 SWAP1 MSTORE SWAP2 MLOAD SWAP2 SWAP1 SWAP3 AND SWAP2 PUSH4 0x23B872DD SWAP2 PUSH1 0x64 DUP1 DUP4 ADD SWAP3 PUSH1 0x20 SWAP3 SWAP2 SWAP1 DUP3 SWAP1 SUB ADD DUP2 PUSH1 0x0 DUP8 DUP1 EXTCODESIZE ISZERO DUP1 ISZERO PUSH2 0xB47 JUMPI PUSH1 0x0 DUP1 REVERT JUMPDEST POP GAS CALL ISZERO DUP1 ISZERO PUSH2 0xB5B JUMPI RETURNDATASIZE PUSH1 0x0 DUP1 RETURNDATACOPY RETURNDATASIZE PUSH1 0x0 REVERT JUMPDEST POP POP POP POP PUSH1 0x40 MLOAD RETURNDATASIZE PUSH1 0x20 DUP2 LT ISZERO PUSH2 0xB71 JUMPI PUSH1 0x0 DUP1 REVERT JUMPDEST POP POP PUSH1 0x40 DUP1 MLOAD ADDRESS DUP2 MSTORE PUSH1 0x20 DUP2 ADD DUP9 SWAP1 MSTORE DUP1 DUP3 ADD DUP8 SWAP1 MSTORE PUSH1 0x60 DUP2 ADD DUP7 SWAP1 MSTORE PUSH1 0x80 DUP2 ADD DUP4 SWAP1 MSTORE SWAP1 MLOAD PUSH1 0x1 PUSH1 0x1 PUSH1 0xA0 SHL SUB DUP10 AND SWAP2 CALLER SWAP2 PUSH32 0xD2B44AEB51C25F153082768C524FB7002726EA22630322EF25E116D2A0BDAD81 SWAP2 DUP2 SWAP1 SUB PUSH1 0xA0 ADD SWAP1 LOG3 POP PUSH1 0x1 SWAP7 SWAP6 POP POP POP POP POP POP JUMP JUMPDEST PUSH1 0x0 PUSH1 0x20 DUP2 SWAP1 MSTORE SWAP1 DUP2 MSTORE PUSH1 0x40 SWAP1 KECCAK256 DUP1 SLOAD PUSH1 0x1 DUP3 ADD SLOAD PUSH1 0x2 DUP4 ADD SLOAD PUSH1 0x3 DUP5 ADD SLOAD PUSH1 0x4 DUP6 ADD SLOAD PUSH1 0x5 SWAP1 SWAP6 ADD SLOAD PUSH1 0x1 PUSH1 0x1 PUSH1 0xA0 SHL SUB SWAP5 DUP6 AND SWAP6 SWAP4 SWAP1 SWAP5 AND SWAP4 SWAP2 SWAP3 SWAP1 SWAP2 PUSH1 0xFF AND DUP7 JUMP JUMPDEST PUSH1 0x0 DUP2 DUP2 MSTORE PUSH1 0x20 DUP2 SWAP1 MSTORE PUSH1 0x40 DUP2 KECCAK256 PUSH1 0x1 ADD SLOAD PUSH1 0x1 PUSH1 0x1 PUSH1 0xA0 SHL SUB AND CALLER EQ PUSH2 0xC46 JUMPI PUSH1 0x0 DUP1 REVERT JUMPDEST PUSH1 0x0 DUP3 DUP2 MSTORE PUSH1 0x20 DUP2 SWAP1 MSTORE PUSH1 0x40 SWAP1 KECCAK256 PUSH1 0x4 ADD SLOAD TIMESTAMP GT ISZERO PUSH2 0xC64 JUMPI PUSH1 0x0 DUP1 REVERT JUMPDEST PUSH1 0x1 PUSH1 0x0 DUP4 DUP2 MSTORE PUSH1 0x20 DUP2 SWAP1 MSTORE PUSH1 0x40 SWAP1 KECCAK256 PUSH1 0x5 ADD SLOAD PUSH1 0xFF AND PUSH1 0x2 DUP2 GT ISZERO PUSH2 0xC86 JUMPI INVALID JUMPDEST EQ PUSH2 0xC90 JUMPI PUSH1 0x0 DUP1 REVERT JUMPDEST PUSH1 0x1 SLOAD PUSH1 0x40 DUP1 MLOAD PUSH4 0x76C657C9 PUSH1 0xE0 SHL DUP2 MSTORE PUSH1 0x4 DUP2 ADD DUP6 SWAP1 MSTORE SWAP1 MLOAD PUSH1 0x1 PUSH1 0x1 PUSH1 0xA0 SHL SUB SWAP1 SWAP3 AND SWAP2 PUSH4 0x76C657C9 SWAP2 PUSH1 0x24 DUP1 DUP3 ADD SWAP3 PUSH1 0x20 SWAP3 SWAP1 SWAP2 SWAP1 DUP3 SWAP1 SUB ADD DUP2 DUP7 DUP1 EXTCODESIZE ISZERO DUP1 ISZERO PUSH2 0xCDC JUMPI PUSH1 0x0 DUP1 REVERT JUMPDEST POP GAS STATICCALL ISZERO DUP1 ISZERO PUSH2 0xCF0 JUMPI RETURNDATASIZE PUSH1 0x0 DUP1 RETURNDATACOPY RETURNDATASIZE PUSH1 0x0 REVERT JUMPDEST POP POP POP POP PUSH1 0x40 MLOAD RETURNDATASIZE PUSH1 0x20 DUP2 LT ISZERO PUSH2 0xD06 JUMPI PUSH1 0x0 DUP1 REVERT JUMPDEST POP MLOAD PUSH1 0x1 EQ PUSH2 0xD46 JUMPI PUSH1 0x40 MLOAD PUSH3 0x461BCD PUSH1 0xE5 SHL DUP2 MSTORE PUSH1 0x4 ADD DUP1 DUP1 PUSH1 0x20 ADD DUP3 DUP2 SUB DUP3 MSTORE PUSH1 0x52 DUP2 MSTORE PUSH1 0x20 ADD DUP1 PUSH2 0xE9B PUSH1 0x52 SWAP2 CODECOPY PUSH1 0x60 ADD SWAP2 POP POP PUSH1 0x40 MLOAD DUP1 SWAP2 SUB SWAP1 REVERT JUMPDEST PUSH1 0x1 SLOAD PUSH1 0x40 DUP1 MLOAD PUSH4 0xF90D7717 PUSH1 0xE0 SHL DUP2 MSTORE PUSH1 0x4 DUP2 ADD DUP6 SWAP1 MSTORE SWAP1 MLOAD PUSH1 0x1 PUSH1 0x1 PUSH1 0xA0 SHL SUB SWAP1 SWAP3 AND SWAP2 PUSH4 0xF90D7717 SWAP2 PUSH1 0x24 DUP1 DUP3 ADD SWAP3 PUSH1 0x20 SWAP3 SWAP1 SWAP2 SWAP1 DUP3 SWAP1 SUB ADD DUP2 PUSH1 0x0 DUP8 DUP1 EXTCODESIZE ISZERO DUP1 ISZERO PUSH2 0x26B JUMPI PUSH1 0x0 DUP1 REVERT JUMPDEST PUSH1 0x2 SLOAD PUSH1 0x1 PUSH1 0x1 PUSH1 0xA0 SHL SUB AND DUP2 JUMP JUMPDEST PUSH1 0x1 SLOAD PUSH1 0x40 DUP1 MLOAD PUSH4 0xCA1A35CF PUSH1 0xE0 SHL DUP2 MSTORE SWAP1 MLOAD PUSH1 0x0 SWAP3 PUSH1 0x1 PUSH1 0x1 PUSH1 0xA0 SHL SUB AND SWAP2 PUSH4 0xCA1A35CF SWAP2 PUSH1 0x4 DUP1 DUP4 ADD SWAP3 PUSH1 0x20 SWAP3 SWAP2 SWAP1 DUP3 SWAP1 SUB ADD DUP2 DUP8 DUP8 DUP1 EXTCODESIZE ISZERO DUP1 ISZERO PUSH2 0xDE9 JUMPI PUSH1 0x0 DUP1 REVERT JUMPDEST POP GAS CALL ISZERO DUP1 ISZERO PUSH2 0xDFD JUMPI RETURNDATASIZE PUSH1 0x0 DUP1 RETURNDATACOPY RETURNDATASIZE PUSH1 0x0 REVERT JUMPDEST POP POP POP POP PUSH1 0x40 MLOAD RETURNDATASIZE PUSH1 0x20 DUP2 LT ISZERO PUSH2 0xE13 JUMPI PUSH1 0x0 DUP1 REVERT JUMPDEST POP MLOAD SWAP1 POP SWAP1 JUMP JUMPDEST PUSH1 0x1 SLOAD PUSH1 0x1 PUSH1 0x1 PUSH1 0xA0 SHL SUB AND DUP2 JUMP INVALID MSTORE8 PUSH6 0x756C206C6520 PUSH17 0x726F6D657474616E74207065757420696E PUSH10 0x7469657220756E65206F PUSH17 0x74696F6E6C6120706172746974696F6E20 PUSH4 0x69626C65 KECCAK256 PUSH5 0x65206C276F PUSH17 0x74696F6E20646F697420C383C2AA747265 KECCAK256 PUSH2 0x6374 PUSH10 0x7665202D205354415455 MSTORE8 0x5F COINBASE NUMBER SLOAD 0x49 JUMP GASLIMIT KECCAK256 PUSH10 0x7320306C612070617274 PUSH10 0x74696F6E206369626C65 KECCAK256 PUSH5 0x65206C276F PUSH17 0x74696F6E20646F697420C383C2AA747265 KECCAK256 PUSH6 0x6E2073C383C2 0xA9 PUSH18 0x756573747265202D205354415455535F434F 0x4E CHAINID 0x49 0x4E GASLIMIT DIFFICULTY KECCAK256 PUSH10 0x7320316C6120647572C3 DUP4 0xC2 0xA9 PUSH6 0x206427756E65 KECCAK256 PUSH16 0x7074696F6E206573742065787072696D 0xC3 DUP4 0xC2 0xA9 PUSH6 0x20656E206A6F PUSH22 0x7273556E6520706172746974696F6E207065757420C3 DUP4 0xC2 0xAA PUSH21 0x7265206C276F626A657420646520706C7573696575 PUSH19 0x73206F7074696F6E73206D6169732070617320 PUSH20 0x696D756C74616EC383C2A96D656E746C6520636F PUSH15 0x74726163742064652073C383C2A971 PUSH22 0x657374726520646F697420C383C2AA74726520617574 PUSH16 0x726973C383C2A920C383C2A0206D6F64 PUSH10 0x66696572206C65207374 PUSH2 0x7475 PUSH20 0x206465206C6120706172746974696F6EA2646970 PUSH7 0x7358221220FFC6 0x27 ADDRESS RETURNDATACOPY 0xAB EXTCODECOPY MSIZE PUSH13 0xF18C5E9CC67CCF915BEFB111D5 EXTCODEHASH OR LOG1 0x4E MSTORE LOG1 SHR SWAP14 0x4B PUSH1 0x64 PUSH20 0x6F6C634300060C00330000000000000000000000 ",
  "sha1": "8d82f3e6e278c8ff99c09b59b759a82ebf39ed72",
  "source": "pragma solidity ^0.6.0;\n\nimport \"interfaces/my_IERC20.sol\";\nimport \"interfaces/my_IERC1400.sol\";\n\ncontract clauseOption {\n\n\t// dÃ©claration des diffÃ©rents Ã©tats d'une option\n\tenum optionStates {\n\t\tSTATUS_UNUSED,  // par dÃ©faut : 0\n\t\tSTATUS_PENDING,  \n\t\tSTATUS_CLOSED \n\t}\n\n\t// Represents an option parameters\n    struct OptionRight {\n\t\taddress promisor;\n\t\taddress recipient;\n        uint256 priceOption;\n\t\tuint256 priceExercise;\n\t\tuint256 expirationDate;\n\t\toptionStates status;\n    }\n\n    // Mapping from partition UID to Option\n    mapping ( uint256 => OptionRight) public options;\n\n\tIERC1400 public tokenStock;   // token qui reprÃ©sente la partition (ERC1410)\n\tIERC20 public tokenPayment;   // token qui reprÃ©sente le coin (ERC20)\n\n\t//address public recipient;     // le bÃ©nÃ©ficiaire (buyer)\n\t//address public promisor;  // le promettant (seller)\n\t//uint256 public priceExercise;  // prix de l'exercice (au moins la valeur de la partition)\n\t//uint256 public priceOption;    // prix Ã  payer par le bÃ©nÃ©ficiaire pour le droit d'option\n\t//uint256 public expirationDate; // date aprÃ¨s laquelle le bÃ©nÃ©ficiaire ne peut plus exercer son droit d'option\n\n\t \n\tconstructor(address _tokenStockAddress, address _tokenPaymentAddress) public {\n\t    require(_tokenStockAddress != address(0));\n\t\trequire(_tokenPaymentAddress != address(0));\n\n\t\ttokenStock = IERC1400(_tokenStockAddress);\n\t\ttokenPayment = IERC20(_tokenPaymentAddress);\n\t}\n\n\n\t//------------------------------------------------------------\n\t// Option right events\n\t//------------------------------------------------------------\n\n\tevent StartOption(address indexed _promisor, address indexed _recipient, address escrow, uint256 _partitionUid, uint256 _priceExercise, uint256 _priceOption, uint256 _expirationDate);\n\t//event Opened(address indexed _recipient, uint256 _priceOption);\n\t//event Closed(address indexed _promisor, uint256 _amountPayment);\n\n\n\t//------------------------------------------------------------\n\t// Option right functions\n\t//------------------------------------------------------------\n\n\t// The promisor initiate the Option Exercise on a partition he owns\n\n\tfunction startOption(address recipient, uint256 partitionUid, uint256 priceExercise, uint256 priceOption, uint256 duration) public returns (bool){\n\t\trequire(options[partitionUid].status != optionStates.STATUS_PENDING, \"Une partition peut Ãªtre l'objet de plusieurs options mais pas simultanÃ©ment\");\n\t\trequire(tokenStock.getPartitionOwner(partitionUid) == msg.sender, \"Seul le promettant peut initier une option\");\n\t\trequire(tokenStock.getPartitionStatus(partitionUid) == 0, \"la partition cible de l'option doit Ãªtre active - STATUS_ACTIVE is 0\");\n\t\trequire(priceExercise > 0);\n\t\trequire(priceOption > 0);\n\t\trequire(duration > 0, \"la durÃ©e d'une option est exprimÃ©e en jours\");\n\t\trequire(tokenPayment.balanceOf(recipient) >= priceOption + priceExercise);\n\t\trequire(tokenPayment.allowance(recipient, address(this)) >= priceOption);\n\n\t\toptions[partitionUid].promisor = msg.sender;\n\t\toptions[partitionUid].recipient = recipient;\n        options[partitionUid].priceOption = priceOption;\n\t\toptions[partitionUid].priceExercise = priceExercise;\n\t\toptions[partitionUid].expirationDate = now + duration * 1 days;\n\t\toptions[partitionUid].status = optionStates.STATUS_PENDING;\n\n\t\t// promisor send previously a transaction to ERC1400 to approve EscrowAccount on partitionUid for priceExercice\n\t\trequire(tokenStock.allowanceEscrow(msg.sender, address(this), partitionUid) >= priceExercise, \"le contract de sÃ©questre doit Ãªtre autorisÃ© Ã  modifier le status de la partition\");\n\n\t\t// Transfer partitions[partitionUid].owner vers sequestre (address(this)) sur contract ERC1400\n\t\t// changement status partition en CONFINED (pas de chgt de owner)\n\t\t// mise Ã  jour de la variable mapping escrows (fait sur le contract ERC1400)\t\n\t\tuint256 endDate = now + duration * 1 days;\n\t\t//tokenStock.confinePartition(msg.sender, recipient, partitionUid, endDate, priceExercise);\n\t\t// the promisor is the origin (msg.sender) of the transactions call\n\t\ttokenStock.confinePartition(recipient, partitionUid, endDate, priceExercise);\n\n\t\t// Transfer du priceOption sur le contract ERC20\n\t\ttokenPayment.transferFrom(recipient, msg.sender, priceOption);\n\t\t// recipient doit avoir mis une allowance auparavant et avoir une balanceOf > priceOption\n\n\t\temit StartOption(msg.sender, recipient, address(this), partitionUid, priceExercise, priceOption, endDate);\n\t\treturn true;\n\t}\n\n\n\t// The recipient accepts during the option exercice duration\n\n\tfunction recipientAccept(uint256 partitionUid) public returns (bool){\n\t\trequire(msg.sender == options[partitionUid].recipient);\n\t\trequire(tokenPayment.balanceOf(msg.sender) >= options[partitionUid].priceExercise);\n\t\trequire(now <= options[partitionUid].expirationDate);\n\t\trequire(options[partitionUid].status == optionStates.STATUS_PENDING);\n\t\trequire(tokenStock.getPartitionStatus(partitionUid) == 1, \"la partition cible de l'option doit Ãªtre en sÃ©questre - STATUS_CONFINED is 1\");\n\n\t\t// Transfer de la partition au coÃ»t de priceExercise\n\t\trequire(tokenStock.allowanceEscrow(options[partitionUid].promisor, address(this), partitionUid) >= options[partitionUid].priceExercise);\n\t\t// the recipient is the origin (msg.sender) of the transactions call\n\t\ttokenStock.escrowTransfer(options[partitionUid].promisor, options[partitionUid].priceExercise, partitionUid);\n\n\t\t//tokenStock.stopOptionExercise(partitionUid);\n\t\trequire(tokenStock.stopOptionByRecipient(partitionUid));\n\t\toptions[partitionUid].status = optionStates.STATUS_CLOSED;\n\t\treturn true;\n\t}\n\n\n\t// The recipient denies during the option exercice duration\n\n\tfunction recipientDeny(uint256 partitionUid) public returns (bool){\n\t\trequire(msg.sender == options[partitionUid].recipient);\n\t\trequire(now <= options[partitionUid].expirationDate);\n\t\trequire(options[partitionUid].status == optionStates.STATUS_PENDING);\n\t\trequire(tokenStock.getPartitionStatus(partitionUid) == 1, \"la partition cible de l'option doit Ãªtre en sÃ©questre - STATUS_CONFINED is 1\");\n\n\t\t// levÃ©e du sÃ©questre de la partition\n\t\trequire(tokenStock.stopOptionByRecipient(partitionUid));\n\t\toptions[partitionUid].status = optionStates.STATUS_CLOSED;\n\t\treturn true;\n\t}\n\n\n\t// The promisor stop the option exercice after the expiration date\n\n\tfunction stopOption(uint256 partitionUid) public returns (bool){\n\t\trequire(msg.sender == options[partitionUid].promisor);\n\t\trequire(now > options[partitionUid].expirationDate);\n\n\t\trequire(tokenStock.stopOptionByPromisor(partitionUid));\n\t\toptions[partitionUid].status = optionStates.STATUS_CLOSED;\n\t\treturn true;\n\t}\n\n\t// Help to debug\n\tfunction isOrigin() public returns (address){\n\t\treturn tokenStock.whoIsOrigin();\n\t}\n}\n\n",
  "sourcePath": "contracts/clause_option.sol",
  "type": "contract"
}