{
  "abi": [
    {
      "inputs": [
        {
          "internalType": "address",
          "name": "_tokenContractAddress",
          "type": "address"
        },
        {
          "internalType": "bool",
          "name": "_isControl",
          "type": "bool"
        }
      ],
      "stateMutability": "nonpayable",
      "type": "constructor"
    },
    {
      "anonymous": false,
      "inputs": [
        {
          "indexed": false,
          "internalType": "address",
          "name": "owner",
          "type": "address"
        },
        {
          "indexed": false,
          "internalType": "address",
          "name": "escrow",
          "type": "address"
        },
        {
          "indexed": false,
          "internalType": "uint256",
          "name": "partitionUid",
          "type": "uint256"
        },
        {
          "indexed": false,
          "internalType": "uint256",
          "name": "price",
          "type": "uint256"
        }
      ],
      "name": "ApprovalEscrow",
      "type": "event"
    },
    {
      "anonymous": false,
      "inputs": [
        {
          "indexed": false,
          "internalType": "address",
          "name": "controller",
          "type": "address"
        },
        {
          "indexed": true,
          "internalType": "address",
          "name": "seller",
          "type": "address"
        },
        {
          "indexed": false,
          "internalType": "uint256",
          "name": "price",
          "type": "uint256"
        },
        {
          "indexed": false,
          "internalType": "uint256",
          "name": "partitionUid",
          "type": "uint256"
        }
      ],
      "name": "ControllerRedemption",
      "type": "event"
    },
    {
      "anonymous": false,
      "inputs": [
        {
          "indexed": false,
          "internalType": "address",
          "name": "controller",
          "type": "address"
        },
        {
          "indexed": true,
          "internalType": "address",
          "name": "seller",
          "type": "address"
        },
        {
          "indexed": true,
          "internalType": "address",
          "name": "receiver",
          "type": "address"
        },
        {
          "indexed": false,
          "internalType": "uint256",
          "name": "price",
          "type": "uint256"
        },
        {
          "indexed": false,
          "internalType": "uint256",
          "name": "partitionUid",
          "type": "uint256"
        }
      ],
      "name": "ControllerTransfer",
      "type": "event"
    },
    {
      "anonymous": false,
      "inputs": [
        {
          "indexed": false,
          "internalType": "address",
          "name": "escrow",
          "type": "address"
        },
        {
          "indexed": false,
          "internalType": "address",
          "name": "seller",
          "type": "address"
        },
        {
          "indexed": false,
          "internalType": "address",
          "name": "recipient",
          "type": "address"
        },
        {
          "indexed": false,
          "internalType": "uint256",
          "name": "price",
          "type": "uint256"
        },
        {
          "indexed": false,
          "internalType": "uint256",
          "name": "partitionUid",
          "type": "uint256"
        }
      ],
      "name": "EscrowExplicitTransfer",
      "type": "event"
    },
    {
      "anonymous": false,
      "inputs": [
        {
          "indexed": false,
          "internalType": "address",
          "name": "escrow",
          "type": "address"
        },
        {
          "indexed": false,
          "internalType": "address",
          "name": "seller",
          "type": "address"
        },
        {
          "indexed": false,
          "internalType": "address",
          "name": "receiver",
          "type": "address"
        },
        {
          "indexed": false,
          "internalType": "uint256",
          "name": "price",
          "type": "uint256"
        },
        {
          "indexed": false,
          "internalType": "uint256",
          "name": "partitionUid",
          "type": "uint256"
        }
      ],
      "name": "EscrowTransfer",
      "type": "event"
    },
    {
      "anonymous": false,
      "inputs": [
        {
          "indexed": false,
          "internalType": "uint256",
          "name": "partitionUid",
          "type": "uint256"
        },
        {
          "indexed": false,
          "internalType": "address",
          "name": "sender",
          "type": "address"
        },
        {
          "indexed": false,
          "internalType": "address",
          "name": "receiver",
          "type": "address"
        },
        {
          "indexed": false,
          "internalType": "uint256",
          "name": "price",
          "type": "uint256"
        }
      ],
      "name": "TransferByPartition",
      "type": "event"
    },
    {
      "inputs": [
        {
          "internalType": "address",
          "name": "owner",
          "type": "address"
        },
        {
          "internalType": "address",
          "name": "escrow",
          "type": "address"
        },
        {
          "internalType": "uint256",
          "name": "partitionUid",
          "type": "uint256"
        }
      ],
      "name": "allowanceEscrow",
      "outputs": [
        {
          "internalType": "uint256",
          "name": "",
          "type": "uint256"
        }
      ],
      "stateMutability": "nonpayable",
      "type": "function"
    },
    {
      "inputs": [
        {
          "internalType": "address",
          "name": "escrow",
          "type": "address"
        },
        {
          "internalType": "uint256",
          "name": "partitionUid",
          "type": "uint256"
        },
        {
          "internalType": "uint256",
          "name": "price",
          "type": "uint256"
        }
      ],
      "name": "approveEscrow",
      "outputs": [
        {
          "internalType": "bool",
          "name": "",
          "type": "bool"
        }
      ],
      "stateMutability": "nonpayable",
      "type": "function"
    },
    {
      "inputs": [
        {
          "internalType": "uint256",
          "name": "partitionUid",
          "type": "uint256"
        }
      ],
      "name": "balanceByPartition",
      "outputs": [
        {
          "internalType": "uint256",
          "name": "",
          "type": "uint256"
        }
      ],
      "stateMutability": "view",
      "type": "function"
    },
    {
      "inputs": [
        {
          "internalType": "address",
          "name": "owner",
          "type": "address"
        }
      ],
      "name": "balanceOf",
      "outputs": [
        {
          "internalType": "uint256",
          "name": "",
          "type": "uint256"
        }
      ],
      "stateMutability": "view",
      "type": "function"
    },
    {
      "inputs": [
        {
          "internalType": "uint256",
          "name": "partitionUid",
          "type": "uint256"
        },
        {
          "internalType": "uint256",
          "name": "amount",
          "type": "uint256"
        }
      ],
      "name": "buyPartition",
      "outputs": [],
      "stateMutability": "nonpayable",
      "type": "function"
    },
    {
      "inputs": [
        {
          "internalType": "address",
          "name": "recipient",
          "type": "address"
        },
        {
          "internalType": "uint256",
          "name": "partitionUid",
          "type": "uint256"
        },
        {
          "internalType": "uint256",
          "name": "expirationDate",
          "type": "uint256"
        },
        {
          "internalType": "uint256",
          "name": "priceExercise",
          "type": "uint256"
        }
      ],
      "name": "confinePartition",
      "outputs": [
        {
          "internalType": "bool",
          "name": "",
          "type": "bool"
        }
      ],
      "stateMutability": "nonpayable",
      "type": "function"
    },
    {
      "inputs": [
        {
          "internalType": "uint256",
          "name": "",
          "type": "uint256"
        }
      ],
      "name": "confined",
      "outputs": [
        {
          "internalType": "address",
          "name": "escrow",
          "type": "address"
        },
        {
          "internalType": "uint256",
          "name": "expirationDate",
          "type": "uint256"
        },
        {
          "internalType": "uint256",
          "name": "priceExercise",
          "type": "uint256"
        },
        {
          "internalType": "address",
          "name": "recipient",
          "type": "address"
        }
      ],
      "stateMutability": "view",
      "type": "function"
    },
    {
      "inputs": [
        {
          "internalType": "address",
          "name": "seller",
          "type": "address"
        },
        {
          "internalType": "uint256",
          "name": "partitionUid",
          "type": "uint256"
        }
      ],
      "name": "controllerRedeem",
      "outputs": [],
      "stateMutability": "nonpayable",
      "type": "function"
    },
    {
      "inputs": [
        {
          "internalType": "address",
          "name": "seller",
          "type": "address"
        },
        {
          "internalType": "address",
          "name": "receiver",
          "type": "address"
        },
        {
          "internalType": "uint256",
          "name": "partitionUid",
          "type": "uint256"
        }
      ],
      "name": "controllerTransfer",
      "outputs": [],
      "stateMutability": "nonpayable",
      "type": "function"
    },
    {
      "inputs": [
        {
          "internalType": "address",
          "name": "recipient",
          "type": "address"
        },
        {
          "internalType": "uint256",
          "name": "partitionUid",
          "type": "uint256"
        }
      ],
      "name": "deconfinePartition",
      "outputs": [
        {
          "internalType": "bool",
          "name": "",
          "type": "bool"
        }
      ],
      "stateMutability": "nonpayable",
      "type": "function"
    },
    {
      "inputs": [
        {
          "internalType": "address",
          "name": "seller",
          "type": "address"
        },
        {
          "internalType": "address",
          "name": "recipient",
          "type": "address"
        },
        {
          "internalType": "uint256",
          "name": "price",
          "type": "uint256"
        },
        {
          "internalType": "uint256",
          "name": "partitionUid",
          "type": "uint256"
        }
      ],
      "name": "escrowExplicitTransfer",
      "outputs": [],
      "stateMutability": "nonpayable",
      "type": "function"
    },
    {
      "inputs": [
        {
          "internalType": "address",
          "name": "seller",
          "type": "address"
        },
        {
          "internalType": "uint256",
          "name": "price",
          "type": "uint256"
        },
        {
          "internalType": "uint256",
          "name": "partitionUid",
          "type": "uint256"
        }
      ],
      "name": "escrowTransfer",
      "outputs": [],
      "stateMutability": "nonpayable",
      "type": "function"
    },
    {
      "inputs": [
        {
          "internalType": "address",
          "name": "user",
          "type": "address"
        }
      ],
      "name": "getHolderNbuid",
      "outputs": [
        {
          "internalType": "uint256",
          "name": "",
          "type": "uint256"
        }
      ],
      "stateMutability": "view",
      "type": "function"
    },
    {
      "inputs": [
        {
          "internalType": "uint256",
          "name": "partitionUid",
          "type": "uint256"
        }
      ],
      "name": "getPartitionAmount",
      "outputs": [
        {
          "internalType": "uint256",
          "name": "",
          "type": "uint256"
        }
      ],
      "stateMutability": "view",
      "type": "function"
    },
    {
      "inputs": [
        {
          "internalType": "uint256",
          "name": "partitionUid",
          "type": "uint256"
        }
      ],
      "name": "getPartitionOwner",
      "outputs": [
        {
          "internalType": "address",
          "name": "",
          "type": "address"
        }
      ],
      "stateMutability": "view",
      "type": "function"
    },
    {
      "inputs": [
        {
          "internalType": "uint256",
          "name": "partitionUid",
          "type": "uint256"
        }
      ],
      "name": "getPartitionStatus",
      "outputs": [
        {
          "internalType": "uint256",
          "name": "",
          "type": "uint256"
        }
      ],
      "stateMutability": "view",
      "type": "function"
    },
    {
      "inputs": [
        {
          "internalType": "address",
          "name": "user",
          "type": "address"
        },
        {
          "internalType": "uint256",
          "name": "index",
          "type": "uint256"
        }
      ],
      "name": "getUid",
      "outputs": [
        {
          "internalType": "uint256",
          "name": "",
          "type": "uint256"
        }
      ],
      "stateMutability": "view",
      "type": "function"
    },
    {
      "inputs": [
        {
          "internalType": "address",
          "name": "",
          "type": "address"
        }
      ],
      "name": "holders",
      "outputs": [
        {
          "internalType": "uint256",
          "name": "nbUid",
          "type": "uint256"
        },
        {
          "internalType": "enum ERC1400.holderStates",
          "name": "status",
          "type": "uint8"
        }
      ],
      "stateMutability": "view",
      "type": "function"
    },
    {
      "inputs": [],
      "name": "isControllable",
      "outputs": [
        {
          "internalType": "bool",
          "name": "",
          "type": "bool"
        }
      ],
      "stateMutability": "view",
      "type": "function"
    },
    {
      "inputs": [
        {
          "internalType": "uint256",
          "name": "",
          "type": "uint256"
        }
      ],
      "name": "partitions",
      "outputs": [
        {
          "internalType": "address",
          "name": "owner",
          "type": "address"
        },
        {
          "internalType": "uint256",
          "name": "amount",
          "type": "uint256"
        },
        {
          "internalType": "uint256",
          "name": "creation",
          "type": "uint256"
        },
        {
          "internalType": "enum ERC1400.partitionStates",
          "name": "status",
          "type": "uint8"
        }
      ],
      "stateMutability": "view",
      "type": "function"
    },
    {
      "inputs": [
        {
          "internalType": "address",
          "name": "owner",
          "type": "address"
        }
      ],
      "name": "partitionsOf",
      "outputs": [
        {
          "internalType": "uint256[]",
          "name": "",
          "type": "uint256[]"
        }
      ],
      "stateMutability": "view",
      "type": "function"
    },
    {
      "inputs": [],
      "name": "registerAccount",
      "outputs": [],
      "stateMutability": "nonpayable",
      "type": "function"
    },
    {
      "inputs": [
        {
          "internalType": "address",
          "name": "controller",
          "type": "address"
        }
      ],
      "name": "registerController",
      "outputs": [],
      "stateMutability": "nonpayable",
      "type": "function"
    },
    {
      "inputs": [
        {
          "internalType": "address",
          "name": "escrow",
          "type": "address"
        }
      ],
      "name": "registerEscrow",
      "outputs": [
        {
          "internalType": "bool",
          "name": "",
          "type": "bool"
        }
      ],
      "stateMutability": "nonpayable",
      "type": "function"
    },
    {
      "inputs": [
        {
          "internalType": "address",
          "name": "controller",
          "type": "address"
        }
      ],
      "name": "revokeController",
      "outputs": [],
      "stateMutability": "nonpayable",
      "type": "function"
    },
    {
      "inputs": [
        {
          "internalType": "uint256",
          "name": "partitionUid",
          "type": "uint256"
        }
      ],
      "name": "sellPartition",
      "outputs": [],
      "stateMutability": "nonpayable",
      "type": "function"
    },
    {
      "inputs": [
        {
          "internalType": "uint256",
          "name": "partitionUid",
          "type": "uint256"
        }
      ],
      "name": "stopOptionByPromisor",
      "outputs": [
        {
          "internalType": "bool",
          "name": "",
          "type": "bool"
        }
      ],
      "stateMutability": "nonpayable",
      "type": "function"
    },
    {
      "inputs": [
        {
          "internalType": "uint256",
          "name": "partitionUid",
          "type": "uint256"
        }
      ],
      "name": "stopOptionByRecipient",
      "outputs": [
        {
          "internalType": "bool",
          "name": "",
          "type": "bool"
        }
      ],
      "stateMutability": "nonpayable",
      "type": "function"
    },
    {
      "inputs": [
        {
          "internalType": "uint256",
          "name": "partitionUid",
          "type": "uint256"
        },
        {
          "internalType": "address",
          "name": "receiver",
          "type": "address"
        },
        {
          "internalType": "uint256",
          "name": "price",
          "type": "uint256"
        }
      ],
      "name": "transferByPartition",
      "outputs": [],
      "stateMutability": "nonpayable",
      "type": "function"
    },
    {
      "inputs": [
        {
          "internalType": "address",
          "name": "",
          "type": "address"
        },
        {
          "internalType": "uint256",
          "name": "",
          "type": "uint256"
        }
      ],
      "name": "uids",
      "outputs": [
        {
          "internalType": "uint256",
          "name": "",
          "type": "uint256"
        }
      ],
      "stateMutability": "view",
      "type": "function"
    },
    {
      "inputs": [],
      "name": "whoIsOrigin",
      "outputs": [
        {
          "internalType": "address",
          "name": "",
          "type": "address"
        }
      ],
      "stateMutability": "nonpayable",
      "type": "function"
    }
  ],
  "bytecode": "608060405234801561001057600080fd5b50604051611ec5380380611ec58339818101604052604081101561003357600080fd5b50805160209091015160008054911515600160a01b0260ff60a01b196001600160a01b0319938416331716179055600180546001600160a01b0390931692909116919091179055611e3c806100896000396000f3fe608060405234801561001057600080fd5b50600436106101e55760003560e01c806370a082311161010f578063d91ae8c2116100a2578063ea3d019611610071578063ea3d019614610476578063f76fac0e1461070f578063f90d77171461073b578063fcc45a0a14610758576101e5565b8063d91ae8c214610689578063d9f226e9146106af578063e13e57e9146106b7578063e7810d09146106e3576101e5565b80639b504387116100de5780639b504387146105e3578063aa93b05e14610619578063bfd889af14610655578063ca1a35cf14610681576101e5565b806370a0823114610504578063740ab8f41461052a57806376c657c9146105a05780638b3e76fd146105bd576101e5565b806339d3ad77116101875780634f30d687116101565780634f30d687146104595780634fb5ea9d1461047657806363857a7b1461049357806368aa16ff146104cc576101e5565b806339d3ad77146103d35780633d10e825146103f9578063438115a21461041f5780634c783bf514610451576101e5565b806318a5bbdc116101c357806318a5bbdc146102be57806319f46e811461030c5780631b52fd8e1461032f5780632e51dfd81461038b576101e5565b806304a87a4f146101ea57806308d4c8581461021e5780631005e26214610264575b600080fd5b61021c6004803603606081101561020057600080fd5b508035906001600160a01b036020820135169060400135610775565b005b6102506004803603606081101561023457600080fd5b506001600160a01b038135169060208101359060400135610808565b604080519115158252519081900360200190f35b6102816004803603602081101561027a57600080fd5b50356108dd565b60405180856001600160a01b03168152602001848152602001838152602001826001600160a01b0316815260200194505050505060405180910390f35b6102e4600480360360208110156102d457600080fd5b50356001600160a01b031661090f565b604051808381526020018260028111156102fa57fe5b81526020019250505060405180910390f35b61021c6004803603604081101561032257600080fd5b508035906020013561092b565b61034c6004803603602081101561034557600080fd5b5035610acf565b60405180856001600160a01b0316815260200184815260200183815260200182600281111561037757fe5b815260200194505050505060405180910390f35b6103c1600480360360608110156103a157600080fd5b506001600160a01b03813581169160208101359091169060400135610b05565b60408051918252519081900360200190f35b610250600480360360208110156103e957600080fd5b50356001600160a01b0316610b37565b6103c16004803603602081101561040f57600080fd5b50356001600160a01b0316610b72565b61021c6004803603606081101561043557600080fd5b506001600160a01b038135169060208101359060400135610b8d565b610250610d0c565b61021c6004803603602081101561046f57600080fd5b5035610d1c565b6103c16004803603602081101561048c57600080fd5b5035610e7c565b6104b0600480360360208110156104a957600080fd5b5035610e91565b604080516001600160a01b039092168252519081900360200190f35b610250600480360360808110156104e257600080fd5b506001600160a01b038135169060208101359060408101359060600135610eac565b6103c16004803603602081101561051a57600080fd5b50356001600160a01b0316610fc8565b6105506004803603602081101561054057600080fd5b50356001600160a01b0316611063565b60408051602080825283518183015283519192839290830191858101910280838360005b8381101561058c578181015183820152602001610574565b505050509050019250505060405180910390f35b6103c1600480360360208110156105b657600080fd5b503561112f565b61021c600480360360208110156105d357600080fd5b50356001600160a01b0316611156565b61021c600480360360608110156105f957600080fd5b506001600160a01b038135811691602081013590911690604001356111d5565b61021c6004803603608081101561062f57600080fd5b506001600160a01b038135811691602081013590911690604081013590606001356112f2565b6103c16004803603604081101561066b57600080fd5b506001600160a01b038135169060200135611416565b6104b0611433565b61021c6004803603602081101561069f57600080fd5b50356001600160a01b0316611437565b61021c611534565b610250600480360360408110156106cd57600080fd5b506001600160a01b0381351690602001356115d5565b6103c1600480360360408110156106f957600080fd5b506001600160a01b0381351690602001356116d9565b61021c6004803603604081101561072557600080fd5b506001600160a01b038135169060200135611701565b6102506004803603602081101561075157600080fd5b50356117e5565b6102506004803603602081101561076e57600080fd5b5035611932565b6001600160a01b03821660009081526004602052604081206001015460ff16600281111561079f57fe5b146107a957600080fd5b6107b583338484611a6c565b604080518481523360208201526001600160a01b038416818301526060810183905290517ffb5bfa42aa80b3ed270d6ff371cdc41b1aaa1a6dd5c44e63960f7b6ff25f032f9181900360800190a1505050565b60006001600160a01b03841661081d57600080fd5b60008381526002602052604090206001015482101561083b57600080fd5b6000838152600260205260409020546001600160a01b0316331461085e57600080fd5b3360008181526006602090815260408083206001600160a01b03891680855290835281842088855283529281902086905580519384529083019190915281810185905260608201849052517f9d1ac4b899375aa3769348593b01eae2706d94b90bc92a3d45e72f574b8f054b9181900360800190a15060019392505050565b60056020526000908152604090208054600182015460028301546003909301546001600160a01b039283169391921684565b6004602052600090815260409020805460019091015460ff1682565b8161093557600080fd5b3360009081526004602052604081206001015460ff16600281111561095657fe5b1461096057600080fd5b600154604080516370a0823160e01b8152336004820152905183926001600160a01b0316916370a08231916024808301926020929190829003018186803b1580156109aa57600080fd5b505afa1580156109be573d6000803e3d6000fd5b505050506040513d60208110156109d457600080fd5b505110156109e157600080fd5b6001546040805163079cc67960e41b81523360048201526024810184905290516001600160a01b03909216916379cc6790916044808201926020929091908290030181600087803b158015610a3557600080fd5b505af1158015610a49573d6000803e3d6000fd5b505050506040513d6020811015610a5f57600080fd5b5051610a6a57600080fd5b600082815260026020818152604080842080546001600160a01b03191633908117825560018083019790975542948201949094556003908101805460ff1916905592845260048252808420805490950194859055918152818320938352929092522055565b600260208190526000918252604090912080546001820154928201546003909201546001600160a01b0390911692919060ff1684565b6001600160a01b0392831660009081526006602090815260408083209490951682529283528381209181529152205490565b6001600160a01b03811660009081526004602052604081208181556001908101805460029260ff1990911690835b0217905550600192915050565b6001600160a01b031660009081526004602052604090205490565b6000818152600560205260409020600301546001600160a01b03163214610bb357600080fd5b60023360009081526004602052604090206001015460ff166002811115610bd657fe5b14610be057600080fd5b6001600160a01b03831660009081526004602052604081206001015460ff166002811115610c0a57fe5b14610c1457600080fd5b3260009081526004602052604081206001015460ff166002811115610c3557fe5b14610c3f57600080fd5b6000818152600560205260409020546001600160a01b03163314610c6257600080fd5b6000818152600260205260409020546001600160a01b03848116911614610c8857600080fd5b600081815260056020526040902060010154421115610ca657600080fd5b610cb281843285611a6c565b604080513381526001600160a01b03851660208201523281830152606081018490526080810183905290517f2f8ae5f6f3d09a6d675498229fa3c6d3ba3d5faaa90cfc85893abb07589309fb9181900360a00190a1505050565b600054600160a01b900460ff1690565b6000818152600260205260409020546001600160a01b03163314610d3f57600080fd5b600180546000838152600260209081526040808320909401548451631cc7485960e01b8152336004820152602481019190915293516001600160a01b0390931693631cc748599360448083019491928390030190829087803b158015610da457600080fd5b505af1158015610db8573d6000803e3d6000fd5b505050506040513d6020811015610dce57600080fd5b5051610dd957600080fd5b6000818152600260208190526040822060018101839055600301805460ff19169091179055805b33600090815260046020526040902054811015610e5857336000908152600360209081526040808320600185018452909152902054831415610e5057336000908152600460205260409020549091505b600101610e00565b50336000908152600360209081526040808320600190940183529290529081205550565b60009081526002602052604090206001015490565b6000908152600260205260409020546001600160a01b031690565b6000838152600260205260408120546001600160a01b03163214610ecf57600080fd5b60023360009081526004602052604090206001015460ff166002811115610ef257fe5b14610efc57600080fd5b3260009081526006602090815260408083203384528252808320878452909152902054821115610f5d5760405162461bcd60e51b815260040180806020018281038252605c815260200180611dab605c913960600191505060405180910390fd5b5060009283526002602081815260408086206003908101805460ff191660019081179091556005909352952080546001600160a01b031990811633178255818301959095559182019290925590920180546001600160a01b0394909416939091169290921790915590565b600080805b6001600160a01b03841660009081526004602052604090205481101561105c576001600160a01b038416600090815260036020908152604080832060018501845290915290205415611054576001600160a01b0384166000908152600360209081526040808320600180860185529083528184205484526002909252909120015491909101905b600101610fcd565b5092915050565b6001600160a01b038116600090815260046020526040902054606090819067ffffffffffffffff8111801561109757600080fd5b506040519080825280602002602001820160405280156110c1578160200160208202803683370190505b50905060005b6001600160a01b03841660009081526004602052604090205481101561105c576001600160a01b0384166000908152600360209081526040808320600185018452909152902054825183908390811061111c57fe5b60209081029190910101526001016110c7565b600081815260026020819052604082206003015460ff169081111561115057fe5b92915050565b6000546001600160a01b0316331461116d57600080fd5b60016001600160a01b03821660009081526004602052604090206001015460ff16600281111561119957fe5b146111a357600080fd5b6001600160a01b038116600090815260046020526040812060019081018054909160ff1990911690835b021790555050565b60013260009081526004602052604090206001015460ff1660028111156111f857fe5b1461120257600080fd5b6001600160a01b03831660009081526004602052604081206001015460ff16600281111561122c57fe5b1461123657600080fd5b6001600160a01b03821660009081526004602052604081206001015460ff16600281111561126057fe5b1461126a57600080fd5b61128c8184846002600086815260200190815260200160002060010154611a6c565b6000818152600260209081526040918290206001015482513281529182015280820183905290516001600160a01b0380851692908616917fd723526895fc65db0acf8a82fc5ad744cc7b5c1ca543e2c1554af226c5d3b1b29181900360600190a3505050565b60023360009081526004602052604090206001015460ff16600281111561131557fe5b1461131f57600080fd5b6001600160a01b03841660009081526004602052604081206001015460ff16600281111561134957fe5b1461135357600080fd5b6001600160a01b03831660009081526004602052604081206001015460ff16600281111561137d57fe5b1461138757600080fd5b6000818152600260205260409020546001600160a01b038581169116146113ad57600080fd5b6113b981858585611a6c565b604080513381526001600160a01b038087166020830152851681830152606081018490526080810183905290517ff3665006498c43504090a58c1d42ce5073b77ccc50e2fe916967087e52fd3a0c9181900360a00190a150505050565b600360209081526000928352604080842090915290825290205481565b3290565b6000546001600160a01b0316331461144e57600080fd5b600154604080516370a0823160e01b81526001600160a01b038481166004830152915160009392909216916370a0823191602480820192602092909190829003018186803b15801561149f57600080fd5b505afa1580156114b3573d6000803e3d6000fd5b505050506040513d60208110156114c957600080fd5b505110156114d657600080fd5b6001600160a01b03811660009081526004602052604081206001015460ff16600281111561150057fe5b1461150a57600080fd5b6001600160a01b03811660009081526004602052604090206001908101805460ff191682806111cd565b600154604080516370a0823160e01b815233600482015290516000926001600160a01b0316916370a08231916024808301926020929190829003018186803b15801561157f57600080fd5b505afa158015611593573d6000803e3d6000fd5b505050506040513d60208110156115a957600080fd5b505110156115b657600080fd5b336000908152600460205260408120908155600101805460ff19169055565b6000818152600260205260408120546001600160a01b0384811691161461162d5760405162461bcd60e51b8152600401808060200182810382526033815260200180611d786033913960400191505060405180910390fd5b60023360009081526004602052604090206001015460ff16600281111561165057fe5b1461168c5760405162461bcd60e51b8152600401808060200182810382526045815260200180611d336045913960600191505060405180910390fd5b6000828152600260209081526040808320600301805460ff1916905560059091529020600101544210156116d0576000828152600560205260409020426001909101555b50600192915050565b6001600160a01b03919091166000908152600360209081526040808320938352929052205490565b60013260009081526004602052604090206001015460ff16600281111561172457fe5b1461172e57600080fd5b6001600160a01b03821660009081526004602052604081206001015460ff16600281111561175857fe5b1461176257600080fd5b6117848183326002600086815260200190815260200160002060010154611a6c565b6000818152600260209081526040918290206001015482513281529182015280820183905290516001600160a01b038416917f5cbe58c63d4e8d44ed895cb43cc52bbe40bcf56a6f32e215112961d9921aaa60919081900360600190a25050565b600060023360009081526004602052604090206001015460ff16600281111561180a57fe5b1461181457600080fd5b3260009081526004602052604081206001015460ff16600281111561183557fe5b1461183f57600080fd5b6000828152600560205260409020546001600160a01b0316331461186257600080fd5b6000828152600560205260409020600301546001600160a01b0316321461188857600080fd5b600160008381526002602081905260409091206003015460ff16908111156118ac57fe5b146118b657600080fd5b6000828152600260209081526040808320546001600160a01b031683526006825280832033845282528083208584528252808320839055600590915290206001015442111561190457600080fd5b506000908152600260209081526040808320600301805460ff19169055600590915290204260019182015590565b600060023360009081526004602052604090206001015460ff16600281111561195757fe5b1461196157600080fd5b3260009081526004602052604081206001015460ff16600281111561198257fe5b1461198c57600080fd5b6000828152600560205260409020546001600160a01b031633146119af57600080fd5b6000828152600260205260409020546001600160a01b031632146119d257600080fd5b600160008381526002602081905260409091206003015460ff16908111156119f657fe5b14611a0057600080fd5b6000828152600260209081526040808320546001600160a01b03168352600682528083203384528252808320858452825280832083905560059091529020600101544211611a4d57600080fd5b6000828152600260205260408120600301805460ff1916600183610b65565b600154604080516370a0823160e01b81526001600160a01b0385811660048301529151849392909216916370a0823191602480820192602092909190829003018186803b158015611abc57600080fd5b505afa158015611ad0573d6000803e3d6000fd5b505050506040513d6020811015611ae657600080fd5b50511015611af357600080fd5b6000848152600260205260409020546001600160a01b03848116911614611b1957600080fd5b60015460408051636eb1769f60e11b81526001600160a01b03858116600483015230602483015291518493929092169163dd62ed3e91604480820192602092909190829003018186803b158015611b6f57600080fd5b505afa158015611b83573d6000803e3d6000fd5b505050506040513d6020811015611b9957600080fd5b50511015611ba657600080fd5b600154604080516323b872dd60e01b81526001600160a01b038581166004830152868116602483015260448201859052915191909216916323b872dd9160648083019260209291908290030181600087803b158015611c0457600080fd5b505af1158015611c18573d6000803e3d6000fd5b505050506040513d6020811015611c2e57600080fd5b5051611c3957600080fd5b600084815260026020908152604080832080546001600160a01b0319166001600160a01b038716908117909155835260048252808320805460010190819055600383528184209084529091528120859055805b6001600160a01b038516600090815260046020526040902054811015611cff576001600160a01b0385166000908152600360209081526040808320600185018452909152902054861415611cf7576001600160a01b0385166000908152600460205260409020549091505b600101611c8c565b506001600160a01b039093166000908152600360209081526040808320600190960183529490529283209290925550505056fe6c61207472616e73616374696f6e20646f697420c383c2aa74726520c383c2a96d6973652064657075697320756e20636f6d7074652064652073c383c2a9717565737472656c6520726563697069656e7420657374206c652070726f707269c383c2a97461697265206465206c6120706172746974696f6e6c6520636f6e74726163742064652073c383c2a97175657374726520646f697420c383c2aa747265206175746f726973c383c2a920c383c2a0206d6f646966696572206c6520737461747573206465206c6120706172746974696f6ea2646970667358221220f2bce88195764ed295a64146a104017fc912f613321e11b364ffb45b9d9c59ec64736f6c634300060c0033",
  "bytecodeSha1": "166f2f2a9e6618fdf6fd1f0fdcd5fad836d79996",
  "compiler": {
    "evm_version": "istanbul",
    "optimizer": {
      "enabled": true,
      "runs": 200
    },
    "version": "0.6.12"
  },
  "contractName": "ERC1400",
  "language": "Solidity",
  "natspec": {
    "kind": "dev",
    "methods": {
      "allowanceEscrow(address,address,uint256)": {
        "notice": "Allowance given to an escrow address on a partition*"
      },
      "approveEscrow(address,uint256,uint256)": {
        "notice": "Approve an escrow address for the transfer of a partition*"
      },
      "buyPartition(uint256,uint256)": {
        "notice": "Buy a partition through TokenContract payment. Used in ERC20 standard",
        "params": {
          "partitionUid": ", amount"
        }
      },
      "confinePartition(address,uint256,uint256,uint256)": {
        "notice": "Confinement of a Partition for a given duration*"
      },
      "deconfinePartition(address,uint256)": {
        "notice": "Deconfinement of a Partition*"
      },
      "escrowTransfer(address,uint256,uint256)": {
        "notice": "transfer partition from escrow*"
      },
      "registerAccount()": {
        "notice": "Register an account*"
      },
      "registerController(address)": {
        "notice": "Register a controller*"
      },
      "registerEscrow(address)": {
        "notice": "Register an escrow address (this should be the caller smart contract address)*"
      },
      "revokeController(address)": {
        "notice": "Revoke a controller*"
      },
      "sellPartition(uint256)": {
        "notice": "Sell a partition through TokenContract payment. Used in ERC20 standard",
        "params": {
          "partitionUid": ", amount"
        }
      },
      "stopOptionByPromisor(uint256)": {
        "notice": "stop the Option Exercise on a Partition by escrow account or after expiration of the exercise*"
      },
      "transferByPartition(uint256,address,uint256)": {
        "notice": "Transfer a partition through TokenContract payment. Used in ERC20 standard",
        "params": {
          "partitionUid": ", receiver account"
        }
      },
      "whoIsOrigin()": {
        "notice": "Get the message sender (help to debug)*"
      }
    },
    "version": 1
  },
  "opcodes": "PUSH1 0x80 PUSH1 0x40 MSTORE CALLVALUE DUP1 ISZERO PUSH2 0x10 JUMPI PUSH1 0x0 DUP1 REVERT JUMPDEST POP PUSH1 0x4 CALLDATASIZE LT PUSH2 0x1E5 JUMPI PUSH1 0x0 CALLDATALOAD PUSH1 0xE0 SHR DUP1 PUSH4 0x70A08231 GT PUSH2 0x10F JUMPI DUP1 PUSH4 0xD91AE8C2 GT PUSH2 0xA2 JUMPI DUP1 PUSH4 0xEA3D0196 GT PUSH2 0x71 JUMPI DUP1 PUSH4 0xEA3D0196 EQ PUSH2 0x476 JUMPI DUP1 PUSH4 0xF76FAC0E EQ PUSH2 0x70F JUMPI DUP1 PUSH4 0xF90D7717 EQ PUSH2 0x73B JUMPI DUP1 PUSH4 0xFCC45A0A EQ PUSH2 0x758 JUMPI PUSH2 0x1E5 JUMP JUMPDEST DUP1 PUSH4 0xD91AE8C2 EQ PUSH2 0x689 JUMPI DUP1 PUSH4 0xD9F226E9 EQ PUSH2 0x6AF JUMPI DUP1 PUSH4 0xE13E57E9 EQ PUSH2 0x6B7 JUMPI DUP1 PUSH4 0xE7810D09 EQ PUSH2 0x6E3 JUMPI PUSH2 0x1E5 JUMP JUMPDEST DUP1 PUSH4 0x9B504387 GT PUSH2 0xDE JUMPI DUP1 PUSH4 0x9B504387 EQ PUSH2 0x5E3 JUMPI DUP1 PUSH4 0xAA93B05E EQ PUSH2 0x619 JUMPI DUP1 PUSH4 0xBFD889AF EQ PUSH2 0x655 JUMPI DUP1 PUSH4 0xCA1A35CF EQ PUSH2 0x681 JUMPI PUSH2 0x1E5 JUMP JUMPDEST DUP1 PUSH4 0x70A08231 EQ PUSH2 0x504 JUMPI DUP1 PUSH4 0x740AB8F4 EQ PUSH2 0x52A JUMPI DUP1 PUSH4 0x76C657C9 EQ PUSH2 0x5A0 JUMPI DUP1 PUSH4 0x8B3E76FD EQ PUSH2 0x5BD JUMPI PUSH2 0x1E5 JUMP JUMPDEST DUP1 PUSH4 0x39D3AD77 GT PUSH2 0x187 JUMPI DUP1 PUSH4 0x4F30D687 GT PUSH2 0x156 JUMPI DUP1 PUSH4 0x4F30D687 EQ PUSH2 0x459 JUMPI DUP1 PUSH4 0x4FB5EA9D EQ PUSH2 0x476 JUMPI DUP1 PUSH4 0x63857A7B EQ PUSH2 0x493 JUMPI DUP1 PUSH4 0x68AA16FF EQ PUSH2 0x4CC JUMPI PUSH2 0x1E5 JUMP JUMPDEST DUP1 PUSH4 0x39D3AD77 EQ PUSH2 0x3D3 JUMPI DUP1 PUSH4 0x3D10E825 EQ PUSH2 0x3F9 JUMPI DUP1 PUSH4 0x438115A2 EQ PUSH2 0x41F JUMPI DUP1 PUSH4 0x4C783BF5 EQ PUSH2 0x451 JUMPI PUSH2 0x1E5 JUMP JUMPDEST DUP1 PUSH4 0x18A5BBDC GT PUSH2 0x1C3 JUMPI DUP1 PUSH4 0x18A5BBDC EQ PUSH2 0x2BE JUMPI DUP1 PUSH4 0x19F46E81 EQ PUSH2 0x30C JUMPI DUP1 PUSH4 0x1B52FD8E EQ PUSH2 0x32F JUMPI DUP1 PUSH4 0x2E51DFD8 EQ PUSH2 0x38B JUMPI PUSH2 0x1E5 JUMP JUMPDEST DUP1 PUSH4 0x4A87A4F EQ PUSH2 0x1EA JUMPI DUP1 PUSH4 0x8D4C858 EQ PUSH2 0x21E JUMPI DUP1 PUSH4 0x1005E262 EQ PUSH2 0x264 JUMPI JUMPDEST PUSH1 0x0 DUP1 REVERT JUMPDEST PUSH2 0x21C PUSH1 0x4 DUP1 CALLDATASIZE SUB PUSH1 0x60 DUP2 LT ISZERO PUSH2 0x200 JUMPI PUSH1 0x0 DUP1 REVERT JUMPDEST POP DUP1 CALLDATALOAD SWAP1 PUSH1 0x1 PUSH1 0x1 PUSH1 0xA0 SHL SUB PUSH1 0x20 DUP3 ADD CALLDATALOAD AND SWAP1 PUSH1 0x40 ADD CALLDATALOAD PUSH2 0x775 JUMP JUMPDEST STOP JUMPDEST PUSH2 0x250 PUSH1 0x4 DUP1 CALLDATASIZE SUB PUSH1 0x60 DUP2 LT ISZERO PUSH2 0x234 JUMPI PUSH1 0x0 DUP1 REVERT JUMPDEST POP PUSH1 0x1 PUSH1 0x1 PUSH1 0xA0 SHL SUB DUP2 CALLDATALOAD AND SWAP1 PUSH1 0x20 DUP2 ADD CALLDATALOAD SWAP1 PUSH1 0x40 ADD CALLDATALOAD PUSH2 0x808 JUMP JUMPDEST PUSH1 0x40 DUP1 MLOAD SWAP2 ISZERO ISZERO DUP3 MSTORE MLOAD SWAP1 DUP2 SWAP1 SUB PUSH1 0x20 ADD SWAP1 RETURN JUMPDEST PUSH2 0x281 PUSH1 0x4 DUP1 CALLDATASIZE SUB PUSH1 0x20 DUP2 LT ISZERO PUSH2 0x27A JUMPI PUSH1 0x0 DUP1 REVERT JUMPDEST POP CALLDATALOAD PUSH2 0x8DD JUMP JUMPDEST PUSH1 0x40 MLOAD DUP1 DUP6 PUSH1 0x1 PUSH1 0x1 PUSH1 0xA0 SHL SUB AND DUP2 MSTORE PUSH1 0x20 ADD DUP5 DUP2 MSTORE PUSH1 0x20 ADD DUP4 DUP2 MSTORE PUSH1 0x20 ADD DUP3 PUSH1 0x1 PUSH1 0x1 PUSH1 0xA0 SHL SUB AND DUP2 MSTORE PUSH1 0x20 ADD SWAP5 POP POP POP POP POP PUSH1 0x40 MLOAD DUP1 SWAP2 SUB SWAP1 RETURN JUMPDEST PUSH2 0x2E4 PUSH1 0x4 DUP1 CALLDATASIZE SUB PUSH1 0x20 DUP2 LT ISZERO PUSH2 0x2D4 JUMPI PUSH1 0x0 DUP1 REVERT JUMPDEST POP CALLDATALOAD PUSH1 0x1 PUSH1 0x1 PUSH1 0xA0 SHL SUB AND PUSH2 0x90F JUMP JUMPDEST PUSH1 0x40 MLOAD DUP1 DUP4 DUP2 MSTORE PUSH1 0x20 ADD DUP3 PUSH1 0x2 DUP2 GT ISZERO PUSH2 0x2FA JUMPI INVALID JUMPDEST DUP2 MSTORE PUSH1 0x20 ADD SWAP3 POP POP POP PUSH1 0x40 MLOAD DUP1 SWAP2 SUB SWAP1 RETURN JUMPDEST PUSH2 0x21C PUSH1 0x4 DUP1 CALLDATASIZE SUB PUSH1 0x40 DUP2 LT ISZERO PUSH2 0x322 JUMPI PUSH1 0x0 DUP1 REVERT JUMPDEST POP DUP1 CALLDATALOAD SWAP1 PUSH1 0x20 ADD CALLDATALOAD PUSH2 0x92B JUMP JUMPDEST PUSH2 0x34C PUSH1 0x4 DUP1 CALLDATASIZE SUB PUSH1 0x20 DUP2 LT ISZERO PUSH2 0x345 JUMPI PUSH1 0x0 DUP1 REVERT JUMPDEST POP CALLDATALOAD PUSH2 0xACF JUMP JUMPDEST PUSH1 0x40 MLOAD DUP1 DUP6 PUSH1 0x1 PUSH1 0x1 PUSH1 0xA0 SHL SUB AND DUP2 MSTORE PUSH1 0x20 ADD DUP5 DUP2 MSTORE PUSH1 0x20 ADD DUP4 DUP2 MSTORE PUSH1 0x20 ADD DUP3 PUSH1 0x2 DUP2 GT ISZERO PUSH2 0x377 JUMPI INVALID JUMPDEST DUP2 MSTORE PUSH1 0x20 ADD SWAP5 POP POP POP POP POP PUSH1 0x40 MLOAD DUP1 SWAP2 SUB SWAP1 RETURN JUMPDEST PUSH2 0x3C1 PUSH1 0x4 DUP1 CALLDATASIZE SUB PUSH1 0x60 DUP2 LT ISZERO PUSH2 0x3A1 JUMPI PUSH1 0x0 DUP1 REVERT JUMPDEST POP PUSH1 0x1 PUSH1 0x1 PUSH1 0xA0 SHL SUB DUP2 CALLDATALOAD DUP2 AND SWAP2 PUSH1 0x20 DUP2 ADD CALLDATALOAD SWAP1 SWAP2 AND SWAP1 PUSH1 0x40 ADD CALLDATALOAD PUSH2 0xB05 JUMP JUMPDEST PUSH1 0x40 DUP1 MLOAD SWAP2 DUP3 MSTORE MLOAD SWAP1 DUP2 SWAP1 SUB PUSH1 0x20 ADD SWAP1 RETURN JUMPDEST PUSH2 0x250 PUSH1 0x4 DUP1 CALLDATASIZE SUB PUSH1 0x20 DUP2 LT ISZERO PUSH2 0x3E9 JUMPI PUSH1 0x0 DUP1 REVERT JUMPDEST POP CALLDATALOAD PUSH1 0x1 PUSH1 0x1 PUSH1 0xA0 SHL SUB AND PUSH2 0xB37 JUMP JUMPDEST PUSH2 0x3C1 PUSH1 0x4 DUP1 CALLDATASIZE SUB PUSH1 0x20 DUP2 LT ISZERO PUSH2 0x40F JUMPI PUSH1 0x0 DUP1 REVERT JUMPDEST POP CALLDATALOAD PUSH1 0x1 PUSH1 0x1 PUSH1 0xA0 SHL SUB AND PUSH2 0xB72 JUMP JUMPDEST PUSH2 0x21C PUSH1 0x4 DUP1 CALLDATASIZE SUB PUSH1 0x60 DUP2 LT ISZERO PUSH2 0x435 JUMPI PUSH1 0x0 DUP1 REVERT JUMPDEST POP PUSH1 0x1 PUSH1 0x1 PUSH1 0xA0 SHL SUB DUP2 CALLDATALOAD AND SWAP1 PUSH1 0x20 DUP2 ADD CALLDATALOAD SWAP1 PUSH1 0x40 ADD CALLDATALOAD PUSH2 0xB8D JUMP JUMPDEST PUSH2 0x250 PUSH2 0xD0C JUMP JUMPDEST PUSH2 0x21C PUSH1 0x4 DUP1 CALLDATASIZE SUB PUSH1 0x20 DUP2 LT ISZERO PUSH2 0x46F JUMPI PUSH1 0x0 DUP1 REVERT JUMPDEST POP CALLDATALOAD PUSH2 0xD1C JUMP JUMPDEST PUSH2 0x3C1 PUSH1 0x4 DUP1 CALLDATASIZE SUB PUSH1 0x20 DUP2 LT ISZERO PUSH2 0x48C JUMPI PUSH1 0x0 DUP1 REVERT JUMPDEST POP CALLDATALOAD PUSH2 0xE7C JUMP JUMPDEST PUSH2 0x4B0 PUSH1 0x4 DUP1 CALLDATASIZE SUB PUSH1 0x20 DUP2 LT ISZERO PUSH2 0x4A9 JUMPI PUSH1 0x0 DUP1 REVERT JUMPDEST POP CALLDATALOAD PUSH2 0xE91 JUMP JUMPDEST PUSH1 0x40 DUP1 MLOAD PUSH1 0x1 PUSH1 0x1 PUSH1 0xA0 SHL SUB SWAP1 SWAP3 AND DUP3 MSTORE MLOAD SWAP1 DUP2 SWAP1 SUB PUSH1 0x20 ADD SWAP1 RETURN JUMPDEST PUSH2 0x250 PUSH1 0x4 DUP1 CALLDATASIZE SUB PUSH1 0x80 DUP2 LT ISZERO PUSH2 0x4E2 JUMPI PUSH1 0x0 DUP1 REVERT JUMPDEST POP PUSH1 0x1 PUSH1 0x1 PUSH1 0xA0 SHL SUB DUP2 CALLDATALOAD AND SWAP1 PUSH1 0x20 DUP2 ADD CALLDATALOAD SWAP1 PUSH1 0x40 DUP2 ADD CALLDATALOAD SWAP1 PUSH1 0x60 ADD CALLDATALOAD PUSH2 0xEAC JUMP JUMPDEST PUSH2 0x3C1 PUSH1 0x4 DUP1 CALLDATASIZE SUB PUSH1 0x20 DUP2 LT ISZERO PUSH2 0x51A JUMPI PUSH1 0x0 DUP1 REVERT JUMPDEST POP CALLDATALOAD PUSH1 0x1 PUSH1 0x1 PUSH1 0xA0 SHL SUB AND PUSH2 0xFC8 JUMP JUMPDEST PUSH2 0x550 PUSH1 0x4 DUP1 CALLDATASIZE SUB PUSH1 0x20 DUP2 LT ISZERO PUSH2 0x540 JUMPI PUSH1 0x0 DUP1 REVERT JUMPDEST POP CALLDATALOAD PUSH1 0x1 PUSH1 0x1 PUSH1 0xA0 SHL SUB AND PUSH2 0x1063 JUMP JUMPDEST PUSH1 0x40 DUP1 MLOAD PUSH1 0x20 DUP1 DUP3 MSTORE DUP4 MLOAD DUP2 DUP4 ADD MSTORE DUP4 MLOAD SWAP2 SWAP3 DUP4 SWAP3 SWAP1 DUP4 ADD SWAP2 DUP6 DUP2 ADD SWAP2 MUL DUP1 DUP4 DUP4 PUSH1 0x0 JUMPDEST DUP4 DUP2 LT ISZERO PUSH2 0x58C JUMPI DUP2 DUP2 ADD MLOAD DUP4 DUP3 ADD MSTORE PUSH1 0x20 ADD PUSH2 0x574 JUMP JUMPDEST POP POP POP POP SWAP1 POP ADD SWAP3 POP POP POP PUSH1 0x40 MLOAD DUP1 SWAP2 SUB SWAP1 RETURN JUMPDEST PUSH2 0x3C1 PUSH1 0x4 DUP1 CALLDATASIZE SUB PUSH1 0x20 DUP2 LT ISZERO PUSH2 0x5B6 JUMPI PUSH1 0x0 DUP1 REVERT JUMPDEST POP CALLDATALOAD PUSH2 0x112F JUMP JUMPDEST PUSH2 0x21C PUSH1 0x4 DUP1 CALLDATASIZE SUB PUSH1 0x20 DUP2 LT ISZERO PUSH2 0x5D3 JUMPI PUSH1 0x0 DUP1 REVERT JUMPDEST POP CALLDATALOAD PUSH1 0x1 PUSH1 0x1 PUSH1 0xA0 SHL SUB AND PUSH2 0x1156 JUMP JUMPDEST PUSH2 0x21C PUSH1 0x4 DUP1 CALLDATASIZE SUB PUSH1 0x60 DUP2 LT ISZERO PUSH2 0x5F9 JUMPI PUSH1 0x0 DUP1 REVERT JUMPDEST POP PUSH1 0x1 PUSH1 0x1 PUSH1 0xA0 SHL SUB DUP2 CALLDATALOAD DUP2 AND SWAP2 PUSH1 0x20 DUP2 ADD CALLDATALOAD SWAP1 SWAP2 AND SWAP1 PUSH1 0x40 ADD CALLDATALOAD PUSH2 0x11D5 JUMP JUMPDEST PUSH2 0x21C PUSH1 0x4 DUP1 CALLDATASIZE SUB PUSH1 0x80 DUP2 LT ISZERO PUSH2 0x62F JUMPI PUSH1 0x0 DUP1 REVERT JUMPDEST POP PUSH1 0x1 PUSH1 0x1 PUSH1 0xA0 SHL SUB DUP2 CALLDATALOAD DUP2 AND SWAP2 PUSH1 0x20 DUP2 ADD CALLDATALOAD SWAP1 SWAP2 AND SWAP1 PUSH1 0x40 DUP2 ADD CALLDATALOAD SWAP1 PUSH1 0x60 ADD CALLDATALOAD PUSH2 0x12F2 JUMP JUMPDEST PUSH2 0x3C1 PUSH1 0x4 DUP1 CALLDATASIZE SUB PUSH1 0x40 DUP2 LT ISZERO PUSH2 0x66B JUMPI PUSH1 0x0 DUP1 REVERT JUMPDEST POP PUSH1 0x1 PUSH1 0x1 PUSH1 0xA0 SHL SUB DUP2 CALLDATALOAD AND SWAP1 PUSH1 0x20 ADD CALLDATALOAD PUSH2 0x1416 JUMP JUMPDEST PUSH2 0x4B0 PUSH2 0x1433 JUMP JUMPDEST PUSH2 0x21C PUSH1 0x4 DUP1 CALLDATASIZE SUB PUSH1 0x20 DUP2 LT ISZERO PUSH2 0x69F JUMPI PUSH1 0x0 DUP1 REVERT JUMPDEST POP CALLDATALOAD PUSH1 0x1 PUSH1 0x1 PUSH1 0xA0 SHL SUB AND PUSH2 0x1437 JUMP JUMPDEST PUSH2 0x21C PUSH2 0x1534 JUMP JUMPDEST PUSH2 0x250 PUSH1 0x4 DUP1 CALLDATASIZE SUB PUSH1 0x40 DUP2 LT ISZERO PUSH2 0x6CD JUMPI PUSH1 0x0 DUP1 REVERT JUMPDEST POP PUSH1 0x1 PUSH1 0x1 PUSH1 0xA0 SHL SUB DUP2 CALLDATALOAD AND SWAP1 PUSH1 0x20 ADD CALLDATALOAD PUSH2 0x15D5 JUMP JUMPDEST PUSH2 0x3C1 PUSH1 0x4 DUP1 CALLDATASIZE SUB PUSH1 0x40 DUP2 LT ISZERO PUSH2 0x6F9 JUMPI PUSH1 0x0 DUP1 REVERT JUMPDEST POP PUSH1 0x1 PUSH1 0x1 PUSH1 0xA0 SHL SUB DUP2 CALLDATALOAD AND SWAP1 PUSH1 0x20 ADD CALLDATALOAD PUSH2 0x16D9 JUMP JUMPDEST PUSH2 0x21C PUSH1 0x4 DUP1 CALLDATASIZE SUB PUSH1 0x40 DUP2 LT ISZERO PUSH2 0x725 JUMPI PUSH1 0x0 DUP1 REVERT JUMPDEST POP PUSH1 0x1 PUSH1 0x1 PUSH1 0xA0 SHL SUB DUP2 CALLDATALOAD AND SWAP1 PUSH1 0x20 ADD CALLDATALOAD PUSH2 0x1701 JUMP JUMPDEST PUSH2 0x250 PUSH1 0x4 DUP1 CALLDATASIZE SUB PUSH1 0x20 DUP2 LT ISZERO PUSH2 0x751 JUMPI PUSH1 0x0 DUP1 REVERT JUMPDEST POP CALLDATALOAD PUSH2 0x17E5 JUMP JUMPDEST PUSH2 0x250 PUSH1 0x4 DUP1 CALLDATASIZE SUB PUSH1 0x20 DUP2 LT ISZERO PUSH2 0x76E JUMPI PUSH1 0x0 DUP1 REVERT JUMPDEST POP CALLDATALOAD PUSH2 0x1932 JUMP JUMPDEST PUSH1 0x1 PUSH1 0x1 PUSH1 0xA0 SHL SUB DUP3 AND PUSH1 0x0 SWAP1 DUP2 MSTORE PUSH1 0x4 PUSH1 0x20 MSTORE PUSH1 0x40 DUP2 KECCAK256 PUSH1 0x1 ADD SLOAD PUSH1 0xFF AND PUSH1 0x2 DUP2 GT ISZERO PUSH2 0x79F JUMPI INVALID JUMPDEST EQ PUSH2 0x7A9 JUMPI PUSH1 0x0 DUP1 REVERT JUMPDEST PUSH2 0x7B5 DUP4 CALLER DUP5 DUP5 PUSH2 0x1A6C JUMP JUMPDEST PUSH1 0x40 DUP1 MLOAD DUP5 DUP2 MSTORE CALLER PUSH1 0x20 DUP3 ADD MSTORE PUSH1 0x1 PUSH1 0x1 PUSH1 0xA0 SHL SUB DUP5 AND DUP2 DUP4 ADD MSTORE PUSH1 0x60 DUP2 ADD DUP4 SWAP1 MSTORE SWAP1 MLOAD PUSH32 0xFB5BFA42AA80B3ED270D6FF371CDC41B1AAA1A6DD5C44E63960F7B6FF25F032F SWAP2 DUP2 SWAP1 SUB PUSH1 0x80 ADD SWAP1 LOG1 POP POP POP JUMP JUMPDEST PUSH1 0x0 PUSH1 0x1 PUSH1 0x1 PUSH1 0xA0 SHL SUB DUP5 AND PUSH2 0x81D JUMPI PUSH1 0x0 DUP1 REVERT JUMPDEST PUSH1 0x0 DUP4 DUP2 MSTORE PUSH1 0x2 PUSH1 0x20 MSTORE PUSH1 0x40 SWAP1 KECCAK256 PUSH1 0x1 ADD SLOAD DUP3 LT ISZERO PUSH2 0x83B JUMPI PUSH1 0x0 DUP1 REVERT JUMPDEST PUSH1 0x0 DUP4 DUP2 MSTORE PUSH1 0x2 PUSH1 0x20 MSTORE PUSH1 0x40 SWAP1 KECCAK256 SLOAD PUSH1 0x1 PUSH1 0x1 PUSH1 0xA0 SHL SUB AND CALLER EQ PUSH2 0x85E JUMPI PUSH1 0x0 DUP1 REVERT JUMPDEST CALLER PUSH1 0x0 DUP2 DUP2 MSTORE PUSH1 0x6 PUSH1 0x20 SWAP1 DUP2 MSTORE PUSH1 0x40 DUP1 DUP4 KECCAK256 PUSH1 0x1 PUSH1 0x1 PUSH1 0xA0 SHL SUB DUP10 AND DUP1 DUP6 MSTORE SWAP1 DUP4 MSTORE DUP2 DUP5 KECCAK256 DUP9 DUP6 MSTORE DUP4 MSTORE SWAP3 DUP2 SWAP1 KECCAK256 DUP7 SWAP1 SSTORE DUP1 MLOAD SWAP4 DUP5 MSTORE SWAP1 DUP4 ADD SWAP2 SWAP1 SWAP2 MSTORE DUP2 DUP2 ADD DUP6 SWAP1 MSTORE PUSH1 0x60 DUP3 ADD DUP5 SWAP1 MSTORE MLOAD PUSH32 0x9D1AC4B899375AA3769348593B01EAE2706D94B90BC92A3D45E72F574B8F054B SWAP2 DUP2 SWAP1 SUB PUSH1 0x80 ADD SWAP1 LOG1 POP PUSH1 0x1 SWAP4 SWAP3 POP POP POP JUMP JUMPDEST PUSH1 0x5 PUSH1 0x20 MSTORE PUSH1 0x0 SWAP1 DUP2 MSTORE PUSH1 0x40 SWAP1 KECCAK256 DUP1 SLOAD PUSH1 0x1 DUP3 ADD SLOAD PUSH1 0x2 DUP4 ADD SLOAD PUSH1 0x3 SWAP1 SWAP4 ADD SLOAD PUSH1 0x1 PUSH1 0x1 PUSH1 0xA0 SHL SUB SWAP3 DUP4 AND SWAP4 SWAP2 SWAP3 AND DUP5 JUMP JUMPDEST PUSH1 0x4 PUSH1 0x20 MSTORE PUSH1 0x0 SWAP1 DUP2 MSTORE PUSH1 0x40 SWAP1 KECCAK256 DUP1 SLOAD PUSH1 0x1 SWAP1 SWAP2 ADD SLOAD PUSH1 0xFF AND DUP3 JUMP JUMPDEST DUP2 PUSH2 0x935 JUMPI PUSH1 0x0 DUP1 REVERT JUMPDEST CALLER PUSH1 0x0 SWAP1 DUP2 MSTORE PUSH1 0x4 PUSH1 0x20 MSTORE PUSH1 0x40 DUP2 KECCAK256 PUSH1 0x1 ADD SLOAD PUSH1 0xFF AND PUSH1 0x2 DUP2 GT ISZERO PUSH2 0x956 JUMPI INVALID JUMPDEST EQ PUSH2 0x960 JUMPI PUSH1 0x0 DUP1 REVERT JUMPDEST PUSH1 0x1 SLOAD PUSH1 0x40 DUP1 MLOAD PUSH4 0x70A08231 PUSH1 0xE0 SHL DUP2 MSTORE CALLER PUSH1 0x4 DUP3 ADD MSTORE SWAP1 MLOAD DUP4 SWAP3 PUSH1 0x1 PUSH1 0x1 PUSH1 0xA0 SHL SUB AND SWAP2 PUSH4 0x70A08231 SWAP2 PUSH1 0x24 DUP1 DUP4 ADD SWAP3 PUSH1 0x20 SWAP3 SWAP2 SWAP1 DUP3 SWAP1 SUB ADD DUP2 DUP7 DUP1 EXTCODESIZE ISZERO DUP1 ISZERO PUSH2 0x9AA JUMPI PUSH1 0x0 DUP1 REVERT JUMPDEST POP GAS STATICCALL ISZERO DUP1 ISZERO PUSH2 0x9BE JUMPI RETURNDATASIZE PUSH1 0x0 DUP1 RETURNDATACOPY RETURNDATASIZE PUSH1 0x0 REVERT JUMPDEST POP POP POP POP PUSH1 0x40 MLOAD RETURNDATASIZE PUSH1 0x20 DUP2 LT ISZERO PUSH2 0x9D4 JUMPI PUSH1 0x0 DUP1 REVERT JUMPDEST POP MLOAD LT ISZERO PUSH2 0x9E1 JUMPI PUSH1 0x0 DUP1 REVERT JUMPDEST PUSH1 0x1 SLOAD PUSH1 0x40 DUP1 MLOAD PUSH4 0x79CC679 PUSH1 0xE4 SHL DUP2 MSTORE CALLER PUSH1 0x4 DUP3 ADD MSTORE PUSH1 0x24 DUP2 ADD DUP5 SWAP1 MSTORE SWAP1 MLOAD PUSH1 0x1 PUSH1 0x1 PUSH1 0xA0 SHL SUB SWAP1 SWAP3 AND SWAP2 PUSH4 0x79CC6790 SWAP2 PUSH1 0x44 DUP1 DUP3 ADD SWAP3 PUSH1 0x20 SWAP3 SWAP1 SWAP2 SWAP1 DUP3 SWAP1 SUB ADD DUP2 PUSH1 0x0 DUP8 DUP1 EXTCODESIZE ISZERO DUP1 ISZERO PUSH2 0xA35 JUMPI PUSH1 0x0 DUP1 REVERT JUMPDEST POP GAS CALL ISZERO DUP1 ISZERO PUSH2 0xA49 JUMPI RETURNDATASIZE PUSH1 0x0 DUP1 RETURNDATACOPY RETURNDATASIZE PUSH1 0x0 REVERT JUMPDEST POP POP POP POP PUSH1 0x40 MLOAD RETURNDATASIZE PUSH1 0x20 DUP2 LT ISZERO PUSH2 0xA5F JUMPI PUSH1 0x0 DUP1 REVERT JUMPDEST POP MLOAD PUSH2 0xA6A JUMPI PUSH1 0x0 DUP1 REVERT JUMPDEST PUSH1 0x0 DUP3 DUP2 MSTORE PUSH1 0x2 PUSH1 0x20 DUP2 DUP2 MSTORE PUSH1 0x40 DUP1 DUP5 KECCAK256 DUP1 SLOAD PUSH1 0x1 PUSH1 0x1 PUSH1 0xA0 SHL SUB NOT AND CALLER SWAP1 DUP2 OR DUP3 SSTORE PUSH1 0x1 DUP1 DUP4 ADD SWAP8 SWAP1 SWAP8 SSTORE TIMESTAMP SWAP5 DUP3 ADD SWAP5 SWAP1 SWAP5 SSTORE PUSH1 0x3 SWAP1 DUP2 ADD DUP1 SLOAD PUSH1 0xFF NOT AND SWAP1 SSTORE SWAP3 DUP5 MSTORE PUSH1 0x4 DUP3 MSTORE DUP1 DUP5 KECCAK256 DUP1 SLOAD SWAP1 SWAP6 ADD SWAP5 DUP6 SWAP1 SSTORE SWAP2 DUP2 MSTORE DUP2 DUP4 KECCAK256 SWAP4 DUP4 MSTORE SWAP3 SWAP1 SWAP3 MSTORE KECCAK256 SSTORE JUMP JUMPDEST PUSH1 0x2 PUSH1 0x20 DUP2 SWAP1 MSTORE PUSH1 0x0 SWAP2 DUP3 MSTORE PUSH1 0x40 SWAP1 SWAP2 KECCAK256 DUP1 SLOAD PUSH1 0x1 DUP3 ADD SLOAD SWAP3 DUP3 ADD SLOAD PUSH1 0x3 SWAP1 SWAP3 ADD SLOAD PUSH1 0x1 PUSH1 0x1 PUSH1 0xA0 SHL SUB SWAP1 SWAP2 AND SWAP3 SWAP2 SWAP1 PUSH1 0xFF AND DUP5 JUMP JUMPDEST PUSH1 0x1 PUSH1 0x1 PUSH1 0xA0 SHL SUB SWAP3 DUP4 AND PUSH1 0x0 SWAP1 DUP2 MSTORE PUSH1 0x6 PUSH1 0x20 SWAP1 DUP2 MSTORE PUSH1 0x40 DUP1 DUP4 KECCAK256 SWAP5 SWAP1 SWAP6 AND DUP3 MSTORE SWAP3 DUP4 MSTORE DUP4 DUP2 KECCAK256 SWAP2 DUP2 MSTORE SWAP2 MSTORE KECCAK256 SLOAD SWAP1 JUMP JUMPDEST PUSH1 0x1 PUSH1 0x1 PUSH1 0xA0 SHL SUB DUP2 AND PUSH1 0x0 SWAP1 DUP2 MSTORE PUSH1 0x4 PUSH1 0x20 MSTORE PUSH1 0x40 DUP2 KECCAK256 DUP2 DUP2 SSTORE PUSH1 0x1 SWAP1 DUP2 ADD DUP1 SLOAD PUSH1 0x2 SWAP3 PUSH1 0xFF NOT SWAP1 SWAP2 AND SWAP1 DUP4 JUMPDEST MUL OR SWAP1 SSTORE POP PUSH1 0x1 SWAP3 SWAP2 POP POP JUMP JUMPDEST PUSH1 0x1 PUSH1 0x1 PUSH1 0xA0 SHL SUB AND PUSH1 0x0 SWAP1 DUP2 MSTORE PUSH1 0x4 PUSH1 0x20 MSTORE PUSH1 0x40 SWAP1 KECCAK256 SLOAD SWAP1 JUMP JUMPDEST PUSH1 0x0 DUP2 DUP2 MSTORE PUSH1 0x5 PUSH1 0x20 MSTORE PUSH1 0x40 SWAP1 KECCAK256 PUSH1 0x3 ADD SLOAD PUSH1 0x1 PUSH1 0x1 PUSH1 0xA0 SHL SUB AND ORIGIN EQ PUSH2 0xBB3 JUMPI PUSH1 0x0 DUP1 REVERT JUMPDEST PUSH1 0x2 CALLER PUSH1 0x0 SWAP1 DUP2 MSTORE PUSH1 0x4 PUSH1 0x20 MSTORE PUSH1 0x40 SWAP1 KECCAK256 PUSH1 0x1 ADD SLOAD PUSH1 0xFF AND PUSH1 0x2 DUP2 GT ISZERO PUSH2 0xBD6 JUMPI INVALID JUMPDEST EQ PUSH2 0xBE0 JUMPI PUSH1 0x0 DUP1 REVERT JUMPDEST PUSH1 0x1 PUSH1 0x1 PUSH1 0xA0 SHL SUB DUP4 AND PUSH1 0x0 SWAP1 DUP2 MSTORE PUSH1 0x4 PUSH1 0x20 MSTORE PUSH1 0x40 DUP2 KECCAK256 PUSH1 0x1 ADD SLOAD PUSH1 0xFF AND PUSH1 0x2 DUP2 GT ISZERO PUSH2 0xC0A JUMPI INVALID JUMPDEST EQ PUSH2 0xC14 JUMPI PUSH1 0x0 DUP1 REVERT JUMPDEST ORIGIN PUSH1 0x0 SWAP1 DUP2 MSTORE PUSH1 0x4 PUSH1 0x20 MSTORE PUSH1 0x40 DUP2 KECCAK256 PUSH1 0x1 ADD SLOAD PUSH1 0xFF AND PUSH1 0x2 DUP2 GT ISZERO PUSH2 0xC35 JUMPI INVALID JUMPDEST EQ PUSH2 0xC3F JUMPI PUSH1 0x0 DUP1 REVERT JUMPDEST PUSH1 0x0 DUP2 DUP2 MSTORE PUSH1 0x5 PUSH1 0x20 MSTORE PUSH1 0x40 SWAP1 KECCAK256 SLOAD PUSH1 0x1 PUSH1 0x1 PUSH1 0xA0 SHL SUB AND CALLER EQ PUSH2 0xC62 JUMPI PUSH1 0x0 DUP1 REVERT JUMPDEST PUSH1 0x0 DUP2 DUP2 MSTORE PUSH1 0x2 PUSH1 0x20 MSTORE PUSH1 0x40 SWAP1 KECCAK256 SLOAD PUSH1 0x1 PUSH1 0x1 PUSH1 0xA0 SHL SUB DUP5 DUP2 AND SWAP2 AND EQ PUSH2 0xC88 JUMPI PUSH1 0x0 DUP1 REVERT JUMPDEST PUSH1 0x0 DUP2 DUP2 MSTORE PUSH1 0x5 PUSH1 0x20 MSTORE PUSH1 0x40 SWAP1 KECCAK256 PUSH1 0x1 ADD SLOAD TIMESTAMP GT ISZERO PUSH2 0xCA6 JUMPI PUSH1 0x0 DUP1 REVERT JUMPDEST PUSH2 0xCB2 DUP2 DUP5 ORIGIN DUP6 PUSH2 0x1A6C JUMP JUMPDEST PUSH1 0x40 DUP1 MLOAD CALLER DUP2 MSTORE PUSH1 0x1 PUSH1 0x1 PUSH1 0xA0 SHL SUB DUP6 AND PUSH1 0x20 DUP3 ADD MSTORE ORIGIN DUP2 DUP4 ADD MSTORE PUSH1 0x60 DUP2 ADD DUP5 SWAP1 MSTORE PUSH1 0x80 DUP2 ADD DUP4 SWAP1 MSTORE SWAP1 MLOAD PUSH32 0x2F8AE5F6F3D09A6D675498229FA3C6D3BA3D5FAAA90CFC85893ABB07589309FB SWAP2 DUP2 SWAP1 SUB PUSH1 0xA0 ADD SWAP1 LOG1 POP POP POP JUMP JUMPDEST PUSH1 0x0 SLOAD PUSH1 0x1 PUSH1 0xA0 SHL SWAP1 DIV PUSH1 0xFF AND SWAP1 JUMP JUMPDEST PUSH1 0x0 DUP2 DUP2 MSTORE PUSH1 0x2 PUSH1 0x20 MSTORE PUSH1 0x40 SWAP1 KECCAK256 SLOAD PUSH1 0x1 PUSH1 0x1 PUSH1 0xA0 SHL SUB AND CALLER EQ PUSH2 0xD3F JUMPI PUSH1 0x0 DUP1 REVERT JUMPDEST PUSH1 0x1 DUP1 SLOAD PUSH1 0x0 DUP4 DUP2 MSTORE PUSH1 0x2 PUSH1 0x20 SWAP1 DUP2 MSTORE PUSH1 0x40 DUP1 DUP4 KECCAK256 SWAP1 SWAP5 ADD SLOAD DUP5 MLOAD PUSH4 0x1CC74859 PUSH1 0xE0 SHL DUP2 MSTORE CALLER PUSH1 0x4 DUP3 ADD MSTORE PUSH1 0x24 DUP2 ADD SWAP2 SWAP1 SWAP2 MSTORE SWAP4 MLOAD PUSH1 0x1 PUSH1 0x1 PUSH1 0xA0 SHL SUB SWAP1 SWAP4 AND SWAP4 PUSH4 0x1CC74859 SWAP4 PUSH1 0x44 DUP1 DUP4 ADD SWAP5 SWAP2 SWAP3 DUP4 SWAP1 SUB ADD SWAP1 DUP3 SWAP1 DUP8 DUP1 EXTCODESIZE ISZERO DUP1 ISZERO PUSH2 0xDA4 JUMPI PUSH1 0x0 DUP1 REVERT JUMPDEST POP GAS CALL ISZERO DUP1 ISZERO PUSH2 0xDB8 JUMPI RETURNDATASIZE PUSH1 0x0 DUP1 RETURNDATACOPY RETURNDATASIZE PUSH1 0x0 REVERT JUMPDEST POP POP POP POP PUSH1 0x40 MLOAD RETURNDATASIZE PUSH1 0x20 DUP2 LT ISZERO PUSH2 0xDCE JUMPI PUSH1 0x0 DUP1 REVERT JUMPDEST POP MLOAD PUSH2 0xDD9 JUMPI PUSH1 0x0 DUP1 REVERT JUMPDEST PUSH1 0x0 DUP2 DUP2 MSTORE PUSH1 0x2 PUSH1 0x20 DUP2 SWAP1 MSTORE PUSH1 0x40 DUP3 KECCAK256 PUSH1 0x1 DUP2 ADD DUP4 SWAP1 SSTORE PUSH1 0x3 ADD DUP1 SLOAD PUSH1 0xFF NOT AND SWAP1 SWAP2 OR SWAP1 SSTORE DUP1 JUMPDEST CALLER PUSH1 0x0 SWAP1 DUP2 MSTORE PUSH1 0x4 PUSH1 0x20 MSTORE PUSH1 0x40 SWAP1 KECCAK256 SLOAD DUP2 LT ISZERO PUSH2 0xE58 JUMPI CALLER PUSH1 0x0 SWAP1 DUP2 MSTORE PUSH1 0x3 PUSH1 0x20 SWAP1 DUP2 MSTORE PUSH1 0x40 DUP1 DUP4 KECCAK256 PUSH1 0x1 DUP6 ADD DUP5 MSTORE SWAP1 SWAP2 MSTORE SWAP1 KECCAK256 SLOAD DUP4 EQ ISZERO PUSH2 0xE50 JUMPI CALLER PUSH1 0x0 SWAP1 DUP2 MSTORE PUSH1 0x4 PUSH1 0x20 MSTORE PUSH1 0x40 SWAP1 KECCAK256 SLOAD SWAP1 SWAP2 POP JUMPDEST PUSH1 0x1 ADD PUSH2 0xE00 JUMP JUMPDEST POP CALLER PUSH1 0x0 SWAP1 DUP2 MSTORE PUSH1 0x3 PUSH1 0x20 SWAP1 DUP2 MSTORE PUSH1 0x40 DUP1 DUP4 KECCAK256 PUSH1 0x1 SWAP1 SWAP5 ADD DUP4 MSTORE SWAP3 SWAP1 MSTORE SWAP1 DUP2 KECCAK256 SSTORE POP JUMP JUMPDEST PUSH1 0x0 SWAP1 DUP2 MSTORE PUSH1 0x2 PUSH1 0x20 MSTORE PUSH1 0x40 SWAP1 KECCAK256 PUSH1 0x1 ADD SLOAD SWAP1 JUMP JUMPDEST PUSH1 0x0 SWAP1 DUP2 MSTORE PUSH1 0x2 PUSH1 0x20 MSTORE PUSH1 0x40 SWAP1 KECCAK256 SLOAD PUSH1 0x1 PUSH1 0x1 PUSH1 0xA0 SHL SUB AND SWAP1 JUMP JUMPDEST PUSH1 0x0 DUP4 DUP2 MSTORE PUSH1 0x2 PUSH1 0x20 MSTORE PUSH1 0x40 DUP2 KECCAK256 SLOAD PUSH1 0x1 PUSH1 0x1 PUSH1 0xA0 SHL SUB AND ORIGIN EQ PUSH2 0xECF JUMPI PUSH1 0x0 DUP1 REVERT JUMPDEST PUSH1 0x2 CALLER PUSH1 0x0 SWAP1 DUP2 MSTORE PUSH1 0x4 PUSH1 0x20 MSTORE PUSH1 0x40 SWAP1 KECCAK256 PUSH1 0x1 ADD SLOAD PUSH1 0xFF AND PUSH1 0x2 DUP2 GT ISZERO PUSH2 0xEF2 JUMPI INVALID JUMPDEST EQ PUSH2 0xEFC JUMPI PUSH1 0x0 DUP1 REVERT JUMPDEST ORIGIN PUSH1 0x0 SWAP1 DUP2 MSTORE PUSH1 0x6 PUSH1 0x20 SWAP1 DUP2 MSTORE PUSH1 0x40 DUP1 DUP4 KECCAK256 CALLER DUP5 MSTORE DUP3 MSTORE DUP1 DUP4 KECCAK256 DUP8 DUP5 MSTORE SWAP1 SWAP2 MSTORE SWAP1 KECCAK256 SLOAD DUP3 GT ISZERO PUSH2 0xF5D JUMPI PUSH1 0x40 MLOAD PUSH3 0x461BCD PUSH1 0xE5 SHL DUP2 MSTORE PUSH1 0x4 ADD DUP1 DUP1 PUSH1 0x20 ADD DUP3 DUP2 SUB DUP3 MSTORE PUSH1 0x5C DUP2 MSTORE PUSH1 0x20 ADD DUP1 PUSH2 0x1DAB PUSH1 0x5C SWAP2 CODECOPY PUSH1 0x60 ADD SWAP2 POP POP PUSH1 0x40 MLOAD DUP1 SWAP2 SUB SWAP1 REVERT JUMPDEST POP PUSH1 0x0 SWAP3 DUP4 MSTORE PUSH1 0x2 PUSH1 0x20 DUP2 DUP2 MSTORE PUSH1 0x40 DUP1 DUP7 KECCAK256 PUSH1 0x3 SWAP1 DUP2 ADD DUP1 SLOAD PUSH1 0xFF NOT AND PUSH1 0x1 SWAP1 DUP2 OR SWAP1 SWAP2 SSTORE PUSH1 0x5 SWAP1 SWAP4 MSTORE SWAP6 KECCAK256 DUP1 SLOAD PUSH1 0x1 PUSH1 0x1 PUSH1 0xA0 SHL SUB NOT SWAP1 DUP2 AND CALLER OR DUP3 SSTORE DUP2 DUP4 ADD SWAP6 SWAP1 SWAP6 SSTORE SWAP2 DUP3 ADD SWAP3 SWAP1 SWAP3 SSTORE SWAP1 SWAP3 ADD DUP1 SLOAD PUSH1 0x1 PUSH1 0x1 PUSH1 0xA0 SHL SUB SWAP5 SWAP1 SWAP5 AND SWAP4 SWAP1 SWAP2 AND SWAP3 SWAP1 SWAP3 OR SWAP1 SWAP2 SSTORE SWAP1 JUMP JUMPDEST PUSH1 0x0 DUP1 DUP1 JUMPDEST PUSH1 0x1 PUSH1 0x1 PUSH1 0xA0 SHL SUB DUP5 AND PUSH1 0x0 SWAP1 DUP2 MSTORE PUSH1 0x4 PUSH1 0x20 MSTORE PUSH1 0x40 SWAP1 KECCAK256 SLOAD DUP2 LT ISZERO PUSH2 0x105C JUMPI PUSH1 0x1 PUSH1 0x1 PUSH1 0xA0 SHL SUB DUP5 AND PUSH1 0x0 SWAP1 DUP2 MSTORE PUSH1 0x3 PUSH1 0x20 SWAP1 DUP2 MSTORE PUSH1 0x40 DUP1 DUP4 KECCAK256 PUSH1 0x1 DUP6 ADD DUP5 MSTORE SWAP1 SWAP2 MSTORE SWAP1 KECCAK256 SLOAD ISZERO PUSH2 0x1054 JUMPI PUSH1 0x1 PUSH1 0x1 PUSH1 0xA0 SHL SUB DUP5 AND PUSH1 0x0 SWAP1 DUP2 MSTORE PUSH1 0x3 PUSH1 0x20 SWAP1 DUP2 MSTORE PUSH1 0x40 DUP1 DUP4 KECCAK256 PUSH1 0x1 DUP1 DUP7 ADD DUP6 MSTORE SWAP1 DUP4 MSTORE DUP2 DUP5 KECCAK256 SLOAD DUP5 MSTORE PUSH1 0x2 SWAP1 SWAP3 MSTORE SWAP1 SWAP2 KECCAK256 ADD SLOAD SWAP2 SWAP1 SWAP2 ADD SWAP1 JUMPDEST PUSH1 0x1 ADD PUSH2 0xFCD JUMP JUMPDEST POP SWAP3 SWAP2 POP POP JUMP JUMPDEST PUSH1 0x1 PUSH1 0x1 PUSH1 0xA0 SHL SUB DUP2 AND PUSH1 0x0 SWAP1 DUP2 MSTORE PUSH1 0x4 PUSH1 0x20 MSTORE PUSH1 0x40 SWAP1 KECCAK256 SLOAD PUSH1 0x60 SWAP1 DUP2 SWAP1 PUSH8 0xFFFFFFFFFFFFFFFF DUP2 GT DUP1 ISZERO PUSH2 0x1097 JUMPI PUSH1 0x0 DUP1 REVERT JUMPDEST POP PUSH1 0x40 MLOAD SWAP1 DUP1 DUP3 MSTORE DUP1 PUSH1 0x20 MUL PUSH1 0x20 ADD DUP3 ADD PUSH1 0x40 MSTORE DUP1 ISZERO PUSH2 0x10C1 JUMPI DUP2 PUSH1 0x20 ADD PUSH1 0x20 DUP3 MUL DUP1 CALLDATASIZE DUP4 CALLDATACOPY ADD SWAP1 POP JUMPDEST POP SWAP1 POP PUSH1 0x0 JUMPDEST PUSH1 0x1 PUSH1 0x1 PUSH1 0xA0 SHL SUB DUP5 AND PUSH1 0x0 SWAP1 DUP2 MSTORE PUSH1 0x4 PUSH1 0x20 MSTORE PUSH1 0x40 SWAP1 KECCAK256 SLOAD DUP2 LT ISZERO PUSH2 0x105C JUMPI PUSH1 0x1 PUSH1 0x1 PUSH1 0xA0 SHL SUB DUP5 AND PUSH1 0x0 SWAP1 DUP2 MSTORE PUSH1 0x3 PUSH1 0x20 SWAP1 DUP2 MSTORE PUSH1 0x40 DUP1 DUP4 KECCAK256 PUSH1 0x1 DUP6 ADD DUP5 MSTORE SWAP1 SWAP2 MSTORE SWAP1 KECCAK256 SLOAD DUP3 MLOAD DUP4 SWAP1 DUP4 SWAP1 DUP2 LT PUSH2 0x111C JUMPI INVALID JUMPDEST PUSH1 0x20 SWAP1 DUP2 MUL SWAP2 SWAP1 SWAP2 ADD ADD MSTORE PUSH1 0x1 ADD PUSH2 0x10C7 JUMP JUMPDEST PUSH1 0x0 DUP2 DUP2 MSTORE PUSH1 0x2 PUSH1 0x20 DUP2 SWAP1 MSTORE PUSH1 0x40 DUP3 KECCAK256 PUSH1 0x3 ADD SLOAD PUSH1 0xFF AND SWAP1 DUP2 GT ISZERO PUSH2 0x1150 JUMPI INVALID JUMPDEST SWAP3 SWAP2 POP POP JUMP JUMPDEST PUSH1 0x0 SLOAD PUSH1 0x1 PUSH1 0x1 PUSH1 0xA0 SHL SUB AND CALLER EQ PUSH2 0x116D JUMPI PUSH1 0x0 DUP1 REVERT JUMPDEST PUSH1 0x1 PUSH1 0x1 PUSH1 0x1 PUSH1 0xA0 SHL SUB DUP3 AND PUSH1 0x0 SWAP1 DUP2 MSTORE PUSH1 0x4 PUSH1 0x20 MSTORE PUSH1 0x40 SWAP1 KECCAK256 PUSH1 0x1 ADD SLOAD PUSH1 0xFF AND PUSH1 0x2 DUP2 GT ISZERO PUSH2 0x1199 JUMPI INVALID JUMPDEST EQ PUSH2 0x11A3 JUMPI PUSH1 0x0 DUP1 REVERT JUMPDEST PUSH1 0x1 PUSH1 0x1 PUSH1 0xA0 SHL SUB DUP2 AND PUSH1 0x0 SWAP1 DUP2 MSTORE PUSH1 0x4 PUSH1 0x20 MSTORE PUSH1 0x40 DUP2 KECCAK256 PUSH1 0x1 SWAP1 DUP2 ADD DUP1 SLOAD SWAP1 SWAP2 PUSH1 0xFF NOT SWAP1 SWAP2 AND SWAP1 DUP4 JUMPDEST MUL OR SWAP1 SSTORE POP POP JUMP JUMPDEST PUSH1 0x1 ORIGIN PUSH1 0x0 SWAP1 DUP2 MSTORE PUSH1 0x4 PUSH1 0x20 MSTORE PUSH1 0x40 SWAP1 KECCAK256 PUSH1 0x1 ADD SLOAD PUSH1 0xFF AND PUSH1 0x2 DUP2 GT ISZERO PUSH2 0x11F8 JUMPI INVALID JUMPDEST EQ PUSH2 0x1202 JUMPI PUSH1 0x0 DUP1 REVERT JUMPDEST PUSH1 0x1 PUSH1 0x1 PUSH1 0xA0 SHL SUB DUP4 AND PUSH1 0x0 SWAP1 DUP2 MSTORE PUSH1 0x4 PUSH1 0x20 MSTORE PUSH1 0x40 DUP2 KECCAK256 PUSH1 0x1 ADD SLOAD PUSH1 0xFF AND PUSH1 0x2 DUP2 GT ISZERO PUSH2 0x122C JUMPI INVALID JUMPDEST EQ PUSH2 0x1236 JUMPI PUSH1 0x0 DUP1 REVERT JUMPDEST PUSH1 0x1 PUSH1 0x1 PUSH1 0xA0 SHL SUB DUP3 AND PUSH1 0x0 SWAP1 DUP2 MSTORE PUSH1 0x4 PUSH1 0x20 MSTORE PUSH1 0x40 DUP2 KECCAK256 PUSH1 0x1 ADD SLOAD PUSH1 0xFF AND PUSH1 0x2 DUP2 GT ISZERO PUSH2 0x1260 JUMPI INVALID JUMPDEST EQ PUSH2 0x126A JUMPI PUSH1 0x0 DUP1 REVERT JUMPDEST PUSH2 0x128C DUP2 DUP5 DUP5 PUSH1 0x2 PUSH1 0x0 DUP7 DUP2 MSTORE PUSH1 0x20 ADD SWAP1 DUP2 MSTORE PUSH1 0x20 ADD PUSH1 0x0 KECCAK256 PUSH1 0x1 ADD SLOAD PUSH2 0x1A6C JUMP JUMPDEST PUSH1 0x0 DUP2 DUP2 MSTORE PUSH1 0x2 PUSH1 0x20 SWAP1 DUP2 MSTORE PUSH1 0x40 SWAP2 DUP3 SWAP1 KECCAK256 PUSH1 0x1 ADD SLOAD DUP3 MLOAD ORIGIN DUP2 MSTORE SWAP2 DUP3 ADD MSTORE DUP1 DUP3 ADD DUP4 SWAP1 MSTORE SWAP1 MLOAD PUSH1 0x1 PUSH1 0x1 PUSH1 0xA0 SHL SUB DUP1 DUP6 AND SWAP3 SWAP1 DUP7 AND SWAP2 PUSH32 0xD723526895FC65DB0ACF8A82FC5AD744CC7B5C1CA543E2C1554AF226C5D3B1B2 SWAP2 DUP2 SWAP1 SUB PUSH1 0x60 ADD SWAP1 LOG3 POP POP POP JUMP JUMPDEST PUSH1 0x2 CALLER PUSH1 0x0 SWAP1 DUP2 MSTORE PUSH1 0x4 PUSH1 0x20 MSTORE PUSH1 0x40 SWAP1 KECCAK256 PUSH1 0x1 ADD SLOAD PUSH1 0xFF AND PUSH1 0x2 DUP2 GT ISZERO PUSH2 0x1315 JUMPI INVALID JUMPDEST EQ PUSH2 0x131F JUMPI PUSH1 0x0 DUP1 REVERT JUMPDEST PUSH1 0x1 PUSH1 0x1 PUSH1 0xA0 SHL SUB DUP5 AND PUSH1 0x0 SWAP1 DUP2 MSTORE PUSH1 0x4 PUSH1 0x20 MSTORE PUSH1 0x40 DUP2 KECCAK256 PUSH1 0x1 ADD SLOAD PUSH1 0xFF AND PUSH1 0x2 DUP2 GT ISZERO PUSH2 0x1349 JUMPI INVALID JUMPDEST EQ PUSH2 0x1353 JUMPI PUSH1 0x0 DUP1 REVERT JUMPDEST PUSH1 0x1 PUSH1 0x1 PUSH1 0xA0 SHL SUB DUP4 AND PUSH1 0x0 SWAP1 DUP2 MSTORE PUSH1 0x4 PUSH1 0x20 MSTORE PUSH1 0x40 DUP2 KECCAK256 PUSH1 0x1 ADD SLOAD PUSH1 0xFF AND PUSH1 0x2 DUP2 GT ISZERO PUSH2 0x137D JUMPI INVALID JUMPDEST EQ PUSH2 0x1387 JUMPI PUSH1 0x0 DUP1 REVERT JUMPDEST PUSH1 0x0 DUP2 DUP2 MSTORE PUSH1 0x2 PUSH1 0x20 MSTORE PUSH1 0x40 SWAP1 KECCAK256 SLOAD PUSH1 0x1 PUSH1 0x1 PUSH1 0xA0 SHL SUB DUP6 DUP2 AND SWAP2 AND EQ PUSH2 0x13AD JUMPI PUSH1 0x0 DUP1 REVERT JUMPDEST PUSH2 0x13B9 DUP2 DUP6 DUP6 DUP6 PUSH2 0x1A6C JUMP JUMPDEST PUSH1 0x40 DUP1 MLOAD CALLER DUP2 MSTORE PUSH1 0x1 PUSH1 0x1 PUSH1 0xA0 SHL SUB DUP1 DUP8 AND PUSH1 0x20 DUP4 ADD MSTORE DUP6 AND DUP2 DUP4 ADD MSTORE PUSH1 0x60 DUP2 ADD DUP5 SWAP1 MSTORE PUSH1 0x80 DUP2 ADD DUP4 SWAP1 MSTORE SWAP1 MLOAD PUSH32 0xF3665006498C43504090A58C1D42CE5073B77CCC50E2FE916967087E52FD3A0C SWAP2 DUP2 SWAP1 SUB PUSH1 0xA0 ADD SWAP1 LOG1 POP POP POP POP JUMP JUMPDEST PUSH1 0x3 PUSH1 0x20 SWAP1 DUP2 MSTORE PUSH1 0x0 SWAP3 DUP4 MSTORE PUSH1 0x40 DUP1 DUP5 KECCAK256 SWAP1 SWAP2 MSTORE SWAP1 DUP3 MSTORE SWAP1 KECCAK256 SLOAD DUP2 JUMP JUMPDEST ORIGIN SWAP1 JUMP JUMPDEST PUSH1 0x0 SLOAD PUSH1 0x1 PUSH1 0x1 PUSH1 0xA0 SHL SUB AND CALLER EQ PUSH2 0x144E JUMPI PUSH1 0x0 DUP1 REVERT JUMPDEST PUSH1 0x1 SLOAD PUSH1 0x40 DUP1 MLOAD PUSH4 0x70A08231 PUSH1 0xE0 SHL DUP2 MSTORE PUSH1 0x1 PUSH1 0x1 PUSH1 0xA0 SHL SUB DUP5 DUP2 AND PUSH1 0x4 DUP4 ADD MSTORE SWAP2 MLOAD PUSH1 0x0 SWAP4 SWAP3 SWAP1 SWAP3 AND SWAP2 PUSH4 0x70A08231 SWAP2 PUSH1 0x24 DUP1 DUP3 ADD SWAP3 PUSH1 0x20 SWAP3 SWAP1 SWAP2 SWAP1 DUP3 SWAP1 SUB ADD DUP2 DUP7 DUP1 EXTCODESIZE ISZERO DUP1 ISZERO PUSH2 0x149F JUMPI PUSH1 0x0 DUP1 REVERT JUMPDEST POP GAS STATICCALL ISZERO DUP1 ISZERO PUSH2 0x14B3 JUMPI RETURNDATASIZE PUSH1 0x0 DUP1 RETURNDATACOPY RETURNDATASIZE PUSH1 0x0 REVERT JUMPDEST POP POP POP POP PUSH1 0x40 MLOAD RETURNDATASIZE PUSH1 0x20 DUP2 LT ISZERO PUSH2 0x14C9 JUMPI PUSH1 0x0 DUP1 REVERT JUMPDEST POP MLOAD LT ISZERO PUSH2 0x14D6 JUMPI PUSH1 0x0 DUP1 REVERT JUMPDEST PUSH1 0x1 PUSH1 0x1 PUSH1 0xA0 SHL SUB DUP2 AND PUSH1 0x0 SWAP1 DUP2 MSTORE PUSH1 0x4 PUSH1 0x20 MSTORE PUSH1 0x40 DUP2 KECCAK256 PUSH1 0x1 ADD SLOAD PUSH1 0xFF AND PUSH1 0x2 DUP2 GT ISZERO PUSH2 0x1500 JUMPI INVALID JUMPDEST EQ PUSH2 0x150A JUMPI PUSH1 0x0 DUP1 REVERT JUMPDEST PUSH1 0x1 PUSH1 0x1 PUSH1 0xA0 SHL SUB DUP2 AND PUSH1 0x0 SWAP1 DUP2 MSTORE PUSH1 0x4 PUSH1 0x20 MSTORE PUSH1 0x40 SWAP1 KECCAK256 PUSH1 0x1 SWAP1 DUP2 ADD DUP1 SLOAD PUSH1 0xFF NOT AND DUP3 DUP1 PUSH2 0x11CD JUMP JUMPDEST PUSH1 0x1 SLOAD PUSH1 0x40 DUP1 MLOAD PUSH4 0x70A08231 PUSH1 0xE0 SHL DUP2 MSTORE CALLER PUSH1 0x4 DUP3 ADD MSTORE SWAP1 MLOAD PUSH1 0x0 SWAP3 PUSH1 0x1 PUSH1 0x1 PUSH1 0xA0 SHL SUB AND SWAP2 PUSH4 0x70A08231 SWAP2 PUSH1 0x24 DUP1 DUP4 ADD SWAP3 PUSH1 0x20 SWAP3 SWAP2 SWAP1 DUP3 SWAP1 SUB ADD DUP2 DUP7 DUP1 EXTCODESIZE ISZERO DUP1 ISZERO PUSH2 0x157F JUMPI PUSH1 0x0 DUP1 REVERT JUMPDEST POP GAS STATICCALL ISZERO DUP1 ISZERO PUSH2 0x1593 JUMPI RETURNDATASIZE PUSH1 0x0 DUP1 RETURNDATACOPY RETURNDATASIZE PUSH1 0x0 REVERT JUMPDEST POP POP POP POP PUSH1 0x40 MLOAD RETURNDATASIZE PUSH1 0x20 DUP2 LT ISZERO PUSH2 0x15A9 JUMPI PUSH1 0x0 DUP1 REVERT JUMPDEST POP MLOAD LT ISZERO PUSH2 0x15B6 JUMPI PUSH1 0x0 DUP1 REVERT JUMPDEST CALLER PUSH1 0x0 SWAP1 DUP2 MSTORE PUSH1 0x4 PUSH1 0x20 MSTORE PUSH1 0x40 DUP2 KECCAK256 SWAP1 DUP2 SSTORE PUSH1 0x1 ADD DUP1 SLOAD PUSH1 0xFF NOT AND SWAP1 SSTORE JUMP JUMPDEST PUSH1 0x0 DUP2 DUP2 MSTORE PUSH1 0x2 PUSH1 0x20 MSTORE PUSH1 0x40 DUP2 KECCAK256 SLOAD PUSH1 0x1 PUSH1 0x1 PUSH1 0xA0 SHL SUB DUP5 DUP2 AND SWAP2 AND EQ PUSH2 0x162D JUMPI PUSH1 0x40 MLOAD PUSH3 0x461BCD PUSH1 0xE5 SHL DUP2 MSTORE PUSH1 0x4 ADD DUP1 DUP1 PUSH1 0x20 ADD DUP3 DUP2 SUB DUP3 MSTORE PUSH1 0x33 DUP2 MSTORE PUSH1 0x20 ADD DUP1 PUSH2 0x1D78 PUSH1 0x33 SWAP2 CODECOPY PUSH1 0x40 ADD SWAP2 POP POP PUSH1 0x40 MLOAD DUP1 SWAP2 SUB SWAP1 REVERT JUMPDEST PUSH1 0x2 CALLER PUSH1 0x0 SWAP1 DUP2 MSTORE PUSH1 0x4 PUSH1 0x20 MSTORE PUSH1 0x40 SWAP1 KECCAK256 PUSH1 0x1 ADD SLOAD PUSH1 0xFF AND PUSH1 0x2 DUP2 GT ISZERO PUSH2 0x1650 JUMPI INVALID JUMPDEST EQ PUSH2 0x168C JUMPI PUSH1 0x40 MLOAD PUSH3 0x461BCD PUSH1 0xE5 SHL DUP2 MSTORE PUSH1 0x4 ADD DUP1 DUP1 PUSH1 0x20 ADD DUP3 DUP2 SUB DUP3 MSTORE PUSH1 0x45 DUP2 MSTORE PUSH1 0x20 ADD DUP1 PUSH2 0x1D33 PUSH1 0x45 SWAP2 CODECOPY PUSH1 0x60 ADD SWAP2 POP POP PUSH1 0x40 MLOAD DUP1 SWAP2 SUB SWAP1 REVERT JUMPDEST PUSH1 0x0 DUP3 DUP2 MSTORE PUSH1 0x2 PUSH1 0x20 SWAP1 DUP2 MSTORE PUSH1 0x40 DUP1 DUP4 KECCAK256 PUSH1 0x3 ADD DUP1 SLOAD PUSH1 0xFF NOT AND SWAP1 SSTORE PUSH1 0x5 SWAP1 SWAP2 MSTORE SWAP1 KECCAK256 PUSH1 0x1 ADD SLOAD TIMESTAMP LT ISZERO PUSH2 0x16D0 JUMPI PUSH1 0x0 DUP3 DUP2 MSTORE PUSH1 0x5 PUSH1 0x20 MSTORE PUSH1 0x40 SWAP1 KECCAK256 TIMESTAMP PUSH1 0x1 SWAP1 SWAP2 ADD SSTORE JUMPDEST POP PUSH1 0x1 SWAP3 SWAP2 POP POP JUMP JUMPDEST PUSH1 0x1 PUSH1 0x1 PUSH1 0xA0 SHL SUB SWAP2 SWAP1 SWAP2 AND PUSH1 0x0 SWAP1 DUP2 MSTORE PUSH1 0x3 PUSH1 0x20 SWAP1 DUP2 MSTORE PUSH1 0x40 DUP1 DUP4 KECCAK256 SWAP4 DUP4 MSTORE SWAP3 SWAP1 MSTORE KECCAK256 SLOAD SWAP1 JUMP JUMPDEST PUSH1 0x1 ORIGIN PUSH1 0x0 SWAP1 DUP2 MSTORE PUSH1 0x4 PUSH1 0x20 MSTORE PUSH1 0x40 SWAP1 KECCAK256 PUSH1 0x1 ADD SLOAD PUSH1 0xFF AND PUSH1 0x2 DUP2 GT ISZERO PUSH2 0x1724 JUMPI INVALID JUMPDEST EQ PUSH2 0x172E JUMPI PUSH1 0x0 DUP1 REVERT JUMPDEST PUSH1 0x1 PUSH1 0x1 PUSH1 0xA0 SHL SUB DUP3 AND PUSH1 0x0 SWAP1 DUP2 MSTORE PUSH1 0x4 PUSH1 0x20 MSTORE PUSH1 0x40 DUP2 KECCAK256 PUSH1 0x1 ADD SLOAD PUSH1 0xFF AND PUSH1 0x2 DUP2 GT ISZERO PUSH2 0x1758 JUMPI INVALID JUMPDEST EQ PUSH2 0x1762 JUMPI PUSH1 0x0 DUP1 REVERT JUMPDEST PUSH2 0x1784 DUP2 DUP4 ORIGIN PUSH1 0x2 PUSH1 0x0 DUP7 DUP2 MSTORE PUSH1 0x20 ADD SWAP1 DUP2 MSTORE PUSH1 0x20 ADD PUSH1 0x0 KECCAK256 PUSH1 0x1 ADD SLOAD PUSH2 0x1A6C JUMP JUMPDEST PUSH1 0x0 DUP2 DUP2 MSTORE PUSH1 0x2 PUSH1 0x20 SWAP1 DUP2 MSTORE PUSH1 0x40 SWAP2 DUP3 SWAP1 KECCAK256 PUSH1 0x1 ADD SLOAD DUP3 MLOAD ORIGIN DUP2 MSTORE SWAP2 DUP3 ADD MSTORE DUP1 DUP3 ADD DUP4 SWAP1 MSTORE SWAP1 MLOAD PUSH1 0x1 PUSH1 0x1 PUSH1 0xA0 SHL SUB DUP5 AND SWAP2 PUSH32 0x5CBE58C63D4E8D44ED895CB43CC52BBE40BCF56A6F32E215112961D9921AAA60 SWAP2 SWAP1 DUP2 SWAP1 SUB PUSH1 0x60 ADD SWAP1 LOG2 POP POP JUMP JUMPDEST PUSH1 0x0 PUSH1 0x2 CALLER PUSH1 0x0 SWAP1 DUP2 MSTORE PUSH1 0x4 PUSH1 0x20 MSTORE PUSH1 0x40 SWAP1 KECCAK256 PUSH1 0x1 ADD SLOAD PUSH1 0xFF AND PUSH1 0x2 DUP2 GT ISZERO PUSH2 0x180A JUMPI INVALID JUMPDEST EQ PUSH2 0x1814 JUMPI PUSH1 0x0 DUP1 REVERT JUMPDEST ORIGIN PUSH1 0x0 SWAP1 DUP2 MSTORE PUSH1 0x4 PUSH1 0x20 MSTORE PUSH1 0x40 DUP2 KECCAK256 PUSH1 0x1 ADD SLOAD PUSH1 0xFF AND PUSH1 0x2 DUP2 GT ISZERO PUSH2 0x1835 JUMPI INVALID JUMPDEST EQ PUSH2 0x183F JUMPI PUSH1 0x0 DUP1 REVERT JUMPDEST PUSH1 0x0 DUP3 DUP2 MSTORE PUSH1 0x5 PUSH1 0x20 MSTORE PUSH1 0x40 SWAP1 KECCAK256 SLOAD PUSH1 0x1 PUSH1 0x1 PUSH1 0xA0 SHL SUB AND CALLER EQ PUSH2 0x1862 JUMPI PUSH1 0x0 DUP1 REVERT JUMPDEST PUSH1 0x0 DUP3 DUP2 MSTORE PUSH1 0x5 PUSH1 0x20 MSTORE PUSH1 0x40 SWAP1 KECCAK256 PUSH1 0x3 ADD SLOAD PUSH1 0x1 PUSH1 0x1 PUSH1 0xA0 SHL SUB AND ORIGIN EQ PUSH2 0x1888 JUMPI PUSH1 0x0 DUP1 REVERT JUMPDEST PUSH1 0x1 PUSH1 0x0 DUP4 DUP2 MSTORE PUSH1 0x2 PUSH1 0x20 DUP2 SWAP1 MSTORE PUSH1 0x40 SWAP1 SWAP2 KECCAK256 PUSH1 0x3 ADD SLOAD PUSH1 0xFF AND SWAP1 DUP2 GT ISZERO PUSH2 0x18AC JUMPI INVALID JUMPDEST EQ PUSH2 0x18B6 JUMPI PUSH1 0x0 DUP1 REVERT JUMPDEST PUSH1 0x0 DUP3 DUP2 MSTORE PUSH1 0x2 PUSH1 0x20 SWAP1 DUP2 MSTORE PUSH1 0x40 DUP1 DUP4 KECCAK256 SLOAD PUSH1 0x1 PUSH1 0x1 PUSH1 0xA0 SHL SUB AND DUP4 MSTORE PUSH1 0x6 DUP3 MSTORE DUP1 DUP4 KECCAK256 CALLER DUP5 MSTORE DUP3 MSTORE DUP1 DUP4 KECCAK256 DUP6 DUP5 MSTORE DUP3 MSTORE DUP1 DUP4 KECCAK256 DUP4 SWAP1 SSTORE PUSH1 0x5 SWAP1 SWAP2 MSTORE SWAP1 KECCAK256 PUSH1 0x1 ADD SLOAD TIMESTAMP GT ISZERO PUSH2 0x1904 JUMPI PUSH1 0x0 DUP1 REVERT JUMPDEST POP PUSH1 0x0 SWAP1 DUP2 MSTORE PUSH1 0x2 PUSH1 0x20 SWAP1 DUP2 MSTORE PUSH1 0x40 DUP1 DUP4 KECCAK256 PUSH1 0x3 ADD DUP1 SLOAD PUSH1 0xFF NOT AND SWAP1 SSTORE PUSH1 0x5 SWAP1 SWAP2 MSTORE SWAP1 KECCAK256 TIMESTAMP PUSH1 0x1 SWAP2 DUP3 ADD SSTORE SWAP1 JUMP JUMPDEST PUSH1 0x0 PUSH1 0x2 CALLER PUSH1 0x0 SWAP1 DUP2 MSTORE PUSH1 0x4 PUSH1 0x20 MSTORE PUSH1 0x40 SWAP1 KECCAK256 PUSH1 0x1 ADD SLOAD PUSH1 0xFF AND PUSH1 0x2 DUP2 GT ISZERO PUSH2 0x1957 JUMPI INVALID JUMPDEST EQ PUSH2 0x1961 JUMPI PUSH1 0x0 DUP1 REVERT JUMPDEST ORIGIN PUSH1 0x0 SWAP1 DUP2 MSTORE PUSH1 0x4 PUSH1 0x20 MSTORE PUSH1 0x40 DUP2 KECCAK256 PUSH1 0x1 ADD SLOAD PUSH1 0xFF AND PUSH1 0x2 DUP2 GT ISZERO PUSH2 0x1982 JUMPI INVALID JUMPDEST EQ PUSH2 0x198C JUMPI PUSH1 0x0 DUP1 REVERT JUMPDEST PUSH1 0x0 DUP3 DUP2 MSTORE PUSH1 0x5 PUSH1 0x20 MSTORE PUSH1 0x40 SWAP1 KECCAK256 SLOAD PUSH1 0x1 PUSH1 0x1 PUSH1 0xA0 SHL SUB AND CALLER EQ PUSH2 0x19AF JUMPI PUSH1 0x0 DUP1 REVERT JUMPDEST PUSH1 0x0 DUP3 DUP2 MSTORE PUSH1 0x2 PUSH1 0x20 MSTORE PUSH1 0x40 SWAP1 KECCAK256 SLOAD PUSH1 0x1 PUSH1 0x1 PUSH1 0xA0 SHL SUB AND ORIGIN EQ PUSH2 0x19D2 JUMPI PUSH1 0x0 DUP1 REVERT JUMPDEST PUSH1 0x1 PUSH1 0x0 DUP4 DUP2 MSTORE PUSH1 0x2 PUSH1 0x20 DUP2 SWAP1 MSTORE PUSH1 0x40 SWAP1 SWAP2 KECCAK256 PUSH1 0x3 ADD SLOAD PUSH1 0xFF AND SWAP1 DUP2 GT ISZERO PUSH2 0x19F6 JUMPI INVALID JUMPDEST EQ PUSH2 0x1A00 JUMPI PUSH1 0x0 DUP1 REVERT JUMPDEST PUSH1 0x0 DUP3 DUP2 MSTORE PUSH1 0x2 PUSH1 0x20 SWAP1 DUP2 MSTORE PUSH1 0x40 DUP1 DUP4 KECCAK256 SLOAD PUSH1 0x1 PUSH1 0x1 PUSH1 0xA0 SHL SUB AND DUP4 MSTORE PUSH1 0x6 DUP3 MSTORE DUP1 DUP4 KECCAK256 CALLER DUP5 MSTORE DUP3 MSTORE DUP1 DUP4 KECCAK256 DUP6 DUP5 MSTORE DUP3 MSTORE DUP1 DUP4 KECCAK256 DUP4 SWAP1 SSTORE PUSH1 0x5 SWAP1 SWAP2 MSTORE SWAP1 KECCAK256 PUSH1 0x1 ADD SLOAD TIMESTAMP GT PUSH2 0x1A4D JUMPI PUSH1 0x0 DUP1 REVERT JUMPDEST PUSH1 0x0 DUP3 DUP2 MSTORE PUSH1 0x2 PUSH1 0x20 MSTORE PUSH1 0x40 DUP2 KECCAK256 PUSH1 0x3 ADD DUP1 SLOAD PUSH1 0xFF NOT AND PUSH1 0x1 DUP4 PUSH2 0xB65 JUMP JUMPDEST PUSH1 0x1 SLOAD PUSH1 0x40 DUP1 MLOAD PUSH4 0x70A08231 PUSH1 0xE0 SHL DUP2 MSTORE PUSH1 0x1 PUSH1 0x1 PUSH1 0xA0 SHL SUB DUP6 DUP2 AND PUSH1 0x4 DUP4 ADD MSTORE SWAP2 MLOAD DUP5 SWAP4 SWAP3 SWAP1 SWAP3 AND SWAP2 PUSH4 0x70A08231 SWAP2 PUSH1 0x24 DUP1 DUP3 ADD SWAP3 PUSH1 0x20 SWAP3 SWAP1 SWAP2 SWAP1 DUP3 SWAP1 SUB ADD DUP2 DUP7 DUP1 EXTCODESIZE ISZERO DUP1 ISZERO PUSH2 0x1ABC JUMPI PUSH1 0x0 DUP1 REVERT JUMPDEST POP GAS STATICCALL ISZERO DUP1 ISZERO PUSH2 0x1AD0 JUMPI RETURNDATASIZE PUSH1 0x0 DUP1 RETURNDATACOPY RETURNDATASIZE PUSH1 0x0 REVERT JUMPDEST POP POP POP POP PUSH1 0x40 MLOAD RETURNDATASIZE PUSH1 0x20 DUP2 LT ISZERO PUSH2 0x1AE6 JUMPI PUSH1 0x0 DUP1 REVERT JUMPDEST POP MLOAD LT ISZERO PUSH2 0x1AF3 JUMPI PUSH1 0x0 DUP1 REVERT JUMPDEST PUSH1 0x0 DUP5 DUP2 MSTORE PUSH1 0x2 PUSH1 0x20 MSTORE PUSH1 0x40 SWAP1 KECCAK256 SLOAD PUSH1 0x1 PUSH1 0x1 PUSH1 0xA0 SHL SUB DUP5 DUP2 AND SWAP2 AND EQ PUSH2 0x1B19 JUMPI PUSH1 0x0 DUP1 REVERT JUMPDEST PUSH1 0x1 SLOAD PUSH1 0x40 DUP1 MLOAD PUSH4 0x6EB1769F PUSH1 0xE1 SHL DUP2 MSTORE PUSH1 0x1 PUSH1 0x1 PUSH1 0xA0 SHL SUB DUP6 DUP2 AND PUSH1 0x4 DUP4 ADD MSTORE ADDRESS PUSH1 0x24 DUP4 ADD MSTORE SWAP2 MLOAD DUP5 SWAP4 SWAP3 SWAP1 SWAP3 AND SWAP2 PUSH4 0xDD62ED3E SWAP2 PUSH1 0x44 DUP1 DUP3 ADD SWAP3 PUSH1 0x20 SWAP3 SWAP1 SWAP2 SWAP1 DUP3 SWAP1 SUB ADD DUP2 DUP7 DUP1 EXTCODESIZE ISZERO DUP1 ISZERO PUSH2 0x1B6F JUMPI PUSH1 0x0 DUP1 REVERT JUMPDEST POP GAS STATICCALL ISZERO DUP1 ISZERO PUSH2 0x1B83 JUMPI RETURNDATASIZE PUSH1 0x0 DUP1 RETURNDATACOPY RETURNDATASIZE PUSH1 0x0 REVERT JUMPDEST POP POP POP POP PUSH1 0x40 MLOAD RETURNDATASIZE PUSH1 0x20 DUP2 LT ISZERO PUSH2 0x1B99 JUMPI PUSH1 0x0 DUP1 REVERT JUMPDEST POP MLOAD LT ISZERO PUSH2 0x1BA6 JUMPI PUSH1 0x0 DUP1 REVERT JUMPDEST PUSH1 0x1 SLOAD PUSH1 0x40 DUP1 MLOAD PUSH4 0x23B872DD PUSH1 0xE0 SHL DUP2 MSTORE PUSH1 0x1 PUSH1 0x1 PUSH1 0xA0 SHL SUB DUP6 DUP2 AND PUSH1 0x4 DUP4 ADD MSTORE DUP7 DUP2 AND PUSH1 0x24 DUP4 ADD MSTORE PUSH1 0x44 DUP3 ADD DUP6 SWAP1 MSTORE SWAP2 MLOAD SWAP2 SWAP1 SWAP3 AND SWAP2 PUSH4 0x23B872DD SWAP2 PUSH1 0x64 DUP1 DUP4 ADD SWAP3 PUSH1 0x20 SWAP3 SWAP2 SWAP1 DUP3 SWAP1 SUB ADD DUP2 PUSH1 0x0 DUP8 DUP1 EXTCODESIZE ISZERO DUP1 ISZERO PUSH2 0x1C04 JUMPI PUSH1 0x0 DUP1 REVERT JUMPDEST POP GAS CALL ISZERO DUP1 ISZERO PUSH2 0x1C18 JUMPI RETURNDATASIZE PUSH1 0x0 DUP1 RETURNDATACOPY RETURNDATASIZE PUSH1 0x0 REVERT JUMPDEST POP POP POP POP PUSH1 0x40 MLOAD RETURNDATASIZE PUSH1 0x20 DUP2 LT ISZERO PUSH2 0x1C2E JUMPI PUSH1 0x0 DUP1 REVERT JUMPDEST POP MLOAD PUSH2 0x1C39 JUMPI PUSH1 0x0 DUP1 REVERT JUMPDEST PUSH1 0x0 DUP5 DUP2 MSTORE PUSH1 0x2 PUSH1 0x20 SWAP1 DUP2 MSTORE PUSH1 0x40 DUP1 DUP4 KECCAK256 DUP1 SLOAD PUSH1 0x1 PUSH1 0x1 PUSH1 0xA0 SHL SUB NOT AND PUSH1 0x1 PUSH1 0x1 PUSH1 0xA0 SHL SUB DUP8 AND SWAP1 DUP2 OR SWAP1 SWAP2 SSTORE DUP4 MSTORE PUSH1 0x4 DUP3 MSTORE DUP1 DUP4 KECCAK256 DUP1 SLOAD PUSH1 0x1 ADD SWAP1 DUP2 SWAP1 SSTORE PUSH1 0x3 DUP4 MSTORE DUP2 DUP5 KECCAK256 SWAP1 DUP5 MSTORE SWAP1 SWAP2 MSTORE DUP2 KECCAK256 DUP6 SWAP1 SSTORE DUP1 JUMPDEST PUSH1 0x1 PUSH1 0x1 PUSH1 0xA0 SHL SUB DUP6 AND PUSH1 0x0 SWAP1 DUP2 MSTORE PUSH1 0x4 PUSH1 0x20 MSTORE PUSH1 0x40 SWAP1 KECCAK256 SLOAD DUP2 LT ISZERO PUSH2 0x1CFF JUMPI PUSH1 0x1 PUSH1 0x1 PUSH1 0xA0 SHL SUB DUP6 AND PUSH1 0x0 SWAP1 DUP2 MSTORE PUSH1 0x3 PUSH1 0x20 SWAP1 DUP2 MSTORE PUSH1 0x40 DUP1 DUP4 KECCAK256 PUSH1 0x1 DUP6 ADD DUP5 MSTORE SWAP1 SWAP2 MSTORE SWAP1 KECCAK256 SLOAD DUP7 EQ ISZERO PUSH2 0x1CF7 JUMPI PUSH1 0x1 PUSH1 0x1 PUSH1 0xA0 SHL SUB DUP6 AND PUSH1 0x0 SWAP1 DUP2 MSTORE PUSH1 0x4 PUSH1 0x20 MSTORE PUSH1 0x40 SWAP1 KECCAK256 SLOAD SWAP1 SWAP2 POP JUMPDEST PUSH1 0x1 ADD PUSH2 0x1C8C JUMP JUMPDEST POP PUSH1 0x1 PUSH1 0x1 PUSH1 0xA0 SHL SUB SWAP1 SWAP4 AND PUSH1 0x0 SWAP1 DUP2 MSTORE PUSH1 0x3 PUSH1 0x20 SWAP1 DUP2 MSTORE PUSH1 0x40 DUP1 DUP4 KECCAK256 PUSH1 0x1 SWAP1 SWAP7 ADD DUP4 MSTORE SWAP5 SWAP1 MSTORE SWAP3 DUP4 KECCAK256 SWAP3 SWAP1 SWAP3 SSTORE POP POP POP JUMP INVALID PUSH13 0x61207472616E73616374696F6E KECCAK256 PUSH5 0x6F697420C3 DUP4 0xC2 0xAA PUSH21 0x726520C383C2A96D6973652064657075697320756E KECCAK256 PUSH4 0x6F6D7074 PUSH6 0x2064652073C3 DUP4 0xC2 0xA9 PUSH18 0x7565737472656C6520726563697069656E74 KECCAK256 PUSH6 0x7374206C6520 PUSH17 0x726F707269C383C2A97461697265206465 KECCAK256 PUSH13 0x6120706172746974696F6E6C65 KECCAK256 PUSH4 0x6F6E7472 PUSH2 0x6374 KECCAK256 PUSH5 0x652073C383 0xC2 0xA9 PUSH18 0x75657374726520646F697420C383C2AA7472 PUSH6 0x206175746F72 PUSH10 0x73C383C2A920C383C2A0 KECCAK256 PUSH14 0x6F646966696572206C6520737461 PUSH21 0x7573206465206C6120706172746974696F6EA26469 PUSH17 0x667358221220F2BCE88195764ED295A641 CHAINID LOG1 DIV ADD PUSH32 0xC912F613321E11B364FFB45B9D9C59EC64736F6C634300060C00330000000000 ",
  "sha1": "22c2e54445f1f9e79f5d812da5f8e3c1b919ead0",
  "source": "pragma solidity ^0.6.0;\n\nimport \"interfaces/my_IERC20.sol\";\n\ncontract ERC1400 {\n\n  address creator; // Developper account\n\tbool isControl;\n\tIERC20 tokenContract; // TokenContract managing payment\n\n\tenum partitionStates {\n\t\tSTATUS_ACTIVE,\n\t\tSTATUS_CONFINED,\n\t\tSTATUS_SOLD\n\t}\n\n\tenum holderStates {\n\t\tSTATUS_HOLDER,\n\t\tSTATUS_CONTROLLER,\n\t\tSTATUS_ESCROW\n\t}\n\n  // Represents a partially fungible tokens.\n  struct Partition {\n\t\taddress owner;\n    uint256 amount;\n\t\tuint256 creation; // date de crÃ©ation\n\t\tpartitionStates status;\n  }\n\n\t// Represents a holder of Partition\n\tstruct Holder {\n\t\tuint256 nbUid;\n\t\tholderStates status;\n\t}\n\n\t// Represents an escrow\n\tstruct ConfinedPartition {\n\t\taddress escrow;\n\t\tuint256 expirationDate;\n\t\tuint256 priceExercise;\n\t\taddress recipient;\n\t}\n\n  // Mapping from partition UID\n  mapping (uint256 => Partition) public partitions;\n\n  // Mapping from investor to their partitions\n  mapping (address => mapping (uint256 => uint256)) public uids;\n\n  // Mapping from investor (holder) to the number of partitions they own\n  mapping (address => Holder) public holders;\n\n\t// Mapping from partition UID to escrow status\n\tmapping (uint256 => ConfinedPartition) public confined;\n\n\n\tconstructor(address _tokenContractAddress, bool _isControl) public {\n\t  creator = msg.sender;\n\t\tisControl = _isControl;\n\t\ttokenContract = IERC20(_tokenContractAddress);\n\t}\n\n\t//-------\n\t// getter\n\t//-------\n\n  function getPartitionOwner(uint256 partitionUid) public view returns (address) {\n      return partitions[partitionUid].owner;\n  }\n\n  function getPartitionStatus(uint256 partitionUid) public view returns (uint) {\n      return uint(partitions[partitionUid].status);\n  }\n\n\tfunction getPartitionAmount(uint256 partitionUid) public view returns (uint) {\n      return uint(partitions[partitionUid].amount);\n  }\n\n\tfunction getHolderNbuid(address user) public view returns (uint) {\n      return uint(holders[user].nbUid);\n  }\n\n  function getUid(address user, uint index) public view returns (uint256) {\n      return uint(uids[user][index]);\n  }\n\n\t//---------------------------------------------------------\n\t// specifications ERC1410 - Partially Fungible Token events\n\t//---------------------------------------------------------\n\n\tevent TransferByPartition( uint256 partitionUid, address sender, address receiver, uint256 price );\n\n\t//------------------------------------------------------------\n\t// specifications ERC1410 - Partially Fungible Token functions\n\t//------------------------------------------------------------\n\n  function partitionsOf(address owner) external view returns ( uint256[] memory ) {\n\t\tuint256[] memory uidList = new uint256[](holders[owner].nbUid);\n\t\tfor(uint i = 0; i < holders[owner].nbUid; i++) {\n\t\t\tuidList[i] = uids[owner][i+1];\n\t\t}\n\n    return uidList;\n  }\n\n\tfunction balanceByPartition(uint256 partitionUid) external view returns ( uint256 ){\n\t\treturn partitions[partitionUid].amount;\n\t}\n\n\tfunction balanceOf(address owner) external view returns ( uint256 ){\n\t\tuint256 total = 0;\n\t\tfor(uint i = 0; i < holders[owner].nbUid; i++) {\n\t\t\tif(uids[owner][i+1] != 0) {\n\t\t\t\ttotal += partitions[uids[owner][i+1]].amount;\n\t\t\t}\n\t\t}\n\n\t\treturn total;\n\t}\n\n\t/**\n\t* Register an account\n\t**/\n\tfunction registerAccount() public{\n\t\trequire(tokenContract.balanceOf(msg.sender) >= 0);\n\t\tholders[msg.sender].nbUid = 0;\n\t\tholders[msg.sender].status = holderStates.STATUS_HOLDER;\n\t}\n\n\t/**\n\t* Buy a partition through TokenContract payment.\n\t* Used in ERC20 standard\n\t* @param partitionUid, amount\n\t*\n\t*/\n\tfunction buyPartition( uint256 partitionUid, uint256 amount ) public{\n\t\trequire(partitionUid != 0);\n\t\trequire(holders[msg.sender].status == holderStates.STATUS_HOLDER);\n\t\trequire(tokenContract.balanceOf(msg.sender) >= amount);\n\t\trequire(tokenContract.burnFrom(msg.sender, amount));\n\n\t\tpartitions[partitionUid].owner = msg.sender;\n\t\tpartitions[partitionUid].amount = amount;\n\t\tpartitions[partitionUid].creation = now;\n\t\tpartitions[partitionUid].status = partitionStates.STATUS_ACTIVE;\n\n\t\tholders[msg.sender].nbUid++;\n\t\tuids[msg.sender][holders[msg.sender].nbUid] = partitionUid;\n\t}\n\n\t/**\n\t* Sell a partition through TokenContract payment.\n\t* Used in ERC20 standard\n\t* @param partitionUid, amount\n\t*\n\t*/\n\tfunction sellPartition( uint256 partitionUid ) public{\n\t\trequire(msg.sender == partitions[partitionUid].owner);\n\t\trequire(tokenContract.mintFrom(msg.sender, partitions[partitionUid].amount));\n\n\t\tpartitions[partitionUid].amount = 0;\n\t\tpartitions[partitionUid].status = partitionStates.STATUS_SOLD;\n\n\t\tuint j;\n\t\tfor(uint i = 0; i < holders[msg.sender].nbUid; i++) {\n\t\t\tif(uids[msg.sender][i+1] == partitionUid) {\n\t\t\t\tj = i;\n\t\t\t\ti = holders[msg.sender].nbUid;\n\t\t\t}\n\t\t}\n\t\tuids[msg.sender][j+1] = 0;\n\t}\n\n\t/**\n\t* Transfer a partition through TokenContract payment.\n\t* Used in ERC20 standard\n\t* @param partitionUid, receiver account\n\t*\n\t*/\n\tfunction transferByPartition(uint256 partitionUid, address receiver, uint256 price) public{\n\t\trequire(holders[receiver].status == holderStates.STATUS_HOLDER);\n\n\t\t_transfertByPartition(partitionUid, msg.sender, receiver, price);\n\n\t\t//require(tokenContract.balanceOf(receiver) >= price);\n\t\t//require(msg.sender == partitions[partitionUid].owner);\n\t\t//require(tokenContract.allowance(receiver, address(this)) >= price);\n\t\t//require(tokenContract.transferFrom(receiver, msg.sender, price));  // price should be partitionIndex[partitionuid].amount\n\n\t\t//partitions[partitionUid].owner = receiver;\n\t\t//holders[receiver].nbUid++;\n\t\t//uids[receiver][holders[receiver].nbUid] = partitionUid;\n\n\t\t//uint j;\n\t\t//for(uint i = 0; i < holders[msg.sender].nbUid; i++) {\n\t\t//\tif(uids[msg.sender][i+1] == partitionUid) {\n\t\t//\t\tj = i;\n\t\t//\t\ti = holders[msg.sender].nbUid;\n\t\t//\t}\n\t\t//}\n\t\t//uids[msg.sender][j+1] = 0;\n\n\t\temit TransferByPartition(partitionUid, msg.sender, receiver, price);\n\t}\n\n\n\tfunction _transfertByPartition(uint256 partitionUid, address sender, address receiver, uint256 price) internal virtual {\n\t\trequire(tokenContract.balanceOf(receiver) >= price);\n\t\trequire(sender == partitions[partitionUid].owner);\n\t\trequire(tokenContract.allowance(receiver, address(this)) >= price);\n\t\trequire(tokenContract.transferFrom(receiver, sender, price));\n\n\t\tpartitions[partitionUid].owner = receiver;\n\t\tholders[receiver].nbUid++;\n\t\tuids[receiver][holders[receiver].nbUid] = partitionUid;\n\n\t\tuint j;\n\t\tfor(uint i = 0; i < holders[sender].nbUid; i++) {\n\t\t\tif(uids[sender][i+1] == partitionUid) {\n\t\t\t\tj = i;\n\t\t\t\ti = holders[sender].nbUid;\n\t\t\t}\n\t\t}\n\t\tuids[sender][j+1] = 0;\n\t}\n\n\n\t//-------------------------------------------\n\t// specifications ERC1644 - Controller Events\n\t//-------------------------------------------\n\n    event ControllerTransfer(address controller, address indexed seller, address indexed receiver, uint256 price, uint256 partitionUid);\n\n    event ControllerRedemption(address controller, address indexed seller, uint256 price, uint256 partitionUid);\n\n\n\t//----------------------------------------------\n\t// specifications ERC1644 - Controller functions\n\t//----------------------------------------------\n\n\t/**\n\t* Register a controller\n\t**/\n\tfunction registerController( address controller) public{\n\t\trequire(msg.sender == creator);\n\t\trequire(tokenContract.balanceOf(controller) >= 0);\n\t\trequire(holders[controller].status == holderStates.STATUS_HOLDER);\n\n\t\tholders[controller].status = holderStates.STATUS_CONTROLLER;\n\t}\n\n\t/**\n\t* Revoke a controller\n\t**/\n\tfunction revokeController( address controller) public{\n\t\trequire(msg.sender == creator);\n\t\trequire(holders[controller].status == holderStates.STATUS_CONTROLLER);\n\n\t\tholders[controller].status = holderStates.STATUS_HOLDER;\n\t}\n\n\tfunction isControllable() external view returns (bool){\n\t\treturn isControl;\n\t}\n\n\n\tfunction controllerTransfer(address seller, address receiver, uint256 partitionUid) public{\n\t\trequire(holders[tx.origin].status == holderStates.STATUS_CONTROLLER);\n\t\trequire(holders[seller].status == holderStates.STATUS_HOLDER);\n\t\trequire(holders[receiver].status == holderStates.STATUS_HOLDER);\n\n\t\t_transfertByPartition(partitionUid, seller, receiver, partitions[partitionUid].amount);\n\n\t\t//require(tokenContract.balanceOf(receiver) >= price);\n\t\t//require(seller == partitions[partitionUid].owner);\n\t\t////require(tokenContract.allowance(receiver, address(this)) >= price);\n\t\t//require(tokenContract.transferFrom(receiver, seller, price));  // price should be partitionIndex[partitionuid].amount\n\n\t\t//partitions[partitionUid].owner = receiver;\n\t\t//holders[receiver].nbUid++;\n\t\t//uids[receiver][holders[receiver].nbUid] = partitionUid;\n\n\t\t//uint j;\n\t\t//for(uint i = 0; i < holders[seller].nbUid; i++) {\n\t\t//\tif(uids[seller][i+1] == partitionUid) {\n\t\t//\t\tj = i;\n\t\t//\t\ti = holders[seller].nbUid;\n\t\t//\t}\n\t\t//}\n\t\t//uids[seller][j+1] = 0;\n\n\t\temit ControllerTransfer(tx.origin, seller, receiver, partitions[partitionUid].amount, partitionUid);\n\t}\n\n  function controllerRedeem(address seller, uint256 partitionUid) public{\n\t\trequire(holders[tx.origin].status == holderStates.STATUS_CONTROLLER);\n\t\trequire(holders[seller].status == holderStates.STATUS_HOLDER);\n\n\t\t_transfertByPartition(partitionUid, seller, tx.origin, partitions[partitionUid].amount);\n\n\t\t//require(tokenContract.balanceOf(msg.sender) >= price);\n\t\t//require(seller == partitions[partitionUid].owner);\n\t\t////require(tokenContract.allowance(receiver, address(this)) >= price);\n\t\t//require(tokenContract.transferFrom(msg.sender, seller, price));  // price should be partitionIndex[partitionuid].amount\n\n\t\t//partitions[partitionUid].owner = msg.sender;\n\t\t//holders[msg.sender].nbUid++;\n\t\t//uids[msg.sender][holders[msg.sender].nbUid] = partitionUid;\n\n\t\t//uint j;\n\t\t//for(uint i = 0; i < holders[seller].nbUid; i++) {\n\t\t//\tif(uids[seller][i+1] == partitionUid) {\n\t\t//\t\tj = i;\n\t\t//\t\ti = holders[seller].nbUid;\n\t\t//\t}\n\t\t//}\n\t\t//uids[seller][j+1] = 0;\n\n\t\temit ControllerRedemption(tx.origin, seller, partitions[partitionUid].amount, partitionUid);\n\t}\n\n\t//------------------------------------\n\t// addition to ERC1400 - Escrow events\n\t//------------------------------------\n\n\tevent ApprovalEscrow(address owner, address escrow, uint256 partitionUid, uint256 price);\n\tevent EscrowTransfer(address escrow, address seller, address receiver, uint256 price, uint256 partitionUid);\n\tevent EscrowExplicitTransfer(address escrow, address seller, address recipient, uint256 price, uint256 partitionUid);\n\n\t//---------------------------------------\n\t// addition to ERC1400 - Escrow functions\n\t//---------------------------------------\n\n\tmapping (address => mapping (address => mapping (uint256 => uint256))) private _allowanceEscrow;\n\n\t/**\n\t* Register an escrow address (this should be the caller smart contract address)\n\t**/\n\tfunction registerEscrow(address escrow) public returns (bool){\n\t\tholders[escrow].nbUid = 0;\n\t\tholders[escrow].status = holderStates.STATUS_ESCROW;\n\t\treturn true;\n\t}\n\n\t/**\n\t* Approve an escrow address for the transfer of a partition\n\t**/\n\tfunction approveEscrow(address escrow, uint256 partitionUid, uint256 price) public returns (bool){\n    require(escrow != address(0));\n\t\trequire(price >= partitions[partitionUid].amount);\n\t\trequire(msg.sender == partitions[partitionUid].owner);\n\n    _allowanceEscrow[msg.sender][escrow][partitionUid] = price;\n    emit ApprovalEscrow(msg.sender, escrow, partitionUid, price);\n\t\treturn true;\n\t}\n\n\t/**\n\t* Allowance given to an escrow address on a partition\n\t**/\n\tfunction allowanceEscrow(address owner, address escrow, uint256 partitionUid) public returns (uint256){\n\t\treturn _allowanceEscrow[owner][escrow][partitionUid];\n\t}\n\n\t/**\n\t* Get the message sender (help to debug)\n\t**/\n\tfunction whoIsOrigin() public returns (address){\n\t\treturn tx.origin;\n\t}\n\n\t/**\n\t* Confinement of a Partition for a given duration\n\t**/\n\n\tfunction confinePartition(address recipient, uint256 partitionUid, uint256 expirationDate, uint256 priceExercise) public returns (bool){\n\t\trequire(tx.origin == partitions[partitionUid].owner);\n\t\trequire(holders[msg.sender].status == holderStates.STATUS_ESCROW);\n\t\trequire(_allowanceEscrow[tx.origin][msg.sender][partitionUid] >= priceExercise, \"le contract de sÃ©questre doit Ãªtre autorisÃ© Ã  modifier le status de la partition\");\n\n\t\tpartitions[partitionUid].status = partitionStates.STATUS_CONFINED;\n\t\tconfined[partitionUid].escrow = msg.sender;\n\t\tconfined[partitionUid].expirationDate = expirationDate;\n\t\tconfined[partitionUid].priceExercise = priceExercise;\n\t\tconfined[partitionUid].recipient = recipient;\n\t\treturn true;\n\t}\n\n\t/**\n\t* Deconfinement of a Partition\n\t**/\n\n\tfunction deconfinePartition(address recipient, uint256 partitionUid) public returns (bool){\n    // TODO : decomment the requirements\n    require(partitions[partitionUid].owner == recipient, \"le recipient est le propriÃ©taire de la partition\");\n\t\t//require(partitions[partitionUid].status == partitionStates.STATUS_CONFINED, \"la partition doit Ãªtre confinÃ©e\");\n\t\trequire(holders[msg.sender].status == holderStates.STATUS_ESCROW, \"la transaction doit Ãªtre Ã©mise depuis un compte de sÃ©questre\");\n    //require(_allowanceEscrow[recipient][msg.sender][partitionUid] >= partitions[partitionUid].amount, \"le contract Escrow doit Ãªtre autorisÃ© Ã  modifier le status de la partition\");\n\n\t\tpartitions[partitionUid].status = partitionStates.STATUS_ACTIVE;\n\t\tif(confined[partitionUid].expirationDate > now) {\n\t\t\tconfined[partitionUid].expirationDate = now;\n\t\t}\n\t\treturn true;\n\t}\n\n\n\t/**\n\t* stop the Option Exercise on a Partition by escrow account or after expiration of the exercise\n\t**/\n\n\tfunction stopOptionByPromisor(uint256 partitionUid) public returns (bool) {\n\t\trequire(holders[msg.sender].status == holderStates.STATUS_ESCROW);\n\t\trequire(holders[tx.origin].status == holderStates.STATUS_HOLDER);\n\t\trequire(msg.sender == confined[partitionUid].escrow);\n\t\trequire(tx.origin == partitions[partitionUid].owner);\n\t\trequire(partitions[partitionUid].status == partitionStates.STATUS_CONFINED);\n\t\t_allowanceEscrow[partitions[partitionUid].owner][msg.sender][partitionUid] = 0;\n\n\t\trequire(now > confined[partitionUid].expirationDate);\n\t\tpartitions[partitionUid].status = partitionStates.STATUS_ACTIVE;\n\t\treturn true;\n\t}\n\n\tfunction stopOptionByRecipient(uint256 partitionUid) public returns (bool) {\n\t\trequire(holders[msg.sender].status == holderStates.STATUS_ESCROW);\n\t\trequire(holders[tx.origin].status == holderStates.STATUS_HOLDER);\n\t\trequire(msg.sender == confined[partitionUid].escrow);\n\t\trequire(tx.origin == confined[partitionUid].recipient);\n\t\trequire(partitions[partitionUid].status == partitionStates.STATUS_CONFINED);\n\t\t_allowanceEscrow[partitions[partitionUid].owner][msg.sender][partitionUid] = 0;\n\n\t\trequire(now <= confined[partitionUid].expirationDate);\n\t\tpartitions[partitionUid].status = partitionStates.STATUS_ACTIVE;\n\t\tconfined[partitionUid].expirationDate = now;\n\t\treturn true;\n\t}\n\n\t/**\n\t* transfer partition from escrow\n\t**/\n\n\tfunction escrowTransfer(address seller, uint256 price, uint256 partitionUid) public{\n\t\trequire(tx.origin == confined[partitionUid].recipient);\n\n\t\trequire(holders[msg.sender].status == holderStates.STATUS_ESCROW);\n\t\trequire(holders[seller].status == holderStates.STATUS_HOLDER);\n\t\trequire(holders[tx.origin].status == holderStates.STATUS_HOLDER);\n\t\trequire(msg.sender == confined[partitionUid].escrow);\n\t\trequire(seller == partitions[partitionUid].owner);\n\t\trequire(now <= confined[partitionUid].expirationDate);\n\n\t\t_transfertByPartition(partitionUid, seller, tx.origin, price);\n\n\t\temit EscrowTransfer(msg.sender, seller, tx.origin, price, partitionUid);\n\t}\n\n\n\tfunction escrowExplicitTransfer(address seller, address recipient, uint256 price, uint256 partitionUid) public{\n\t\trequire(holders[msg.sender].status == holderStates.STATUS_ESCROW);\n\t\trequire(holders[seller].status == holderStates.STATUS_HOLDER);\n\t\trequire(holders[recipient].status == holderStates.STATUS_HOLDER);\n\t\trequire(seller == partitions[partitionUid].owner);\n\n\t\t_transfertByPartition(partitionUid, seller, recipient, price);\n\n\t\temit EscrowExplicitTransfer(msg.sender, seller, recipient, price, partitionUid);\n\t}\n}\n",
  "sourcePath": "contracts/my_ERC1400.sol",
  "type": "contract"
}