{
  "abi": [
    {
      "inputs": [
        {
          "internalType": "address",
          "name": "_tokenContractAddress",
          "type": "address"
        },
        {
          "internalType": "address",
          "name": "_receiver",
          "type": "address"
        }
      ],
      "stateMutability": "payable",
      "type": "constructor"
    },
    {
      "inputs": [
        {
          "internalType": "address",
          "name": "",
          "type": "address"
        }
      ],
      "name": "dataBase",
      "outputs": [
        {
          "internalType": "uint256",
          "name": "",
          "type": "uint256"
        }
      ],
      "stateMutability": "view",
      "type": "function"
    },
    {
      "inputs": [
        {
          "internalType": "address",
          "name": "_sender",
          "type": "address"
        },
        {
          "internalType": "address",
          "name": "_tokenContractAddress",
          "type": "address"
        },
        {
          "internalType": "uint256",
          "name": "payload",
          "type": "uint256"
        }
      ],
      "name": "receiveApproval",
      "outputs": [],
      "stateMutability": "nonpayable",
      "type": "function"
    },
    {
      "inputs": [
        {
          "internalType": "uint256",
          "name": "_data",
          "type": "uint256"
        }
      ],
      "name": "storeData",
      "outputs": [],
      "stateMutability": "nonpayable",
      "type": "function"
    },
    {
      "inputs": [
        {
          "internalType": "address",
          "name": "_sender",
          "type": "address"
        },
        {
          "internalType": "uint256",
          "name": "_value",
          "type": "uint256"
        },
        {
          "internalType": "uint256",
          "name": "_payload",
          "type": "uint256"
        }
      ],
      "name": "tokenFallback",
      "outputs": [
        {
          "internalType": "bool",
          "name": "",
          "type": "bool"
        }
      ],
      "stateMutability": "nonpayable",
      "type": "function"
    }
  ],
  "bytecode": "60806040526040516103a33803806103a38339818101604052604081101561002657600080fd5b508051602090910151600080546001600160a01b03199081163317909155600180546001600160a01b039384169083161790556002805492909316911617905561032e806100756000396000f3fe608060405234801561001057600080fd5b506004361061004c5760003560e01c806312f564101461005157806316b95176146100895780634f4ee353146100a8578063da9b14bc146100ee575b600080fd5b6100776004803603602081101561006757600080fd5b50356001600160a01b0316610124565b60408051918252519081900360200190f35b6100a66004803603602081101561009f57600080fd5b5035610136565b005b6100da600480360360608110156100be57600080fd5b506001600160a01b0381351690602081013590604001356101dc565b604080519115158252519081900360200190f35b6100a66004803603606081101561010457600080fd5b506001600160a01b03813581169160208101359091169060400135610228565b60036020526000908152604090205481565b60025460018054604080516323b872dd60e01b81523360048201526001600160a01b0392831660248201526044810193909352519216916323b872dd916064808201926020929091908290030181600087803b15801561019557600080fd5b505af11580156101a9573d6000803e3d6000fd5b505050506040513d60208110156101bf57600080fd5b50516101ca57600080fd5b33600090815260036020526040902055565b6002546000906001600160a01b031633146101f657600080fd5b8260011461020357600080fd5b506001600160a01b038316600090815260036020526040902081905560019392505050565b6002546001600160a01b0383811691161461024257600080fd5b60025460018054604080516323b872dd60e01b81526001600160a01b03888116600483015292831660248201526044810193909352519216916323b872dd916064808201926020929091908290030181600087803b1580156102a357600080fd5b505af11580156102b7573d6000803e3d6000fd5b505050506040513d60208110156102cd57600080fd5b50516102d857600080fd5b6001600160a01b039092166000908152600360205260409020919091555056fea2646970667358221220dcfdf96f111be358c05ccd95223453649d5b31c4397552d5e1c97356231bb86364736f6c634300060c0033",
  "bytecodeSha1": "1ae6eef119a8c47fc494aa47978349941eb6ebf8",
  "compiler": {
    "evm_version": "istanbul",
    "optimizer": {
      "enabled": true,
      "runs": 200
    },
    "version": "0.6.12"
  },
  "contractName": "storeServiceAccount",
  "language": "Solidity",
  "natspec": {
    "kind": "dev",
    "methods": {
      "receiveApproval(address,address,uint256)": {
        "notice": "Function   Check the caller and obtain the required tokens then store data "
      },
      "storeData(uint256)": {
        "notice": "Store a given data in dataBase at a given adress. Used in ERC20 standard ",
        "params": {
          "_data": "to store"
        }
      }
    },
    "version": 1
  },
  "opcodes": "PUSH1 0x80 PUSH1 0x40 MSTORE CALLVALUE DUP1 ISZERO PUSH2 0x10 JUMPI PUSH1 0x0 DUP1 REVERT JUMPDEST POP PUSH1 0x4 CALLDATASIZE LT PUSH2 0x4C JUMPI PUSH1 0x0 CALLDATALOAD PUSH1 0xE0 SHR DUP1 PUSH4 0x12F56410 EQ PUSH2 0x51 JUMPI DUP1 PUSH4 0x16B95176 EQ PUSH2 0x89 JUMPI DUP1 PUSH4 0x4F4EE353 EQ PUSH2 0xA8 JUMPI DUP1 PUSH4 0xDA9B14BC EQ PUSH2 0xEE JUMPI JUMPDEST PUSH1 0x0 DUP1 REVERT JUMPDEST PUSH2 0x77 PUSH1 0x4 DUP1 CALLDATASIZE SUB PUSH1 0x20 DUP2 LT ISZERO PUSH2 0x67 JUMPI PUSH1 0x0 DUP1 REVERT JUMPDEST POP CALLDATALOAD PUSH1 0x1 PUSH1 0x1 PUSH1 0xA0 SHL SUB AND PUSH2 0x124 JUMP JUMPDEST PUSH1 0x40 DUP1 MLOAD SWAP2 DUP3 MSTORE MLOAD SWAP1 DUP2 SWAP1 SUB PUSH1 0x20 ADD SWAP1 RETURN JUMPDEST PUSH2 0xA6 PUSH1 0x4 DUP1 CALLDATASIZE SUB PUSH1 0x20 DUP2 LT ISZERO PUSH2 0x9F JUMPI PUSH1 0x0 DUP1 REVERT JUMPDEST POP CALLDATALOAD PUSH2 0x136 JUMP JUMPDEST STOP JUMPDEST PUSH2 0xDA PUSH1 0x4 DUP1 CALLDATASIZE SUB PUSH1 0x60 DUP2 LT ISZERO PUSH2 0xBE JUMPI PUSH1 0x0 DUP1 REVERT JUMPDEST POP PUSH1 0x1 PUSH1 0x1 PUSH1 0xA0 SHL SUB DUP2 CALLDATALOAD AND SWAP1 PUSH1 0x20 DUP2 ADD CALLDATALOAD SWAP1 PUSH1 0x40 ADD CALLDATALOAD PUSH2 0x1DC JUMP JUMPDEST PUSH1 0x40 DUP1 MLOAD SWAP2 ISZERO ISZERO DUP3 MSTORE MLOAD SWAP1 DUP2 SWAP1 SUB PUSH1 0x20 ADD SWAP1 RETURN JUMPDEST PUSH2 0xA6 PUSH1 0x4 DUP1 CALLDATASIZE SUB PUSH1 0x60 DUP2 LT ISZERO PUSH2 0x104 JUMPI PUSH1 0x0 DUP1 REVERT JUMPDEST POP PUSH1 0x1 PUSH1 0x1 PUSH1 0xA0 SHL SUB DUP2 CALLDATALOAD DUP2 AND SWAP2 PUSH1 0x20 DUP2 ADD CALLDATALOAD SWAP1 SWAP2 AND SWAP1 PUSH1 0x40 ADD CALLDATALOAD PUSH2 0x228 JUMP JUMPDEST PUSH1 0x3 PUSH1 0x20 MSTORE PUSH1 0x0 SWAP1 DUP2 MSTORE PUSH1 0x40 SWAP1 KECCAK256 SLOAD DUP2 JUMP JUMPDEST PUSH1 0x2 SLOAD PUSH1 0x1 DUP1 SLOAD PUSH1 0x40 DUP1 MLOAD PUSH4 0x23B872DD PUSH1 0xE0 SHL DUP2 MSTORE CALLER PUSH1 0x4 DUP3 ADD MSTORE PUSH1 0x1 PUSH1 0x1 PUSH1 0xA0 SHL SUB SWAP3 DUP4 AND PUSH1 0x24 DUP3 ADD MSTORE PUSH1 0x44 DUP2 ADD SWAP4 SWAP1 SWAP4 MSTORE MLOAD SWAP3 AND SWAP2 PUSH4 0x23B872DD SWAP2 PUSH1 0x64 DUP1 DUP3 ADD SWAP3 PUSH1 0x20 SWAP3 SWAP1 SWAP2 SWAP1 DUP3 SWAP1 SUB ADD DUP2 PUSH1 0x0 DUP8 DUP1 EXTCODESIZE ISZERO DUP1 ISZERO PUSH2 0x195 JUMPI PUSH1 0x0 DUP1 REVERT JUMPDEST POP GAS CALL ISZERO DUP1 ISZERO PUSH2 0x1A9 JUMPI RETURNDATASIZE PUSH1 0x0 DUP1 RETURNDATACOPY RETURNDATASIZE PUSH1 0x0 REVERT JUMPDEST POP POP POP POP PUSH1 0x40 MLOAD RETURNDATASIZE PUSH1 0x20 DUP2 LT ISZERO PUSH2 0x1BF JUMPI PUSH1 0x0 DUP1 REVERT JUMPDEST POP MLOAD PUSH2 0x1CA JUMPI PUSH1 0x0 DUP1 REVERT JUMPDEST CALLER PUSH1 0x0 SWAP1 DUP2 MSTORE PUSH1 0x3 PUSH1 0x20 MSTORE PUSH1 0x40 SWAP1 KECCAK256 SSTORE JUMP JUMPDEST PUSH1 0x2 SLOAD PUSH1 0x0 SWAP1 PUSH1 0x1 PUSH1 0x1 PUSH1 0xA0 SHL SUB AND CALLER EQ PUSH2 0x1F6 JUMPI PUSH1 0x0 DUP1 REVERT JUMPDEST DUP3 PUSH1 0x1 EQ PUSH2 0x203 JUMPI PUSH1 0x0 DUP1 REVERT JUMPDEST POP PUSH1 0x1 PUSH1 0x1 PUSH1 0xA0 SHL SUB DUP4 AND PUSH1 0x0 SWAP1 DUP2 MSTORE PUSH1 0x3 PUSH1 0x20 MSTORE PUSH1 0x40 SWAP1 KECCAK256 DUP2 SWAP1 SSTORE PUSH1 0x1 SWAP4 SWAP3 POP POP POP JUMP JUMPDEST PUSH1 0x2 SLOAD PUSH1 0x1 PUSH1 0x1 PUSH1 0xA0 SHL SUB DUP4 DUP2 AND SWAP2 AND EQ PUSH2 0x242 JUMPI PUSH1 0x0 DUP1 REVERT JUMPDEST PUSH1 0x2 SLOAD PUSH1 0x1 DUP1 SLOAD PUSH1 0x40 DUP1 MLOAD PUSH4 0x23B872DD PUSH1 0xE0 SHL DUP2 MSTORE PUSH1 0x1 PUSH1 0x1 PUSH1 0xA0 SHL SUB DUP9 DUP2 AND PUSH1 0x4 DUP4 ADD MSTORE SWAP3 DUP4 AND PUSH1 0x24 DUP3 ADD MSTORE PUSH1 0x44 DUP2 ADD SWAP4 SWAP1 SWAP4 MSTORE MLOAD SWAP3 AND SWAP2 PUSH4 0x23B872DD SWAP2 PUSH1 0x64 DUP1 DUP3 ADD SWAP3 PUSH1 0x20 SWAP3 SWAP1 SWAP2 SWAP1 DUP3 SWAP1 SUB ADD DUP2 PUSH1 0x0 DUP8 DUP1 EXTCODESIZE ISZERO DUP1 ISZERO PUSH2 0x2A3 JUMPI PUSH1 0x0 DUP1 REVERT JUMPDEST POP GAS CALL ISZERO DUP1 ISZERO PUSH2 0x2B7 JUMPI RETURNDATASIZE PUSH1 0x0 DUP1 RETURNDATACOPY RETURNDATASIZE PUSH1 0x0 REVERT JUMPDEST POP POP POP POP PUSH1 0x40 MLOAD RETURNDATASIZE PUSH1 0x20 DUP2 LT ISZERO PUSH2 0x2CD JUMPI PUSH1 0x0 DUP1 REVERT JUMPDEST POP MLOAD PUSH2 0x2D8 JUMPI PUSH1 0x0 DUP1 REVERT JUMPDEST PUSH1 0x1 PUSH1 0x1 PUSH1 0xA0 SHL SUB SWAP1 SWAP3 AND PUSH1 0x0 SWAP1 DUP2 MSTORE PUSH1 0x3 PUSH1 0x20 MSTORE PUSH1 0x40 SWAP1 KECCAK256 SWAP2 SWAP1 SWAP2 SSTORE POP JUMP INVALID LOG2 PUSH5 0x6970667358 0x22 SLT KECCAK256 0xDC REVERT 0xF9 PUSH16 0x111BE358C05CCD95223453649D5B31C4 CODECOPY PUSH22 0x52D5E1C97356231BB86364736F6C634300060C003300 ",
  "sha1": "2676521698ab7cf8fde5a2fa58b6509169795df1",
  "source": "pragma solidity ^0.6.0;\n\nimport \"interfaces/my_IERC20.sol\";\n\n\ncontract storeServiceAccount {\n  \n    address creator; // Developper who can receive tokens\n\taddress receiver; // Person who will receive tokens \n\tIERC20 tokenContract; // TokenContract managing payment \n\n\tmapping (address => uint256) public dataBase;\n\t\n\n\t/* Constructor */\n\tconstructor (address _tokenContractAddress, address _receiver) public payable {\n\t    creator = msg.sender;\n\t\treceiver = _receiver;\n\t\ttokenContract = IERC20(_tokenContractAddress);\n\t}\n\t\n\t/**\n\t *  Function \n\t *  Check the caller and obtain the required tokens then store data \n\t */\n\tfunction receiveApproval (address _sender, /*uint256 _value ,*/ address _tokenContractAddress, uint256 payload) public {    \n\t    require(tokenContract == IERC20(_tokenContractAddress));\n\t\t/* Obtain the required tokens. if not enough tokens sent then the service will not take place */\n\t\trequire(tokenContract.transferFrom(_sender, receiver, 1));\n\n\t\t/* Store data in dataBase */\n\t\tdataBase[_sender] = payload;\n\t}\n\n\n    function tokenFallback(address _sender, uint256 _value, uint256 _payload ) public returns (bool) {\n\t\trequire(tokenContract == IERC20(msg.sender));\n\t\trequire(_value == 1);\n\t\tdataBase[_sender] = _payload;\n\t\treturn true;\n    }\n\n\t/**\n\t* Store a given data in dataBase at a given adress.\n\t* Used in ERC20 standard \n\t* @param _data to store\n\t*\n\t*/\n\tfunction storeData( uint256 _data ) public{\n\t\trequire(tokenContract.transferFrom(msg.sender, receiver, 1));\n\t\tdataBase[msg.sender] = _data;\n\t}\n}\n\n",
  "sourcePath": "contracts/storeService_to_account.sol",
  "type": "contract"
}